:020000040800F2
:1000000000500020B56200081520000817200008E5
:10001000192000081B2000081D2000080000000017
:100020000000000000000000000000001F20000889
:1000300021200008000000002320000825200008DF
:10004000FD620008FD620008FD620008FD62000814
:10005000FD620008FD620008FD620008FD62000804
:10006000FD620008FD620008FD620008FD620008F4
:10007000FD620008FD620008FD620008FD620008E4
:10008000FD620008FD620008FD620008FD620008D4
:10009000FD620008FD620008FD620008FD620008C4
:1000A000FD620008FD620008FD620008FD620008B4
:1000B000FD620008FD620008FD620008FD620008A4
:1000C000FD6200082D2000083D200008FD620008A8
:1000D000FD620008FD620008FD620008FD62000884
:1000E000FD620008FD620008FD62000800000000DB
:1000F0000000000000000000000000000000000000
:0C01000000000000000000005FF808F1A3
:10010C000348044B834202D0034B03B1184770479A
:10011C0078070020780700200000000005480649F9
:10012C000B1AD90F01EBA301491002D0034B03B1F9
:10013C00184770477807002078070020000000005F
:10014C0010B5064C237843B9FFF7DAFF044B13B113
:10015C000448AFF300800123237010BD7807002002
:10016C00000000000063000808B5044B1BB10449F3
:10017C000448AFF30080BDE80840CFE70000000062
:10018C007C07002000630008014B1868704700BF13
:10019C000000002070B50D4E0D4D761BB61006D02C
:1001AC00002455F8043B01349847A642F9D1094E76
:1001BC00094D06F09FF8761BB61006D0002455F8B2
:1001CC00043B01349847A642F9D170BDE86B000896
:1001DC00E86B0008EC6B0008E86B0008844641EA09
:1001EC00000313F0030349D1403A23D30B68036097
:1001FC004B6843608B688360CB68C3600B69036199
:10020C004B6943618B698361CB69C3610B6A036280
:10021C004B6A43628B6A8362CB6AC3620B6B036368
:10022C004B6B43638B6B8363CB6BC363403040314D
:10023C00403ADBD230320BD30B6803604B6843601F
:10024C008B688360CB68C36010301031103AF3D2E6
:10025C000C3205D351F8043B40F8043B043AF9D274
:10026C00043208D0D2071CBF11F8013B00F8013B47
:10027C0001D30B8803806046704700BF082A13D354
:10028C008B07B1D010F00303AED0C3F10403D21A24
:10029C00DB071CBF11F8013B00F8013BA4D331F87C
:1002AC00023B20F8023B9FE7043AD9D3013A11F8FC
:1002BC00013B00F8013BF9D20B7803704B7843708B
:1002CC008B7883706046704788420DD98B188342B7
:1002DC000AD900EB020CBAB1624613F801CD99426F
:1002EC0002F801CDF9D170470F2A0ED8034602F15E
:1002FC00FF3C4AB10CF1010C013B8C4411F8012B71
:10030C00614503F8012FF9D1704740EA01039B07BF
:10031C004FD1A2F1100370B501F1200C23F00F05A1
:10032C0001F1100E00F11004AC441B095EF8105CD6
:10033C000EF1100E44F8105C5EF81C5C103444F89E
:10034C001C5C5EF8185C44F8185C5EF8145CE645BE
:10035C0044F8145CEAD1013312F00C0F01EB0311D9
:10036C0002F00F0400EB031327D08E46043C24F05C
:10037C0003064FEA940C1E441C1F5EF8045B44F801
:10038C00045FB442F9D10CF1010402F0030203EB57
:10039C00840301EB840102F1FF3C4AB10CF1010C26
:1003AC00013B8C4411F8012B614503F8012FF9D165
:1003BC0070BD034602F1FF3C9CE72246EBE700BF11
:1003CC00830730B548D0541E002A3FD00346CAB22A
:1003DC0001E0013C3AD303F8012B9D07F9D1032C22
:1003EC002DD9CDB245EA05250F2C45EA054536D960
:1003FC00A4F1100222F00F0C03F1200EE6444FEA98
:10040C00121C03F1100242E9045542E90255103264
:10041C007245F8D10CF1010214F00C0F03EB02122F
:10042C0004F00F0C13D0ACF1040323F003030433DA
:10043C00134442F8045B9342FBD10CF003042CB13F
:10044C00CAB21C4403F8012B9C42FBD130BD64465C
:10045C001346002CF4D1F9E703461446BFE71A46BD
:10046C00A446E0E70EB410B5044683B008B1836926
:10047C005BB106AB2046059AA168019300F076FDAE
:10048C0003B0BDE8104003B0704700F081FBF0E70B
:10049C000FB410B50A4B82B01C680CB1A3695BB1E8
:1004AC0005AB2046049AA168019300F05FFD02B0F1
:1004BC00BDE8104004B07047204600F069FBEFE740
:1004CC000000002010B5044682B008B1836933B136
:1004DC002046A26802B0BDE8104001F089B8019135
:1004EC0000F056FB0199F3E738B50B4B05461C6839
:1004FC000CB1A36933B129462046A268BDE8384047
:10050C0001F076B8204600F043FB29462046A2684D
:10051C00BDE8384001F06CB80000002070B506460C
:10052C000D46002830D0836963B384682C4B9C4201
:10053C0034D02C4B9C423CD02B4B9C4208BFF468D3
:10054C00A3891B072ED5236963B3297839B932E007
:10055C0023685A1C2260197015F8011F59B3A3683F
:10056C00013B002BA360F3DAA269934201DB0A2959
:10057C00EED12246304600F041F80130ECD14FF07C
:10058C00FF3070BD00F004FBB369B468002BCDD113
:10059C00304600F0FDFA124B9C42CAD17468A38914
:1005AC001B07D0D42146304600F08AF80028CCD066
:1005BC00E5E7B468C4E7A368013B002BA36008DA45
:1005CC0022460A21304600F019F80130D7D00A2013
:1005DC0070BD0A2223681046591C21601A7070BD28
:1005EC005C6300083C6300081C630008024B014676
:1005FC001868FFF793BF00BF00000020F8B506464F
:10060C000D46144608B1836943B3254B9C422AD04E
:10061C00244B9C4229D0244B9C4208BFF468A2690D
:10062C00A389A2601A0722D5236903B322686169E2
:10063C00D31AEDB299422F4629DD0133A168013955
:10064C00A160511C2160157062699A4216D0A38971
:10065C00DB0701D50A2D11D03846F8BD00F098FA09
:10066C000F4B9C42D4D17468D9E7B468D7E72146C4
:10067C00304600F025F838B92369D7E721463046D3
:10068C0000F024F90028E7D04FF0FF37E4E72146CB
:10069C00304600F01BF90028F6D101232268CDE783
:1006AC005C6300083C6300081C63000803460A46B0
:1006BC00024908681946FFF7A1BF00BF00000020DF
:1006CC003C4B70B51D6806460C460DB1AB69E3B1E9
:1006DC00394B9C421FD0394B9C424DD0384B9C42DD
:1006EC0008BFEC68B4F90C3018079AB219D5216917
:1006FC0011B312F001002FD000256069A5604042B3
:10070C00A06100292ED0002070BD284600F040FAD0
:10071C00294B9C42DFD16C68B4F90C3018079AB2A3
:10072C00E5D4D1063ED5520728D4216943F00803FD
:10073C00A3819AB20029DCD102F42070B0F5007FBD
:10074C00D7D02146304600F087FAB4F90C30216935
:10075C009AB212F00100CFD1950758BF6069A06022
:10076C000029D0D1120658BF0846CDD543F040031E
:10077C004FF0FF30A38170BDAC68B3E7616B51B132
:10078C0004F14402914204D0304600F0F3FAB4F97B
:10079C000C30002262630022216923F02403C4E997
:1007AC000012C3E7092243F0400332604FF0FF30E0
:1007BC00A38170BD000000205C6300083C6300084E
:1007CC001C630008F8B58B890C46190707463BD407
:1007DC006268002A55DDE66A002E50D000223D6882
:1007EC003A6013F4805250D101233846216AB04745
:1007FC00421C5CD0A389E66A5B0705D56368C01A06
:10080C00636B0BB1236CC01A0246216A0023384675
:10081C00B047411C3BD13B68002B38D01D2B01D07D
:10082C00162B4BD100232269C4E90023616B3D6078
:10083C0029B304F14403994202D0384600F09AFAE5
:10084C00002318466363F8BD2669C6B19A0718BF22
:10085C000023256808BF63692660AD1BA3600CE00C
:10086C002B463246D4F828C03846216AE047B0F10E
:10087C00000CA5EB0C05664412DD002DF0DC00200D
:10088C00F8BD226C002AA6DCF9E7606DB4E7002203
:10089C00236962602360A389DB04C7D56065C5E763
:1008AC00A3894FF0FF3043F04003A381F8BD3B68B0
:1008BC00002B9FD01D2B06D0162B04D0A38943F000
:1008CC004003A381F8BD00203D60F8BD38B50B692D
:1008DC00BBB10C46054608B18369B3B10D4B9C42C4
:1008EC0011D00D4B9C4213D00C4B9C4208BFEC68B2
:1008FC00B4F90C302BB121462846BDE83840FFF73F
:10090C0061BF002038BD6C68F2E700F041F9E5E703
:10091C00AC68EDE75C6300083C6300081C630008EE
:10092C0038B540B303690446E3B1174B1D680DB1EC
:10093C00AB69CBB1154B9C420FD0154B9C4221D0CF
:10094C00144B9C4208BFEC68B4F90C3053B12146EF
:10095C002846BDE83840FFF735BF6C68B4F90C3059
:10096C00002BF4D1002038BD284600F011F9074BBC
:10097C009C42E2D1F1E7084B08491868BDE83840C1
:10098C0000F046B9AC68DFE7000000205C630008AB
:10099C003C6300081C63000818630008D9080008B1
:1009AC0000207047014900F033B900BFD908000896
:1009BC0000207047682270B54D1E02FB05F50E46EF
:1009CC0005F1740100F03CFA044640B100210C30F2
:1009DC00C4E9016005F168022160FFF7F1FC2046D3
:1009EC0070BD00BF274B2DE9F0411E680746B36967
:1009FC0053B34FF004084836D6E90134013B04D513
:100A0C001EE05A1C04F168041AD0B4F90C50013BD6
:100A1C00002DF6D11C4B08222946C4E90055C4E927
:100A2C000253C4E904556566A56104F15C00FFF747
:100A3C00C7FCC4E90D55C4E912552046BDE8F08148
:100A4C0035682DB12E46D7E7304600F01FF8D0E7B9
:100A5C004FF4D671384600F0F3F9044668B10560DE
:100A6C0029460546C0F804800C304FF4D072A060C3
:100A7C00FFF7A6FC34602E46BEE70C2330603B60CB
:100A8C00DBE700BF186300080100FFFF0023334AB7
:100A9C002DE9F0471268C0E912339042036508BF94
:100AAC0001232F4908BF836181620546FFF79AFF36
:100ABC00034628466B60FFF795FFA8602846002484
:100ACC00FFF790FF04236E68DFF898A0DFF898908A
:100ADC00DFF89880264FE8600822F3602146C6E9CB
:100AEC000044C6E904447466B460B46106F15C0069
:100AFC00FFF766FC1F4BC6E9086AC6E90A9837631C
:100B0C00AE680822F3602146C6E90044C6E90444F5
:100B1C007466B460B46106F15C00FFF751FC164BCF
:100B2C00C6E9086AC6E90A983763EE682146F3609D
:100B3C000822C6E90044C6E904447466B460B46192
:100B4C0006F15C00FFF73CFC0123C6E9086AC6E924
:100B5C000B87C6F82890AB61BDE8F08718630008D6
:100B6C00B109000831170008591700089917000837
:100B7C00B91700080900010012000200024B0349DA
:100B8C00186800F045B800BF18630008D9080008C1
:100B9C00836903B97AE77047704700BF704700BF9D
:100BAC00704700BF704700BF024B0349186800F044
:100BBC000FB800BF00000020AD090008024B03492C
:100BCC00186800F005B800BF00000020BD0900083F
:100BDC002DE9F0410026884600F14807D7E9015479
:100BEC00013D0ED4A389013D012B06D9B4F90E3079
:100BFC00013302D02046C04706436B1C04F1680445
:100C0C00F0D13F68002FE9D13046BDE8F08100BF3C
:100C1C002DE9F8434FF000090746884600F14806D5
:100C2C00D6E90154013D10D4A389013D012B08D90B
:100C3C00B4F90E30013304D021463846C04749EA96
:100C4C0000096B1C04F16804EED13668002EE7D164
:100C5C004846BDE8F88300BFF0B58B890C46990770
:100C6C0097B007D5012204F14703C4E9043223608D
:100C7C0017B0F0BDB4F90E10054600292DDB6A46FD
:100C8C0000F0C0FD002827DB019E4FF4806706F4BE
:100C9C007046A6F50056B6FA86F639462846760909
:100CAC0000F0CEF830B3A3891A4A43F08003AA624D
:100CBC00C4E90407A3812060002ED9D02846B4F9DA
:100CCC000E1000F02BFF0028D2D0A38923F00303D1
:100CDC0043F00103A381CBE7A38913F0800F14BF6A
:100CEC0040274FF4806728463946002600F0A8F8C4
:100CFC000028D8D1B4F90C309A05B9D4012123F0CD
:100D0C00030304F1470243F00203C4E90421A38165
:100D1C002260ADE7B109000870B50C46B1F90E10B0
:100D2C00164600291D4696B013DB6A4600F06AFD94
:100D3C0000280EDB01994FF4806301F47041A1F59A
:100D4C000051B1FA81F1002049092960336016B0D5
:100D5C0070BD0022B4F90C302A601B0604D5402368
:100D6C000020336016B070BD4FF4806300203360F8
:100D7C0016B070BD002952D038B551F8043C0C1F88
:100D8C00002BB8BFE418054600F038FF2B4A136857
:100D9C00002B45D0A3420CD921686018834228D07F
:100DAC00636028461460BDE8384000F029BFA342B8
:100DBC000FD81A465B68002BF9D111685018844281
:100DCC001DD034D3636054602846BDE8384000F031
:100DDC0017BF11685018A04215D028D82168601888
:100DEC008342EFD118685B680144C4E90013546076
:100DFC00EAE718685B680144C4E90013D1E723688B
:100E0C0019441160E0E720680144501883421160D6
:100E1C00DAD1D3E900030144C2E90013D4E77047E7
:100E2C00284663601460BDE8384000F0E9BE0C232E
:100E3C0028462B60BDE8384000F0E2BE9407002045
:100E4C00F8B5CD1C25F0030508350C2D38BF0C2545
:100E5C00002D064623DBA94221D8264F00F0CEFEFA
:100E6C003A6822B3144603E063682246FBB11C4681
:100E7C0023685B1BF8D40B2B15D8636894420CBF0A
:100E8C003B605360304600F0BBFE04F10B00231DA9
:100E9C0020F00700C21A01D01B1AA350F8BD0C2376
:100EAC0000203360F8BD23601C442560EAE77968B4
:100EBC00D1B12946304600F023FC431C01460CD02E
:100ECC00C41C24F00304A04205D03046611A00F083
:100EDC0017FC013001D02560D4E70C233046336079
:100EEC0000F08EFE0020F8BD304600F009FC786062
:100EFC00DFE700BF940700209368013B002B936051
:100F0C0005DAD2F818C0634507DB0A2905D0136847
:100F1C00581C1060084619707047FFF76FBB00BF74
:100F2C009BB1F8B5134406460F46541E5D1E01E0F6
:100F3C00AC4208D03A46304614F8011FFFF7DCFFEC
:100F4C00431CF5D1F8BD0020F8BD0020704700BF50
:100F5C00936810B5144613B91846536010BD00F0D1
:100F6C0065FC0023C4E9013310BD00BF2DE9F04F2F
:100F7C000E4692461C4607469FB018B18369002B5B
:100F8C0000F0A880954B9E4200F0AA80944B9E42A4
:100F9C0000F0B580934B9E4208BFFE68B3891807DA
:100FAC0040F1A3803369002B00F09F8000232022A6
:100FBC000B9330239AF80010059401258A4C8DF878
:100FCC0031208DF8323000297DD0D1460B4604E01B
:100FDC0019F8013F002B00F09480252BF8D1B9EBC8
:100FEC000A0B40F0918099F80030002B6BD0002355
:100FFC004FF0FF3209F10109CDE90723069309935C
:10100C008DF85B301C9304E0001B05FA00F01843CC
:10101C000690CA460522204619F8011B00F0A6FDD1
:10102C00069B0028F0D1D90644BF20228DF85B2006
:10103C001A0748BF2B229AF8001048BF8DF85B2086
:10104C002A2972D1059A1168043200290592C0F23E
:10105C00A08009919AF801100AF1010A2E2976D084
:10106C00DFF888910322484600F080FD48B1402209
:10107C00069BA0EB090002FA00F003430AF1010AF7
:10108C0006931AF8011B062259488DF8301000F00F
:10109C006DFD002800F08380564B002B6CD005A909
:1010AC00009132463846544B06A9AFF300800390AA
:1010BC00039B013307D00B9B039A9AF8001013443F
:1010CC000B93002981D1B3895B0615D40B981FB003
:1010DC00BDE8F08FFFF75CFD404B9E427FF456AFAE
:1010EC007E68B38918073FF55DAF31463846FFF788
:1010FC00E7FA00283FF45AAF4FF0FF30E7E7BE683D
:10110C004CE7B9EB0A0BDED0D046CAF1010A03E07A
:10111C00934538D918F8011F32463846FFF7ECFED4
:10112C0001300AEB0802F3D1CDE7A1F13002092A14
:10113C0094D8099B1AF8011F03EB830302EB4303BA
:10114C00A1F13002092AF5D92E29099388D19AF8F0
:10115C0001102A292DD1059B0AF102001A680433CB
:10116C00002A0593B8BF4FF0FF339AF8021007928C
:10117C008246B8BF079373E7059B073323F0070339
:10118C000833059397E70B9A99F800305A440B9261
:10119C002BE7494243F00203099106935AE705A94C
:1011AC00009132463846144B06A900F0CBF8039058
:1011BC007EE70023A1F13002092A0AF1010A079304
:1011CC003FF64EAF1AF8011F03EB830302EB430308
:1011DC00A1F13002092AF5D9079341E75C630008B5
:1011EC003C6300081C630008AC6B0008B46B00087F
:1011FC00B86B0008000000002D0F00088C4600B5ED
:10120C0086461346034A714610685DF804EB624645
:10121C00FFF7ACBE000000202DE9F04791461E46BA
:10122C000A698B680C469A42B8BF1A46C9F8002066
:10123C0091F843300546DDF8208013B10132C9F82E
:10124C000020226891065DD5D9F800300233C9F828
:10125C000030226812F0060F11461ED1E168CB1A3D
:10126C00002BD8BF114618DD002704F1190A06E03F
:10127C00D9F80030E268A2EB030CBC450CDD01236D
:10128C00524631462846C047013007F10107EFD1DD
:10129C004FF0FF30BDE8F087216894F84330003BF5
:1012AC0018BF01238A060AD53021E21882F84310B0
:1012BC0094F845105A1C2244023382F843103146EC
:1012CC00284604F14302C0470130E1D0236803F003
:1012DC000603042B1DD0A3682269934225DD002749
:1012EC009B1A1F4404F11A09002401E0BC421CDAC9
:1012FC0001234A4631462846C047013004F1010417
:10130C00F4D1C5E712F0060F12D0003B18BF012331
:10131C00D5E7D9F80030E1682269C91AA36821EA37
:10132C00E1779342DCDC0029DCDC0020BDE8F087AF
:10133C00E168D9F80030CB1A002BD8BF114693DCEA
:10134C00ABE700BF2DE9F04317460A7E85B00C468B
:10135C00064698460C9D01F1430C002A33D0A2F1AD
:10136C005803D9B2202967D8202B65D8DFE813F0B1
:10137C00DD006400640064006400640064006400C8
:10138C00640064006400A3006E00640064006400E8
:10139C0064006E00640064006400640021007F003F
:1013AC00BF0064006400AE0064007F006400640051
:1013BC00E40023681A0640F102812B686269191D4A
:1013CC0029601B681A600023E14623613B462146D5
:1013DC003046CDF8008003AAFFF71EFF013020D065
:1013EC004A46394630462369C047013019D0236834
:1013FC00E0689B07039919D5431A002B16DD0025CD
:10140C0004F1190904E0E0680399431AAB420DDDBD
:10141C0001234A4639463046C047013005F10105E3
:10142C00F1D14FF0FF3005B0BDE8F0838842B8BF72
:10143C00084605B0BDE8F083012384F8422004F18E
:10144C0042092361002384F84330BFE7236819065F
:10145C0002D45A0600F1BF8029680A680431296059
:10146C001146002A6ADB0A25DFF87CE110E02368CC
:10147C00180640F19A802B68191D296019686F2A8B
:10148C000CBF08250A25DFF860E1002384F84330FF
:10149C006268002AA2607DDB236823F004032360CA
:1014AC00002959D1002A77D1E146082D63D0ACEB45
:1014BC00090323618AE701222B6804F142091968A8
:1014CC0004332B6084F842102261BBE72B680021A7
:1014DC001A1D2A60D3F800906268484600F046FB5B
:1014EC0000287FD0A0EB090060602061AAE7236888
:1014FC0043F0200323607822DFF8F0E084F84520E5
:10150C002A68111D2960190642D45D0640D5118840
:10151C00D80744BF43F020032360002943D123683C
:10152C00102523F020032360AFE75823DFF8B8E041
:10153C0084F845302368E3E72368DCE72D2284F840
:10154C00432062684942002AA26002DB23F00403B4
:10155C0023600A25DFF890E0E146B1FBF5F30A467B
:10156C0005FB131019461EF80030AA4209F8013D7C
:10157C00F3D2082D9BD12368D90798D562682369CB
:10158C009A4294DC302309F1FF3989F800308EE758
:10159C001168BDE70029DFD19EF8003004F1420943
:1015AC0084F8423081E710256FE713F0400F2B6869
:1015BC0003F1040129600CBF196819885FE713F067
:1015CC00400F2B68626903F1040129601B6814BF8A
:1015DC001A801A60F7E62A68B2F9001004322A6001
:1015EC000A463EE7606880E7C06B0008D46B0008D1
:1015FC0070B505460E46144608B18369CBB11A4B3B
:10160C009C421BD0194B9C4224D0194B9C4208BFC6
:10161C00EC68A368013B002BA36015DAA269934226
:10162C001ADBF0B20A2817D023685A1C22601E70ED
:10163C0070BDFFF7ADFA0C4B9C42E3D16C68A3680C
:10164C00013B002BA360E9DB2368F0B25A1C22603B
:10165C001E7070BDAC68DCE7224631462846BDE8FA
:10166C007040FEF7CBBF00BF5C6300083C63000812
:10167C001C6300081E4B70B51E6805460C460EB167
:10168C00B369CBB11B4B9C421CD01B4B9C4225D04D
:10169C001A4B9C4208BFF468A368013B002BA36063
:1016AC0016DAA26993421BDBE8B20A2818D0236829
:1016BC005A1C22601D7070BD3046FFF769FA0D4B45
:1016CC009C42E2D17468A368013B002BA360E8DB69
:1016DC002368E8B25A1C22601D7070BDB468DBE749
:1016EC00224629463046BDE87040FEF787BF00BF52
:1016FC00000000205C6300083C6300081C630008C9
:10170C00002238B5064D044608462A6002F0F4FC67
:10171C00431C00D038BD2B68002BFBD0236038BD98
:10172C009C07002010B50C46B1F90E1000F092FA8F
:10173C00002803DB636D0344636510BDA38923F4A8
:10174C008053A38110BD00BF002070472DE9F041EC
:10175C000C46B1F90C101F46CB05054616460BD4AA
:10176C0021F48051A1813B4632462846B4F90E1033
:10177C00BDE8F04100F01EB8B4F90E1002230022AF
:10178C0000F0DEF9B4F90C10EAE700BF10B50C4616
:10179C00B1F90E1000F0D4F9A389421C0EBF23F44A
:1017AC00805343F480536065A38110BDB1F90E10D2
:1017BC0000F016B838B50C46114600228446074D89
:1017CC0020462A601A46644600F064FA431C00D096
:1017DC0038BD2B68002BFBD0236038BD9C07002044
:1017EC00002238B5064D044608462A6002F0B8FCC3
:1017FC00431C00D038BD2B68002BFBD0236038BDB8
:10180C009C07002070B50026074D0446084611467B
:10181C002E6002F0A8FC431C00D070BD2B68002B7E
:10182C00FBD0236070BD00BF9C0700209368002B89
:10183C0000F0B7802DE9F04FB1F90C300C461907C8
:10184C008046174683B098B225D523691BB310F098
:10185C0002033D682DD04FF0000B5E46DFF8B8A2B6
:10186C00002E00F08B80564533465A4628BF53460F
:10187C004046216AD4F828C0E047002840F387800E
:10188C00BB6883441B1A361ABB60002BE8D10020BE
:10189C0003B0BDE8F08F21464046FEF711FF00284B
:1018AC0040F03681B4F90C303D6898B210F0020368
:1018BC00D1D110F0010976D14E46002E5AD08205B6
:1018CC00D4F808B040F1B580B3455A4600F2CD804B
:1018DC0010F4906F00F0CB8023682169A3EB010B0F
:1018EC00636903EB430A0AEBDA7A0BF101034FEA63
:1018FC006A0A33445345524684BF9A4652464305BE
:10190C0040F1EA8011464046FFF79AFA002800F0B1
:10191C00F9805A4621690190FEF760FCA289019B6F
:10192C0022F4906242F08002A28103EB0B0023614F
:10193C003246AAEB0B03B346C4F814A0A360206094
:10194C00B246002649460192FEF7BEFCA368216808
:10195C00019AA3EB0B030A44A3602260B868D1443C
:10196C00A0EB0A00B860002891D0B4F90C0080B24A
:10197C00002EA4D1D5E9009608359EE7D5E900B62E
:10198C0008356DE721464046FEF7A0FF80B3B4F959
:10199C000C304FF0FF3043F04003A38103B0BDE89F
:1019AC00F08F002070471E46AA46994618461D46E1
:1019BC0056B3002832D04A4620682169B24228BF6B
:1019CC0032468842636904D9A16803EB010B5A457E
:1019DC0074DC934265DC2A464046216AD4F828C060
:1019EC00E047B0F1000BD2DDB9EB0B09CAD00120F6
:1019FC00BB685D44A3EB0B03A6EB0B06BB60002B93
:101A0C003FF445AF002ED4D10AF1080353F8046C0F
:101A1C009A4653F8085C0833002EF7D032460A2158
:101A2C00284600F0A3F8002869D00130A0EB050986
:101A3C00C1E72068236998421BD86369B34218D860
:101A4C006FF0004CB44528BFB4469CFBF3FC4A46EF
:101A5C0003FB0CF34046216AD4F828C0E047B0F1F0
:101A6C00000A94DDA6EB0A0678E7B34632462068F6
:101A7C0066E7B345DA4628BFB24649465246FEF7FA
:101A8C0023FCA3682268A3EB0A035244A3602260E0
:101A9C00002BE7D121464046FEF718FF0028E1D085
:101AAC0075E7294693460192FEF70EFCA368019A4E
:101ABC009B1AA36023681A44226095E729465A466C
:101ACC00FEF702FC236821465B4440462360FEF788
:101ADC00FDFE002888D05AE7404600F093F80346F4
:101AEC0000287FF422AF40462169FFF743F90C220E
:101AFC00B4F90C30C8F8002023F0800349E7721CBD
:101B0C00914659E70C22B4F90C30C8F8002040E794
:101B1C004FF0FF30BCE600BF00FCFF7F002238B561
:101B2C00064D044608462A6002F022FB431C00D0F6
:101B3C0038BD2B68002BFBD0236038BD9C070020E0
:101B4C0038B50C46114600228446074D20462A60C3
:101B5C001A46644602F00EFB431C00D038BD2B68BD
:101B6C00002BFBD0236038BD9C0700205FFA81FC62
:101B7C00810710D00346511E2AB90AE09A0718466D
:101B8C000AD0013905D3184613F8012B6245F5D15B
:101B9C00704700207047114603290CD80029F8D053
:101BAC000346014401E08B42F3D0184613F8012B95
:101BBC006245F8D1ECE7024610B54CEA0C2444EA35
:101BCC0004441046036804326340A3F1013E2EEA3C
:101BDC00030313F0803F04D1043903291046F0D8D5
:101BEC0051B10346014401E08B4205D0184613F86D
:101BFC00012B6245F8D110BD002010BD704700BF0D
:101C0C00704700BFF8B51446F9B1CAB106460D4687
:101C1C0000F036F8A04202D32F463846F8BD2146D4
:101C2C003046FFF70DF907460028F6D02246294624
:101C3C00FEF7D4FA30462946FFF79CF83846F8BD33
:101C4C002746FFF797F83846F8BD1146BDE8F8402F
:101C5C00FFF7F6B838B50C46114600228446074DFE
:101C6C0020462A601A46644602F06AFA431C00D0E9
:101C7C0038BD2B68002BFBD0236038BD9C0700209F
:101C8C0051F8040C0028A0F10400BCBF0B58C0187C
:101C9C00704700BF10B514464FF0FF3392B20248A4
:101CAC0002F0C3F9204610BDF407002072B6FEE71F
:101CBC0000B591B02822002106A8FEF781FB002375
:101CCC0001930293039304930593012206924FF41C
:101CDC00803307930A9202220D920E9306A801F00C
:101CEC00D5FB80B90F2301930223029300210391AA
:101CFC004FF480630493059101A801F0F9FD20B91C
:101D0C0011B05DF804FBFFF7D1FFFFF7CFFF000028
:101D1C0038B501F06DFBFFF7CBFF00F06FF800F06A
:101D2C00BDF800F01BF902F027FA2B48FEF75EFC19
:101D3C002A4800F0E5FC08B1FFF7B8FF04F012FAEE
:101D4C00002405E001F072FB001BB0F57A7F0FD880
:101D5C00234B1B78002BF5D004F04EF84FF4FA60AF
:101D6C0001F06AFB04F0C2F81D4B00221A70E9E77F
:101D7C0001F05CFB044601F059FB1A4B1B68C01ABE
:101D8C0040F6B8339842E3D9144B1B689B6913F0A7
:101D9C00020FDDD01448FEF729FC144D2B6943F4D7
:101DAC0080032B61022001F047FB2B6923F4800395
:101DBC002B6100F073F8094800F0A2FC0023084ADC
:101DCC0013700B4A13700B4A13700B4A13800420C8
:101DDC0004F0CCF9BCE700BF7C630008A00700202E
:101DEC009E080020A40800209C63000800100240FC
:101DFC00A9080020AB080020A00800202DE9F04124
:101E0C0088B000240494059406940794204B9A6996
:101E1C0042F020029A619A6902F020020192019A22
:101E2C009A6942F004029A619A6902F004020292E1
:101E3C00029A9A6942F008029A619B6903F00803BE
:101E4C000393039BDFF84C8022461821404601F097
:101E5C003DFF114D22464FF4E241284601F036FF7A
:101E6C00182304930127059706940226079604A9C4
:101E7C00404601F019FE4FF4E24304930597069493
:101E8C00079604A9284601F00FFE08B0BDE8F081C2
:101E9C000010024000080140000C014008B50B483E
:101EAC000B4B03600B4B4360002383602422C26006
:101EBC004FF48042026143618361C361036200F0AD
:101ECC00B1FA00B908BDFFF7F1FEFBE7A00700204F
:101EDC0000580040A086010010B586B00023029384
:101EEC000393049305930268194B9A4201D006B0F0
:101EFC0010BD184CA36943F00803A361A36903F058
:101F0C0008030093009B4FF4406302931223039346
:101F1C000323059302A9104801F0C6FDE36943F4BD
:101F2C008003E361E36903F480030193019B0022C6
:101F3C001146212001F032FF212001F067FF002221
:101F4C001146222001F02AFF222001F05FFFCEE78C
:101F5C000058004000100240000C014008B50A482F
:101F6C000A4B03604FF4E133436000238360C3608A
:101F7C0003610C2242618361C36102F026F800B94F
:101F8C0008BDFFF793FEFBE7F40700200038014083
:101F9C0010B586B000230293039304930593026853
:101FAC00174B9A4201D006B010BD03F558439A69FD
:101FBC0042F480429A619A6902F480420092009A3B
:101FCC009A6942F004029A619B6903F0040301933D
:101FDC00019B4FF400730293022303930323059395
:101FEC00084C02A9204601F05FFD4FF48063029378
:101FFC0000230393049302A9204601F055FDD2E778
:10200C000038014000080140FEE7FEE7FEE7FEE76E
:10201C00FEE770477047704708B501F0FBF908BD43
:10202C0008B5024801F086F808BD00BFA0070020E3
:10203C0008B5024801F04EF908BD00BFA00700200A
:10204C0082B00E4B9A6942F001029A619A6902F0D1
:10205C0001020092009ADA6942F08052DA61DB697F
:10206C0003F080530193019B054A536823F0E0630E
:10207C0043F00073536002B0704700BF0010024081
:10208C000000014003685A6912F0800F01D0002251
:10209C001A61704790F83E30DBB2402B10D00369C8
:1020AC00B3F5804F1BD0036D002B39D1436CC3F3B8
:1020BC00C813026803F0060343F0F0031361704782
:1020CC00036D2BB9436C026803F0FE031361704778
:1020DC00436C026843F00103DBB21361704790F864
:1020EC003D30DBB2212B0FD0436C026843F001036F
:1020FC00DBB21361436B6BB19B6A5BB102685368D3
:10210C0043F4006353607047436C026803F0FE03B2
:10211C001361EFE7836B33B19B6A002BEED102E0C6
:10212C00036D012B00D07047436CC3F3C8130268D6
:10213C0003F0060343F0F1031361F4E7436C026808
:10214C00DBB21361436B3BB19B6A2BB102685368E2
:10215C0043F4006353607047836B002BFBD09B6A86
:10216C00002BF3D1F7E710B48DB090F83E30DAB213
:10217C00C16A046B90F83D30DBB2222B0AD00023ED
:10218C000B9303685A690B929B690B930B9B0DB0D5
:10219C0010BC7047036D0BB9402A17D0036D1BB9E7
:1021AC000369B3F5404F19D0438D9BB2002B25D159
:1021BC00039303685A6903929A690392039A1A6803
:1021CC0042F400721A6000230365E0E70193036890
:1021DC005A6901929B690193019BD8E700230293F2
:1021EC0003685A6902929A690292029A1A6842F436
:1021FC0080721A60036D01330365C8E7438D9BB28F
:10220C00012B25D0438D9BB2022B7BD00268136827
:10221C0043F48063136003685A6812F4006F0ED0A5
:10222C0011F5803F07D0012905D0082903D01029CA
:10223C0001D0202903D15A6842F480525A600023FD
:10224C000A9303685A690A929B690A930A9BBAE734
:10225C0011F5803F11D0082934D0202932D0122C0E
:10226C002ED0042940D002293ED010293CD002683F
:10227C00136823F4806313603BE00268136823F453
:10228C008063136003685A6812F4006F0CD01A68EC
:10229C0022F480621A600023049303685A69049242
:1022AC009B690493049B8EE7002205925A69059260
:1022BC009A690592059A1A6842F400721A6082E7CC
:1022CC000129CED00268136823F4806313600023C5
:1022DC00079303685A6907929A690792079A1A68D2
:1022EC0042F400721A606EE70268136843F480636C
:1022FC0013600023069303685A6906929B69069340
:10230C00069B60E7042915D0022913D0102911D09F
:10231C000268136843F40063136000230893036896
:10232C005A6908929A690892089A1A6822F480628B
:10233C001A600CE00268136843F480631360002396
:10234C00099303685A6909929B690993099B03686D
:10235C005A6812F4006F3FF436AF11F5803F08D085
:10236C00012906D0082904D0102902D020297FF495
:10237C002AAF5A6842F480525A6024E7438D9BB2CC
:10238C005BB1426A036812781A61436A0133436293
:10239C00438D9BB2013B9BB243857047438D9BB2EF
:1023AC005BB103681A69436A1A70436A013343626A
:1023BC00438D9BB2013B9BB24385704782B0002397
:1023CC0001930E4B1B68DB080D4AA2FB03231B0A6F
:1023DC0003EB83030193019B013B0193019B33B1FD
:1023EC0003681B6813F4007FF5D1002004E0036C34
:1023FC0043F020030364012002B070476C000020FE
:10240C0089B5F814C36AB3F52A0F04D0C36AB3F1C3
:10241C002A4F03D070470123C36270470823C3625D
:10242C00F8E70000002800F0CC8070B5044690F866
:10243C003D30002B77D0242384F83D30226813687C
:10244C0023F0010313602268136843F40043136004
:10245C002268136823F40043136001F005FB6268E3
:10246C005A4B9A4264D85A4B98428CBF0023012392
:10247C00002B40F0A8805749A1FB00318B0C25683C
:10248C006A6822F03F0242EA91426A6021680A6A55
:10249C0022F03F0266684D4DAE424FD801331343D4
:1024AC000B622168CA6922F44F4222F0FF0266686F
:1024BC00464B9E424CD8431E7600B3FBF6F30133D9
:1024CC0040F6FC70034278D0C3F30B031343CB618B
:1024DC0021680B6823F0C003E269206A02431343AE
:1024EC000B6021688B6823F4034323F0FF032269FC
:1024FC00E068024313438B602168CB6823F0FF0331
:10250C006269A06902431343CB602268136843F0ED
:10251C000103136000202064202384F83D302063E5
:10252C0084F83E0070BD80F83C30FFF7D5FC82E7A4
:10253C00294B98428CBF0023012399E74FF49675E1
:10254C0005FB03F3254DA5FB03539B090133A6E7BC
:10255C00A368BBB9451E06EB460CB5FBFCF5013573
:10256C00C5F30B05B5FA85F56D0945BBC3B9013843
:10257C0006EB4603B0FBF3F30133C3F30B0343F455
:10258C000043A3E7451E06EB860C0CEB8C0CB5FB4D
:10259C00FCF50135C5F30B05B5FA85F56D09E4E7D6
:1025AC00013806EB860303EB8303B0FBF3F3013333
:1025BC00C3F30B0343F4404388E7042386E701236A
:1025CC0084E7012070470120ACE700BFA086010022
:1025DC007F841E0083DE1B43FF083D00D34D621039
:1025EC0090F83DC00CF0280CBCF1280F38D1002914
:1025FC0038D0002A38D030B482B090F83C40012C4E
:10260C0034D0012480F83C400468256815F0010F93
:10261C0003D1256845F00105256005682C6824F474
:10262C0000642C60292480F83D40202480F83E4032
:10263C000024046441624285428D0285C362019488
:10264C0003685A6901929A690192019A80F83C4098
:10265C005A6842F4E0625A60204602B030BC7047BF
:10266C000220704701207047012070470220F4E7D8
:10267C0090F83DC00CF0280CBCF1280F38D1002983
:10268C0038D0002A38D030B482B090F83C40012CBD
:10269C0034D0012480F83C400468256815F0010F03
:1026AC0003D1256845F00105256005682C6824F4E4
:1026BC0000642C602A2480F83D40202480F83E40A1
:1026CC000024046441624285428D0285C3620194F8
:1026DC0003685A6901929A690192019A80F83C4008
:1026EC005A6842F4E0625A60204602B030BC70472F
:1026FC000220704701207047012070470220F4E748
:10270C0090F83D30DBB2202B01D0022070472823FB
:10271C0080F83D3003681A6812F0010F03D11A6873
:10272C0042F001021A600268136843F4806313607C
:10273C000268536843F4407353600020704770473D
:10274C007047704708B590F83D30DAB2438D9BB2B4
:10275C0083B1416A036809781961436A01334362A2
:10276C00438D9BB2013B9BB24385438D9BB20BB90E
:10277C00292A00D008BD0268536823F48063536093
:10278C0021230363282380F83D30FFF7DAFFF1E7BC
:10279C0008B590F83D30DAB2438D9BB283B1036833
:1027AC001969436A1970436A01334362438D9BB2C2
:1027BC00013B9BB24385438D9BB20BB92A2A00D0B7
:1027CC0008BD0268536823F48063536022230363BB
:1027DC00282380F83D3002F0BFF8F1E700B583B054
:1027EC0090F83D3003F02803282B0CD000230193E4
:1027FC0002685169019192690192019A80F83C300A
:10280C0003B05DF804FB0268536823F480635360E3
:10281C0011F0040F0BD0002311F0800F09D1828925
:10282C00002180F83C10194601F0FCFFE8E7012379
:10283C00F2E7028BF4E7000010B5044690F83D3047
:10284C00DBB2C26A082A01D0202A01D1282B06D07B
:10285C00212B1FD023686FF480625A6110BD1D4B71
:10286C00E3622268536823F4E063536023686FF4D7
:10287C0080625A612268136823F48063136000231A
:10288C002363202284F83D2084F83E30204601F05A
:10289C00C0FFE3E70F4BE36221232363202384F87B
:1028AC003D30002384F83E302268536823F4E06303
:1028BC00536023686FF480625A612268136823F4B2
:1028CC00806313602046FFF7DDFB2046FFF739FFDE
:1028DC00C4E700BF0000FFFF704708B5C26A90F85C
:1028EC003D30DBB2212B00D008BD438D9BB263B1D0
:1028FC00426A036812781A61436A01334362438D5A
:10290C009BB2013B9BB24385EEE7082A04D0202AF8
:10291C0002D012F5803F19D10268536823F4E063AA
:10292C0053600268136843F400731360002303635D
:10293C00202380F83D3090F83E30DBB2402B15D090
:10294C00002380F83E30FFF7FAFECDE702685368AB
:10295C0023F4E063536011230363002380F83E30BB
:10296C00202380F83D30FFF7EAFEBDE7002380F816
:10297C003E30FFF7B1FFB7E708B590F83D30026D78
:10298C009AB9C36C012B08D0836CC3F3072302687C
:10299C001361036D0133036508BD836C0268DBB200
:1029AC001361036D02330365F6E7DBB2026D012A96
:1029BC0023D0026D022A3ED1222B26D0428D92B218
:1029CC000AB1212B2AD0428D92B2002AE4D1212BBC
:1029DC00E2D10268536823F4E06353600268136821
:1029EC0043F40073136000230363202280F83D201E
:1029FC0080F83E30FFF770FFCEE7836C0268DBB2E5
:102A0C001361036D01330365C6E70268136843F471
:102A1C0080731360036D01330365BDE7426A03687D
:102A2C0012781A61436A01334362438D9BB2013BB6
:102A3C009BB24385B0E7FFF725FBADE710B590F8E7
:102A4C003D30DBB290F83E20D2B2C46A018D09B998
:102A5C00212B04D0212B3BD0402A37D010BD082C81
:102A6C0004D0202C02D014F5803F19D10268536891
:102A7C0023F4E06353600268136843F4007313603B
:102A8C0000230363202380F83D3090F83E30DBB206
:102A9C00402B15D0002380F83E30FFF750FEDDE7C9
:102AAC000268536823F4E06353601123036300232B
:102ABC0080F83E30202380F83D30FFF740FECDE714
:102ACC00002380F83E30FFF707FFC7E7222BC5D164
:102ADC00438D9BB22BB90268536823F48063536017
:102AEC00BCE790F83E30DBB2402B0CD0426A036856
:102AFC0012781A61436A01334362438D9BB2013BE6
:102B0C009BB24385AAE7FFF737FFA7E7704708B5E5
:102B1C00C26A438D9BB2042B14D0438D9BB2032B02
:102B2C0022D0438D9BB2022B39D003681A69436AB9
:102B3C001A70436A01334362438D9BB2013B9BB2D3
:102B4C00438510E00268536823F480635360036884
:102B5C001A69436A1A70436A01334362438D9BB20C
:102B6C00013B9BB2438508BD01684B6823F480632D
:102B7C004B60042A06D0022A04D00268136823F49E
:102B8C008063136003681A69436A1A70436A0133DD
:102B9C004362438D9BB2013B9BB24385E3E7012A21
:102BAC000BD0102A09D0042A3AD0022A38D0016856
:102BBC000B6843F400730B6004E001680B6823F4AA
:102BCC0080630B6003681969436A1970416A4B1C76
:102BDC004362438D9BB2013B9BB2438503681B69E7
:102BEC004B70436A01334362438D9BB2013B9BB2F2
:102BFC00438501684B6823F440734B60202380F8B5
:102C0C003D3090F83E30DBB2402B0FD0002380F8E3
:102C1C003E30082A11D0202A0FD0122303630EE075
:102C2C0001680B6843F480630B60CBE7002380F8EA
:102C3C003E300363FFF76AFF95E700230363FFF75A
:102C4C007FFD90E738B590F83D30DBB2222B00D0F9
:102C5C0038BD0446C56A438D9BB2032B15D9036856
:102C6C001A69436A1A70436A01334362438D9BB2FB
:102C7C00013B9BB24385438D9BB2032BE8D1026889
:102C8C00536823F480635360E2E7C26A022A01D0DE
:102C9C00012B05D92268536823F480635360D7E76E
:102CAC00FFF78CFB002835D12268136823F480636E
:102CBC0013602268536823F4E063536023681A6935
:102CCC00636A1A70636A01336362638D9BB2013B62
:102CDC009BB26385202384F83D3094F83E30DBB200
:102CEC00402B09D0002384F83E30082D0CD0202D29
:102CFC000AD01223236309E0002384F83E302363B7
:102D0C002046FFF703FFA3E7002323632046FFF7CA
:102D1C0017FD9DE72268536823F4E0635360236832
:102D2C001A69636A1A70636A01336362638D9BB2BA
:102D3C00013B9BB26385202384F83D30002384F84B
:102D4C003E30204601F069FD82E7704700B583B044
:102D5C0000230193406A90F83D20D2B2324B1B689D
:102D6C00DB083249A1FB03131B0A03EB8303C3EB00
:102D7C00C3030193019B43B1019B013B0193036886
:102D8C001B6813F4007FF5D103E0036C43F02003C0
:102D9C000364436B0BB100219962836B0BB100216F
:102DAC00996201680B6823F480630B6000234385F0
:102DBC00436B0BB100215963836B0BB10021596339
:102DCC0001680B6823F001030B6090F83D30DBB217
:102DDC00602B0ED002F02802282A14D0202380F871
:102DEC003D30002380F83E3001F017FD03B05DF854
:102DFC0004FB202380F83D30002380F83E30036430
:102E0C00FFF7A3FFF2E70268136843F001031360B6
:102E1C000268136843F48063136000230363282360
:102E2C0080F83D30E0E700BF6C00002089B5F81455
:102E3C0010B5044690F83D30DBB290F83E20D2B28B
:102E4C00102A36D0402A34D003F02802282A38D051
:102E5C002268526812F4006F07D1602B05D0202332
:102E6C0084F83D30002384F83E300023236323682C
:102E7C005A6812F4006F48D05A6822F400625A6003
:102E8C00626B92F82130DBB2012B20D0444B5363A0
:102E9C00606B00F021FF002849D02268136823F0F2
:102EAC0001031360202384F83D30606B436B98471B
:102EBC003DE0222BC8D121680A6822F400620A6026
:102ECC00C2E700232363282384F83D30CFE7A36BAC
:102EDC00334A5A63A06B00F0FFFE40B323685A6973
:102EEC0012F0400F05D01A69636A1A70636A0133D5
:102EFC0063622268136823F001031360202384F8B3
:102F0C003D30A06B436B984711E094F83D20D2B252
:102F1C00602A1FD05A6912F0400F05D01A69636AF3
:102F2C001A70636A01336362204601F076FC236CED
:102F3C0013F00F0F04D02268536823F4E06353603E
:102F4C0094F83D30DBB2226C12F0040F01D0282B28
:102F5C0018D010BD202284F83D20002222645A692A
:102F6C0012F0400F05D01A69636A1A70636A013354
:102F7C0063622268136823F0010313602046FFF795
:102F8C00E4FED4E7074BE36200232363202284F89A
:102F9C003D2084F83E30204601F03BFCD9E700BFD1
:102FAC00592D00080000FFFF30B583B0044690F89F
:102FBC003D50EDB20268536823F4E0635360002384
:102FCC00019303685A6901921A6842F001021A606F
:102FDC00019B0268136823F48063136003685A68CA
:102FEC0012F4006F38D0222D21D02A2D1FD0426B25
:102FFC001268526892B24285428D92B21AB1026C3A
:10300C0042F0040202645A6822F400625A60606B57
:10301C0000F0AEFE01281FD0636B444A5A63606B0C
:10302C0000F05AFEC0B1606B436B984714E0A26B82
:10303C001268526892B26285628D92B21AB1226C99
:10304C0042F0040222645A6822F400625A60A06BB7
:10305C0000F08EFE012842D1638D9BB233B32368FE
:10306C005A6912F0040F0AD01A69636A1A70636AFB
:10307C0001336362638D9BB2013B9BB26385236812
:10308C005A6912F0400F0AD01A69636A1A70636A9F
:10309C0001336362638D9BB2013B9BB26385638D8D
:1030AC009BB21BB1236C43F004032364236C13BB4E
:1030BC002A2D25D094F83D30DBB2282B29D0236B58
:1030CC00222B01D0222D19D100232363202284F836
:1030DC003D2084F83E30204601F03EFC0EE0A36B10
:1030EC00124A5A63A06B00F0F7FD0028B4D0A06B15
:1030FC00436B9847B0E72046FFF79AFE03B030BD0C
:10310C0000232363282384F83D30204601F024FC5F
:10311C00D0E7074BE36200232363202284F83D2091
:10312C0084F83E30204601F074FBE7E7592D000887
:10313C000000FFFFF8B5044602685568C66A90F8AF
:10314C003E30DBB290F83D10C8B2102B13D0402BA0
:10315C0011D0236C002B7AD05369002113F0020F8D
:10316C0078D015F4007F75D0236C03B1916920469B
:10317C00FFF734FBF8BDD2F818C0516911F0010704
:10318C0005D1B6F52A0FF5D0B6F12A4FF2D017B10A
:10319C0015F4007F29D111F0080F02D015F4007F2F
:1031AC002AD111F0020F02D015F4007F28D11CF0A7
:1031BC00040F31D0526812F4006FDBD111F0800F84
:1031CC0005D015F4806F02D011F0040F1CD011F053
:1031DC00040FCFD015F4007FCCD0212818D0402B71
:1031EC00C8D12046FFF7C8FBC4E72046FFF70AF911
:1031FC002046FEF74FFFBDE72046FEF79FFFB9E7DD
:10320C002046FEF7B0FFB5E72046FFF717FCB1E705
:10321C002046FFF762FBADE7536813F4006FA9D1AA
:10322C0011F0400F05D015F4806F02D011F0040F8F
:10323C0009D011F0040F9DD015F4007F9AD02046D0
:10324C00FFF765FC96E72046FFF7FCFC92E79169D7
:10325C00536983E713F0100F02D015F4007F18D1D7
:10326C0021281AD0292818D013F0400F05D015F4B6
:10327C00806F02D013F0040F28D013F0040F3FF42A
:10328C0079AF15F4007F3FF475AF2046FFF786F851
:10329C0070E72046FFF788FE6CE713F0800F05D02F
:1032AC0015F4806F02D013F0040F0BD013F0040F41
:1032BC003FF460AF15F4007F3FF45CAF2046FFF79E
:1032CC005DF857E72046FFF73DFA53E72046FFF736
:1032DC005FFA4FE7F8B5044603685D695F6890F8DC
:1032EC003E20D2B215F4807F0CD017F4807F41D0F1
:1032FC006FF48071596101680B6843F400430B60F3
:10330C00012600E0002615F4007F08D017F4807F1A
:10331C0005D046F0020623686FF40071596115F46C
:10332C00806F19D017F4807F16D0638D99B294F802
:10333C003D30DBB2206B202A1ED023686FF48061F5
:10334C00596146F00406102A01D0402A04D12268A3
:10335C00136843F40073136015F4006F08D017F46E
:10336C00807F05D046F0080623686FF400625A612E
:10337C0086B9F8BD0026C6E70029DED1212B05D081
:10338C00292B03D0282BD8D12128D6D12046FFF7C2
:10339C0053FAE1E7236C1E4326642046FFF748FDF1
:1033AC00E7E7000010B504460E4B18784FF47A731B
:1033BC00B3FBF0F30C4A1068B0FBF3F000F034FDF3
:1033CC0068B90F2C01D901200AE0002221464FF0E8
:1033DC00FF3000F0E3FC054B1C60002000E00120F6
:1033EC0010BD00BF640000206C00002068000020AD
:1033FC0008B5074A136843F010031360032000F06C
:10340C00BBFC0F20FFF7CEFFFEF71AFE002008BD15
:10341C0000200240034A1168034B1B780B441360D5
:10342C00704700BF3C08002064000020014B186866
:10343C00704700BF3C08002038B50446FFF7F6FF84
:10344C000546B4F1FF3F02D0044B1B781C44FFF738
:10345C00EDFF401BA042FAD338BD00BF6400002032
:10346C0082B0084B1B68084AA2FB03235B0A00FBD3
:10347C0003F3019300BF019B5A1E0192002BF9D15B
:10348C0002B070476C000020D34D6210002800F091
:10349C00F18170B582B00446036813F0010F2CD093
:1034AC00994B5B6803F00C03042B1DD0964B5B68A7
:1034BC0003F00C03082B12D06368B3F5803F41D0A6
:1034CC00002B55D103F1804303F504331A6822F421
:1034DC0080321A601A6822F480221A6037E08A4B14
:1034EC005B6813F4803FE7D0874B1B6813F4003FF5
:1034FC0003D06368002B00F0BF81236813F0020F28
:10350C0075D0814B5B6813F00C0F5FD07E4B5B6802
:10351C0003F00C03082B54D02369002B00F08A8095
:10352C007A4B01221A60FFF781FF0546764B1B6828
:10353C0013F0020F75D1FFF779FF401B0228F5D964
:10354C0003209EE1704A136843F480331360636870
:10355C0043B3FFF76BFF05466B4B1B6813F4003F3F
:10356C00CBD1FFF763FF401B6428F5D9032088E11A
:10357C00B3F5A02F09D0644B1A6822F480321A607C
:10358C001A6822F480221A60E1E703F18043A3F564
:10359C003C331A6842F480221A601A6842F4803272
:1035AC001A60D4E7FFF742FF0546574B1B6813F42C
:1035BC00003FA2D0FFF73AFF401B6428F5D9032047
:1035CC005FE1514B5B6813F4803FA5D14E4B1B68F8
:1035DC0013F0020F03D02369012B40F04F814A4AAC
:1035EC00136823F0F803616943EAC103136023688D
:1035FC0013F0080F33D0A369002B5CD0434B01228E
:10360C00C3F88024FFF712FF05463F4B5B6A13F0AB
:10361C00020F21D1FFF70AFF401B0228F5D9032026
:10362C002FE1394A136823F0F803616943EAC103B7
:10363C001360DCE7354B00221A60FFF7F7FE0546F6
:10364C00314B1B6813F0020FD1D0FFF7EFFE401B7C
:10365C000228F5D9032014E10120FFF701FF2368AC
:10366C0013F0040F00F09680274BDB6913F0805F9A
:10367C0034D1254BDA6942F08052DA61DB6903F010
:10368C0080530193019B0125214B1B6813F4807F10
:10369C0026D0E368012B3DD0002B53D103F180439E
:1036AC0003F504331A6A22F001021A621A6A22F034
:1036BC0004021A6233E0154B0022C3F88024FFF792
:1036CC00B5FE0546104B5B6A13F0020FC7D0FFF72F
:1036DC00ADFE401B0228F5D90320D2E00025D3E72C
:1036EC000B4A136843F480731360FFF79FFE064682
:1036FC00074B1B6813F4807FCBD1FFF797FE801B21
:10370C006428F5D90320BCE00010024000004242BE
:10371C00007000405F4A136A43F001031362E368D0
:10372C0033B3FFF783FE06465A4B1B6A13F0020FA6
:10373C002FD1FFF77BFE801B41F288339842F3D9DF
:10374C0003209EE0052B09D0524B1A6A22F001028D
:10375C001A621A6A22F004021A62E0E74D4B1A6AE6
:10376C0042F004021A621A6A42F001021A62D6E7A7
:10377C00FFF75CFE0646474B1B6A13F0020F08D09E
:10378C00FFF754FE801B41F288339842F3D9032093
:10379C0077E0E5B9E369002B72D03E4A526802F03B
:1037AC000C02082A56D0022B17D03B4B00221A666B
:1037BC00FFF73CFE0446374B1B6813F0007F47D0E5
:1037CC00FFF734FE001B0228F5D9032059E0314ADB
:1037DC00D36923F08053D361DCE72F4B00221A66A8
:1037EC00FFF724FE05462B4B1B6813F0007F06D019
:1037FC00FFF71CFE401B0228F5D9032041E0236A89
:10380C00B3F5803F1AD023494B6823F47413226A12
:10381C00606A024313434B601F4B01221A66FFF789
:10382C0005FE04461B4B1B6813F0007F0ED1FFF7FF
:10383C00FDFD001B0228F5D9032022E0154A536830
:10384C0023F40033A1680B435360DCE7002018E03D
:10385C00002016E0012B16D00E4B5B6803F4803170
:10386C00226A914211D103F47013626A93420ED111
:10387C00002006E001207047012002E0012000E05A
:10388C00002002B070BD0120FBE70120F9E7012008
:10389C00F7E700BF00100240000042420F4B5B688C
:1038AC0003F00C02082A01D00D487047C3F3834281
:1038BC000C49885C13F4803F0BD0084B5B68C3F356
:1038CC004043094AD35C064A02FB00F0B0FBF3F01C
:1038DC007047064B03FB00F0704700BF001002401E
:1038EC0000127A00C8630008D863000800093D0084
:1038FC00002800F0A08070B50D460446524B1B68A2
:10390C0003F007038B420BD24F4A136823F00703D3
:10391C000B431360136803F007038B4240F08D8058
:10392C00236813F0020F17D013F0040F04D0474A8A
:10393C00536843F4E0635360236813F0080F04D01A
:10394C00424A536843F460535360404A536823F02F
:10395C00F003A1680B435360236813F0010F31D0BF
:10396C006368012B20D0022B25D0384A126812F044
:10397C00020F64D035494A6822F0030213434B60AE
:10398C00FFF754FD0646314B5B6803F00C0362688D
:10399C00B3EB820F16D0FFF749FD801B41F2883341
:1039AC009842F0D9032045E0284A126812F4003FEF
:1039BC00E0D101203EE0254A126812F0007FD9D1F7
:1039CC00012037E0204B1B6803F00703AB420AD9F8
:1039DC001D4A136823F007032B431360136803F08D
:1039EC000703AB422DD1236813F0040F06D0174AFE
:1039FC00536823F4E063E1680B435360236813F0CE
:103A0C00080F07D0114A536823F46053216943EA25
:103A1C00C1035360FFF742FF0C4B5B68C3F3031306
:103A2C000B4AD35CD8400B4B18600B4B1868FFF754
:103A3C00B9FC002070BD012070470120FAE701207D
:103A4C00F8E70120F6E700BF00200240001002401A
:103A5C00DC6300086C00002068000020014B186833
:103A6C00704700BF6C00002008B5FFF7F7FF044B50
:103A7C005B68C3F30223034AD35CD84008BD00BF84
:103A8C0000100240EC63000808B5FFF7E7FF044B99
:103A9C005B68C3F3C223034AD35CD84008BD00BFA4
:103AAC0000100240EC63000870B582B00024A446FC
:103ABC00A6E0804DAA4210D007D97F4DAA420CD067
:103ACC0005F58035AA4208D013E0A5F58015AA4269
:103ADC0003D005F57025AA4207D18A68002A58D070
:103AEC00012A51D04361082403E0A5F58015AA42B0
:103AFC00F3D0BEF1FF0F4ED80646BEF1FF0F4CD8E7
:103B0C004FEA8C0233680F25954023EA050304FA2B
:103B1C0002F2134333604B6813F0805F6ED0674B37
:103B2C009A6942F001029A619B6903F001030193C7
:103B3C00019B4FEA9C02951C614B53F825600CF0DD
:103B4C0003039D000F23AB4026EA03065D4B98420E
:103B5C0029D003F58063984200F08E8003F58063D2
:103B6C00984200F08B8003F58063984219D00423AF
:103B7C001AE0CC68BDE7CC680434BAE7CC680834EA
:103B8C00B7E7CC680C34B4E703610824B1E7002430
:103B9C00AFE70424ADE7061DAFE7ACF108029200D5
:103BAC00B0E7032300E00023AB4033430232444D23
:103BBC0045F822304B6813F4801F61D0424A936859
:103BCC0043EA0E0393604B6813F4001F5ED03E4A29
:103BDC00D36843EA0E03D3604B6813F4003F5BD009
:103BEC00394A536843EA0E0353604B6813F4803F21
:103BFC0058D0354A136843EA0E0313600CF1010CDC
:103C0C000A6832FA0CF353D0012303FA0CF302EADC
:103C1C00030E33EA0202F1D14A68122A3FF649AF89
:103C2C00122A3FF666AF01A555F822F0E73A0008D4
:103C3C007F3B0008893B00089B3B0008FF3A0008CB
:103C4C00FF3A0008FF3A0008FF3A0008FF3A000864
:103C5C00FF3A0008FF3A0008FF3A0008FF3A000854
:103C6C00FF3A0008FF3A0008FF3A0008FF3A000844
:103C7C00833B00088F3B0008012395E7022393E761
:103C8C00114A936823EA0E0393609CE70E4AD368AB
:103C9C0023EA0E03D3609FE70B4A536823EA0E0313
:103CAC005360A2E7084A136823EA0E031360A5E7E2
:103CBC0002B070BD00002210000031100010024054
:103CCC000000014000080140000401400AB10161FC
:103CDC00704709040161704708B590F82130DBB2D8
:103CEC00022B03D004238363012008BD02681368F0
:103CFC0023F00E0313600268136823F001031360B2
:103D0C000368194A934214D0143293421FD01432D0
:103D1C0093421ED0143293421ED0143293421ED0C2
:103D2C001432934202D04FF0807203E04FF48012B1
:103D3C0000E001220D4B5A60012380F82130002352
:103D4C0080F82030436B6BB198470020CDE71022F0
:103D5C00F0E74FF48072EDE74FF48052EAE74FF44E
:103D6C008032E7E70020C0E7080002400000024074
:103D7C0090F8210070470000074AD36823F4E063F1
:103D8C001B041B0C000200F4E060034343F0BF6310
:103D9C0043F40033D360704700ED00E000B5194BDD
:103DAC00DB68C3F30223C3F1070CBCF1040F28BF7B
:103DBC004FF0040C03F1040EBEF1060F18D9033BAF
:103DCC004FF0FF3E0EFA0CFC21EA0C0199400EFA62
:103DDC0003F322EA0303194300280BDB0901C9B2E0
:103DEC0000F1604000F5614080F800135DF804FBC1
:103DFC000023E5E700F00F000901C9B2024B19548A
:103E0C00F4E700BF00ED00E014ED00E0002807DB54
:103E1C0000F01F02400901239340024A42F820306F
:103E2C00704700BF00E100E00138B0F1807F0BD299
:103E3C004FF0E0235861054AF02182F8231000204E
:103E4C00986107221A6170470120704700ED00E06D
:103E5C00026802F10C0353E8003F23F490730C3218
:103E6C0042E800310029F3D1026802F1140353E84F
:103E7C00003F23F00103143242E800310029F3D152
:103E8C00036B012B05D0202380F842300023036301
:103E9C007047026802F10C0353E8003F23F0100353
:103EAC000C3242E800310029F3D1ECE710B504469E
:103EBC000268136923F44053C1680B431361836890
:103ECC000269134342691A430168CB6823F4B05367
:103EDC0023F00C031343CB600268536923F4407343
:103EEC0081690B4353610268134B9A4220D0FFF750
:103EFC00BBFD024602EB820202EB820263689B006E
:103F0C00B2FBF3F20D48A0FB02314909642303FB19
:103F1C0011231B013233A0FB03235B0903F0F002D6
:103F2C0002EB011203F00F03216813448B6010BDE8
:103F3C00FFF7AAFD0246DDE7003801401F85EB5173
:103F4C002DE9F04383B005460E4617469946DDF839
:103F5C0028802C68246836EA04030CBF4FF0010C4F
:103F6C004FF0000CBC4528D1B8F1FF3FF1D0FFF762
:103F7C005DFAA0EB0900404523D8B8F1000F22D020
:103F8C002B68DA6812F0040FE3D0802EE1D0402EBB
:103F9C00DFD01A6812F0080FDBD0002401941A68E5
:103FAC0001925B680193019B2846FFF751FF0823A0
:103FBC006B6485F84040012000E0002003B0BDE8B0
:103FCC00F0830320FAE70320F8E760B310B504464A
:103FDC0090F8413013B3242384F841302268D3681D
:103FEC0023F40053D3602046FFF760FF2268136967
:103FFC0023F4904313612268536923F02A0353611D
:10400C002268D36843F40053D360002060642023FB
:10401C0084F8413084F84230606310BD80F8403041
:10402C00FDF7B6FFD7E7012070472DE9F04182B0CC
:10403C001E4690F84130DBB2202B56D104460D467B
:10404C009046002955D00AB901204FE00023436463
:10405C00212380F84130FFF7E9F90746A4F82480C2
:10406C00A4F82680A368B3F5805F02D04FF0000857
:10407C0014E023692BB34FF000080FE0202384F8E1
:10408C004130032032E038F8023B2268C3F30803C6
:10409C005360E28C92B2013A92B2E284E38C9BB20E
:1040AC0093B100963B46002280212046FFF748FF43
:1040BC000028E3D1002DE6D015F8012B23685A60B7
:1040CC00E7E7A8460025E9E700963B460022402199
:1040DC002046FFF735FF18B9202384F8413005E05E
:1040EC00202384F84130032000E0022002B0BDE818
:1040FC00F0810120FAE7704710B503460C4A0D49D0
:10410C000D48006840B10C4800680344521A9342B1
:10411C0006D8094A136010BD0748084C0460F2E742
:10412C00FCF732F80C2303604FF0FF30F3E700BFCD
:10413C0000500020000400004008002058430020DC
:10414C0070B50C461646002506E0AFF300802146FC
:10415C0001F8010B01350C46B542F6DB304670BD5B
:10416C004FF0FF3070474FF400534B600020704706
:10417C00012070470020704708B50D480D4B0360B7
:10418C004FF48273436000238360C3600361436117
:10419C004FF400728261C3610362436283620A233B
:1041AC00C36200F0CFF800B908BDFDF77FFDFBE757
:1041BC00440800200030014010B586B00023029363
:1041CC000393049305930268164B9A4201D006B0F0
:1041DC0010BD03F560439A6942F480529A619A6962
:1041EC0002F480520092009A9A6942F004029A6199
:1041FC009B6903F004030193019BA0230293022308
:10420C00039303230593084C02A92046FFF74CFCAB
:10421C004023029300230393049302A92046FFF743
:10422C0043FCD4E700300140000801402DE9F04781
:10423C0082B00546884617461E46FFF7F7F80A9BDC
:10424C001B1A03EB0609FFF7F1F882462B4B1B6890
:10425C00C3F3CB3309FB03F301932B689C6838EA57
:10426C0004030CBF4FF0010C4FF0000CBC4540D0C8
:10427C00B6F1FF3FF1D0FFF7D9F8A0EB0A004845A3
:10428C000AD2B9F1000F07D0019A02B14A46019B3C
:10429C00013B01939146E0E72A68536823F0E00361
:1042AC0053606B68B3F5827F0BD0AB6AB3F5005FDC
:1042BC0014D0012385F85130002385F850300320A9
:1042CC0018E0AB68B3F5004F02D0B3F5806FECD1BA
:1042DC002A68136823F040031360E6E72A68136822
:1042EC0023F4005313602A68136843F400531360DB
:1042FC00DFE7002002B0BDE8F08700BF6C000020B3
:10430C0070B582B006460C46154600920B4601224B
:10431C000221FFF78BFF48B900952346002280212C
:10432C003046FFF783FF38B902B070BD736D43F0B0
:10433C00200373650320F7E7736D43F02003736567
:10434C000320F1E7002856D010B50446436A33B970
:10435C004368B3F5827F05D00023C36102E00023DC
:10436C00036143610023A36294F85130002B3CD0CD
:10437C00022384F851302268136823F04003136041
:10438C00636803F48273A26802F404421343E26884
:10439C0002F400621343226902F0020213436269C1
:1043AC0002F001021343A26902F400721343E269A2
:1043BC0002F038021343226A02F080021343A26A0D
:1043CC0002F40052216813430B60638B226803F0E4
:1043DC00040353602268D36923F40063D361002083
:1043EC006065012384F8513010BD84F850302046AC
:1043FC00FFF7E2FEBCE7012070472DE9F04383B0E4
:10440C000446894690461D46FFF710F894F8516013
:10441C00F6B2012E40F0CC800746B9F1000F00F047
:10442C00C880B8F1000F00F0C48094F85030012B14
:10443C0000F0C380012384F85030032384F85130FA
:10444C0000236365C4F83090A4F83480A4F8368057
:10445C00A363A387E38763642364A368B3F5004F66
:10446C001ED023681A6812F0400F03D11A6842F06C
:10447C0040021A60E368B3F5006F1CD0636813B197
:10448C00B8F1010F5FD1226B236812781A73236B7A
:10449C0001332363E38E9BB2013B9BB2E38652E074
:1044AC002268136823F0400313602268136843F4F6
:1044BC0080431360D5E7636813B1B8F1010F15D1D0
:1044CC00226B23681288DA60236B02332363E38E3A
:1044DC009BB2013B9BB2E38608E0FEF7A7FFC01B33
:1044EC00A84202D3B5F1FF3F15D1A5B1E38E9BB223
:1044FC00002B42D023689A6812F0020FEDD0226B89
:10450C001288DA60236B02332363E38E9BB2013B88
:10451C009BB2E386EAE7012384F85130002384F848
:10452C005030032645E0226B12781A73236B01334B
:10453C002363B4F836C01FFA8CFC0CF1FF3C1FFA55
:10454C008CFCA4F836C0E38E9BB2B3B123689A6896
:10455C0012F0020FE7D1FEF769FFC01BA84202D38D
:10456C00B5F1FF3F01D1002DEDD1012384F851307D
:10457C00002384F8503003261BE03A462946204697
:10458C00FFF7BEFE08B120236365A36833B901931E
:10459C002368DA6801929B680193019B012384F8DC
:1045AC005130002384F85030636D13B9002600E0BD
:1045BC000226304603B0BDE8F0830226F9E72DE968
:1045CC00F04383B00446884691461F460A9DFEF789
:1045DC002DFF064694F85130DBB26268012B0AD0ED
:1045EC00B2F5827F40F00581A268002A40F0058177
:1045FC00042B40F00481B8F1000F00F00281B9F1F6
:10460C00000F00F00081002F00F0FF8094F8503074
:10461C00012B00F0FC80012384F8503094F85130C9
:10462C00DBB2042B02D0052384F8513000236365E0
:10463C00C4F83890E787A787C4F83080E786A78648
:10464C002364636423681A6812F0400F03D11A685C
:10465C0042F040021A60E368B3F5006F11D0636852
:10466C000BB1012F0BD1226B236812781A73236BB9
:10467C0001332363E38E9BB2013B9BB2E38601279C
:10468C0071E063680BB1012F0BD1226B2368128888
:10469C00DA60236B02332363E38E9BB2013B9BB244
:1046AC00E38601271BE023689A6812F0010F0ED0F5
:1046BC00E28F92B25AB1DA68A36B1A80A36B023301
:1046CC00A363E38F9BB2013B9BB2E3870127FEF709
:1046DC00ADFE801BA84202D3B5F1FF3F1ED1E38E85
:1046EC009BB21BB9E38F9BB2002B62D023689A68F4
:1046FC0012F0020FD7D0E28E92B2002AD3D0002F44
:10470C00D1D0226B1288DA60236B02332363E38EE1
:10471C009BB2013B9BB2E3860027C4E7012384F8DC
:10472C005130002384F85030032063E023689A68EA
:10473C0012F0010F0ED0E28F92B25AB1DA68A36B6D
:10474C001A70A36B0133A363E38F9BB2013B9BB243
:10475C00E3870127FEF76AFE831BAB4202D3B5F158
:10476C00FF3F1ED1EDB1E38E9BB213B9E38F9BB229
:10477C00FBB123689A6812F0020FD7D0E28E92B286
:10478C00002AD3D0002FD1D0226B12781A73236B4E
:10479C0001332363E38E9BB2013B9BB2E38600277C
:1047AC00C4E7012384F85130002384F850300320EF
:1047BC0020E0324629462046FFF7A2FD90B9A368B7
:1047CC0033B901932368DA6801929B680193019BCA
:1047DC00012384F85130002384F85030636D4BB1C1
:1047EC00012007E020236365002384F8503001206A
:1047FC0000E0022003B0BDE8F0830220FAE70220BB
:10480C00F8E70120F6E70120F4E70120F2E70220A7
:10481C00F0E708B5FDF774FF08BD08B5FDF770FFAC
:10482C0008BD000030B5B9B005460C46FEF7FEFDDC
:10483C003F4B1860012C21D034BB3E4B1B78002B16
:10484C0036D03D4B1B889BB2072B1FD83A4C218886
:10485C0089B2C1EBC1010823E022384800EB4111B9
:10486C002846FDF7BDFE218889B23548FBF710FEBE
:10487C0023889BB201339BB2238005E008230222DC
:10488C0030492846FDF7F4FE39B030BDFF238DF8D2
:10489C0000300823012269462846FDF7A1FE0023BB
:1048AC00244A1370244A1380042001F05FFCFEE7B5
:1048BC00254B1B7833B1204B1B889BB2234A1268C3
:1048CC00934211D3FF238DF800300823012269464F
:1048DC002846FDF785FE00231B4A1370164A1380E9
:1048EC00042001F043FCFEE700210091DC2201A82A
:1048FC00FBF766FD104C218889B2C1EBC101144B4A
:10490C001B68E02203EB4111684600F0D0F9082344
:10491C00E02269462846FDF763FE218889B20D48DE
:10492C00FBF7B6FD23889BB201339BB22380ABE728
:10493C00A4080020A9080020A00800207000002076
:10494C00F46300089C080020AB0800204C430020B6
:10495C00504300201064000808B5FEF767FD384B83
:10496C001860384B1B78102B18D0202B24D0902B90
:10497C002CD0302B36D0402B3DD0502B44D0602B3C
:10498C004BD0702B52D0802B15D12E4B5A782E4BEE
:10499C001A7019782D48FBF77BFD0CE02C48FBF7BF
:1049AC0025FE2C4B01221A7000232B4A13702B4A24
:1049BC0013702B4A138008BD2A48FBF717FE264BB1
:1049CC0001221A70264B00221A80F4E72648FBF7C6
:1049DC000DFE0123214A13701F4A1370204B002235
:1049EC001A80E8E7174B5A78204B1A701978204830
:1049FC00FBF74EFDDFE7134B5A781E4B1A701978F4
:104A0C001D48FBF745FDD6E70E4B5A781B4B1A7029
:104A1C0019781B48FBF73CFDCDE70A4B5A78194B2C
:104A2C001A7019781848FBF733FDC4E7054B5A7810
:104A3C00164B1A7019781648FBF72AFDBBE700BF16
:104A4C00A40800209C080020A2080020EC640008A8
:104A5C002C6400089E080020AB080020A908002048
:104A6C00A00800204864000860640008A808002022
:104A7C007C640008AC080020946400089F080020A7
:104A8C00AC640008A3080020C0640008AA08002039
:104A9C00D464000808B5002208210248FFF716F973
:104AAC0008BD00BF0008014008B5012208210248DA
:104ABC00FFF70CF908BD00BF0008014000B587B036
:104ACC000023029303930493059303F1804303F5AE
:104ADC0004339A6942F004029A619B6903F004035F
:104AEC000193019B08230293012303930323059352
:104AFC0002A90448FEF7D8FFFFF7D6FF07B05DF810
:104B0C0004FB00BF0008014000B587B08DF80F0012
:104B1C0000238DF817304FF0FF33009301230DF174
:104B2C0017020DF10F010448FFF749FD9DF817001E
:104B3C0007B05DF804FB00BF4408002008B5FFF780
:104B4C00A9FF0620FFF7E0FFFFF7AEFF08BD08B591
:104B5C00FFF7A0FF0520FFF7D7FFA520FFF7D4FF35
:104B6C0010F0010FF9D1FFF79FFF08BD10B50446F7
:104B7C00FFF7E4FFFFF78EFF2020FFF7C5FFC4F31C
:104B8C000740FFF7C1FFC4F30720FFF7BDFFE0B2FA
:104B9C00FFF7BAFFFFF788FFFFF7D9FF10BD70B51D
:104BAC0006460C461546FFF7C9FFFFF773FF0220B8
:104BBC00FFF7AAFFC4F30740FFF7A6FFC4F30720D3
:104BCC00FFF7A2FFE0B2FFF79FFF002404E0305D87
:104BDC00FFF79AFF0134A4B2AC42F8D3FFF764FF9D
:104BEC00FFF7B5FF70BD2DE9F84305460C46174697
:104BFC00CBB2110AD3B971B92146FFF7D0FF13E03C
:104C0C004FF4807221462846FFF7C9FF04F58074E3
:104C1C0005F5807531464B1EDEB20029F0D1FAB293
:104C2C0021462846FFF7BBFFBDE8F883C3F1000817
:104C3C005FFA88F8D6B299B9B0450DD23344DEB2DA
:104C4C0042462146FFF7ABFF324608EB040105EB69
:104C5C000800FFF7A4FFE7E72146FFF7A0FFE3E713
:104C6C00A2EB08071FFA87F9C7F30726FFB24246E3
:104C7C002146FFF794FF444445440AE04FF4807208
:104C8C0021462846FFF78BFF04F5807405F58075E7
:104C9C004646731E5FFA83F8002EEFD1002FC3D067
:104CAC005FFA89F221462846FFF779FFBCE770B519
:104CBC0006460C461546FFF7EDFE0320FFF724FFD2
:104CCC00C4F30740FFF720FFC4F30720FFF71CFFD6
:104CDC00E0B2FFF719FF002405E0A520FFF714FF51
:104CEC0030550134A4B2AC42F7D3FFF7DDFE70BDF2
:104CFC0070B5FFF7CFFE9F20FFF706FFA520FFF74B
:104D0C0003FF0646A520FFF7FFFE0446A520FFF78C
:104D1C00FBFE0546FFF7C8FE240244EA064445EABA
:104D2C00040070BD2DE9F04180460D461746202247
:104D3C0000212846FBF744FB00261FE0FF3BDAB2BC
:104D4C0002EB2323FE2BF9DC184AD35C6A5C53403C
:104D5C006B5401311F291DDCC1F12003144AD35CB3
:104D6C002344EFE70121F5E7FF3CE3B203EB2424F6
:104D7C00FE2CF9DC0D4B1B5DEB770136C7F1DF0325
:104D8C00B34211DD18F806302A785340094AD45C36
:104D9C00FF2CE7D11F22691C2846FBF795FAFF2C44
:104DAC00E6D10023EB77E8E7BDE8F081F864000872
:104DBC00F86500081C660008400090FBF1F010F04C
:104DCC00010F03D0002805DD0123184400EBD0703F
:104DDC00401070474FF0FF33F7E7000010B511F8A3
:104DEC00013B00F8013B072A00D907220E4B33F890
:104DFC0012E04FF0000C04E0012300F8013B0CF131
:104E0C00010CBCF13F0F0EDC11F8012B02FB0EF272
:104E1C003232064BA3FB02435B09632AECD9FF2B0E
:104E2C00EBD9FF23E9E710BD1C6700081F85EB5188
:104E3C0038B5B0F80C35B3F5F97F0ED2054603F54D
:104E4C003474044402342046FFF7C8FFB5F80C351F
:104E5C004133A5F80C35204638BD0024FBE7000093
:104E6C0000B584464FF0FF3E0DE05208013BDBB22B
:104E7C0033B112F0010FF8D0094880EA5202F5E77D
:104E8C0082EA1E2E013931B11CF8012B82EA0E0286
:104E9C00D2B20823ECE76FEA0E005DF804FB00BF0A
:104EAC002083B8ED00B586460346002201E00132AE
:104EBC000133052A02D819780029F8D1013B0020CA
:104ECC0008E0A2F16101C9B2192914D86244A2F117
:104EDC005300013B734517D300EB80004FEAC00C25
:104EEC0060461A78A2F14101C9B21929E9D802EB3E
:104EFC000C003338EDE7A2F13001C9B20929E8D82A
:104F0C006244A2F12F00E4E75DF804FB13468AB17A
:104F1C00426C9A4042644FF0010C0CFA03FC0CF109
:104F2C00FF3C01EA0C011143416490F84820134402
:104F3C0080F8483090F84820072A23D9C36B0BB36C
:104F4C00436C083AD340DBB2826B511C8163137003
:104F5C0090F848C0ACF10802D2B280F84820C16B7E
:104F6C000139C16390F840100029E3D0FF2BE1D147
:104F7C00012303FA02F2013A436C1A40426480F8AE
:104F8C0048C0D7E7C36B0BB10020704703207047B4
:104F9C0008B5034690F8482012F0070000D108BD70
:104FAC00C0F10802D2B2FF211846FFF7AFFFF6E7B7
:104FBC00F8B50646151E06DB2B4600242BB1013432
:104FCC00E4B25B10FAE76B42F7E7002D1DDB04F04F
:104FDC000F0E4EEA011E5FFA8EFE96F85A30003B19
:104FEC0018BF012396F857205B00002A18BF013325
:104FFC0003F59E7306EB83035F6807F11100012232
:10500C000021102A1CD8BB5C0AE06D420123A3408E
:10501C00013B5D40DBE70130013189B2013BDBB282
:10502C004BB190F800C0E645F5D13046FFF76EFF66
:10503C004CB90020F8BD490089B20132D2B2E0E788
:10504C0000221146F1E72246A9B23046FFF75EFF77
:10505C00EFE72DE9F041044690F84930032B32D0AC
:10506C00042B00F0EB8094F85A303F2B24D994F8A1
:10507C0059300133DBB284F8593094F8562022B100
:10508C0094F85820934200F0068294F8592094F832
:10509C00583002339A4200F0218294F8593094F837
:1050AC005820934280F05882002384F85730002314
:1050BC0084F85A3084F87530E36B002B00F054827E
:1050CC000020BDE8F0810026B646836D23F07F43B7
:1050DC0023F0FF032BB9D0F88030C26F934200D974
:1050EC00C36794F85A30003B18BF012394F857203B
:1050FC005B00002A18BF0133AE3354F8237007F15C
:10510C00110001250023102D39D894F83080A845C2
:10511C0038D37A5D72B3E16AA8EB050C21FA0CF175
:10512C00994205D0013001339BB2013AD2B2F1E77A
:10513C00067800200028C4D194F85A30002B48D1AE
:10514C00002E40D1E26FE38A9A4231D194F8593063
:10515C001BB194F8582093422AD394F87830A3B911
:10516C0094F857301A3354F8232000212046FFF7C7
:10517C001FFF22E05B009BB20135EDB2C3E7754621
:10518C00FF20D7E775460120D4E794F85730163343
:10519C0004EB83035A68524200212046FFF708FFB4
:1051AC0094F85730163304EB830300225A6004E062
:1051BC00002211462046FFF7FBFE94F85A300133CB
:1051CC0084F85A3019E0042384F8493084F8846058
:1051DC0013E0002284F87420EEB1F02E23D00422C8
:1051EC0084F8492026FA02F284F87420134484F8D7
:1051FC005A3006F00F0684F8846094F830305D1B4A
:10520C00EDB284F83050012303FA05F5013DE36A51
:10521C001D40E56227E711462046FFF7C9FE4023F3
:10522C0084F85A30E9E700220F212046FFF7C0FE30
:10523C0094F85A30103384F85A30DEE790F8302066
:10524C0090F884108A42C0F08D81C56A521AD540FC
:10525C0001238B40013BB5EB630F01DC5D406D42DC
:10526C0094F85A60002E40F0B480E26FE38A9A42C0
:10527C003BD094F87830012B00F0848094F8577070
:10528C0007F1160304EB8303D3F804C03B1E18BFCD
:10529C00012303F1B20254F822100136885D03F5A4
:1052AC00A07304EB83035A68935D984201D000FB12
:1052BC0005F5654407F1160304EB83035D608B5D14
:1052CC00915D8B4203D02846FFF776FD05461A37D1
:1052DC0054F82720AA1A00212046FFF769FE94F8FB
:1052EC0057301A3344F82350A9E094F859301BB1C5
:1052FC0094F858209342BCD394F8783083BB94F83C
:10530C00577007F1160304EB83035A683B1E18BF52
:10531C00012303F1B20154F82100013610F806C044
:10532C0003F5A07304EB830359688B5D9C4501D096
:10533C000CFB05F52A4407F1160304EB83035A60B2
:10534C00835D895D8B4203D01046FFF735FD024625
:10535C001A3744F8272000212046FFF729FE6EE07B
:10536C0094F85730163304EB83035A68AA1A0021B9
:10537C002046FFF71DFE94F85730163304EB8303D9
:10538C005D605CE094F8573003F1160204EB820286
:10539C0050681A1E18BF012202F1B20154F82110F4
:1053AC000136895D02F5A07204EB82025268925DAF
:1053BC0091420CD005FB01F1163304EB830301443D
:1053CC0059602A4600212046FFF7F2FD37E02946B6
:1053DC00F2E794F85730003B18BF012303F1B202F7
:1053EC0054F82210721C885C03F5A07304EB830341
:1053FC005B68995C884204D005FB00F0FFF7DCFC8D
:10540C000546A5B394F8743094F87520134484F8C9
:10541C00753009E000220F212046FFF7C9FD94F8F2
:10542C007530103B84F8753094F875100F29F1D84D
:10543C002A462046FFF7BCFD002384F8753094F80B
:10544C005A30013384F85A30032384F8493094F8E5
:10545C00842094F830309B1ADBB284F8303001226F
:10546C0002FA03F3013BE26A1340E362FBE53E2ED2
:10547C0008D894F8743094F875201344013384F8E8
:10548C007530DCE7002211462046FFF791FD002322
:10549C0084F87530D3E794F85820511C94F859309F
:1054AC009942FFF6F2AD9B1ADBB2013384F8573008
:1054BC00002584F85A502A4629462046FFF778FDE5
:1054CC00012384F85A302A4629462046FFF770FDFE
:1054DC0094F85930013384F85930DCE7002384F810
:1054EC005930E38A01339BB2E382228B93421CD264
:1054FC0094F8783023B9A28B4FF6FF739A4219D0E7
:10550C00B4F87630002B3FF4C8ADE28A002A3FF4A1
:10551C00C4ADB2FBF3F103FB11239BB2002B7FF460
:10552C00BCAD84F849300120CBE52046FFF730FDB7
:10553C000420C6E52046FFF72BFDE38AC4F8803033
:10554C00A3836388E26B9B1ADBB294F84820073282
:10555C0003EBE203A377D3E79B1ADBB2013384F8A6
:10556C005730A4E50120ACE50320AAE5037813B17C
:10557C00012B05D07047AD234380BB23838070473C
:10558C00CD234380DB238380704700230BE003EBA8
:10559C008303C3EBC303C3EBC303DBB22D33DBB217
:1055AC0000F8013B01390029F1D17047B0F84A30BD
:1055BC00A3F57F43C03B1D2B40D8DFE803F00F3F22
:1055CC00473F0F3F3F3F3F3F3F3F3F3F3F3F292933
:1055DC002929292929293F240F0F3F0FB0F84C10F6
:1055EC00B0F8D032C3F50C720232914230DC803309
:1055FC000344053303650023A0F85430022280F8DD
:10560C00492018467047052380F849300020704720
:10561C00002343660366C36580F8573080F85A3020
:10562C0080F8593080F8753080F8743080F830305C
:10563C00C362032280F8492018467047B0F84C30FA
:10564C008362002380F8493018467047FF2070476A
:10565C00FF20704730B5046DB0F84C201546B0F8FB
:10566C004A30A3F57F43C03B1D2B00F25881DFE885
:10567C0013F01E00560156015601F6005601560154
:10568C005601560156015601560156015601560156
:10569C005601560156015601560156015601560146
:1056AC00560156015601C7003D0156015001E378E1
:1056BC00217941EA0321C180637894F802C04CEA55
:1056CC00032CA0F808C02378082B40F02D816379B7
:1056DC00012B02D0032B40F02981B1F57F6F00F232
:1056EC002781BCF57F6F00F2258111F00F0F40F080
:1056FC0023811CF00F0F40F0218100231BE00022BE
:10570C000275042280F8582014E00122027502224E
:10571C0080F858200EE00222027580F8582009E02B
:10572C0003220275012280F8582003E05278112AD6
:10573C0040F00881013362799A4233DD03EB430276
:10574C0006322244002BF1D15278113A112A00F280
:10575C00F7800FF2080E5EF822F000BF2D570008FC
:10576C00175700084D5900084D5900084D590008AD
:10577C004D5900084D5900084D5900084D59000865
:10578C004D5900084D5900084D5900084D59000855
:10579C004D5900084D5900084D5900082357000871
:1057AC000B570008012A06D0037D032B10D8DFE825
:1057BC0003F00A151B21012380F8563002230375D0
:1057CC0080F85830F0E709094FEA1C1501FB05F584
:1057DC00B5F5803F80F0B8800583A0E009094FEA59
:1057EC00DC0501FB05F5F3E7C9084FEA1C1501FBC5
:1057FC0005F5EDE7C9084FEADC0501FB05F5E7E720
:10580C002378012B02D0032B40F0A080D0F8C822C3
:10581C00002A00F09D80012B04D9D0F8CC22002A5C
:10582C0000F09880D0F8B822002A00F09580012B67
:10583C0004D9D0F8BC22002A00F09080D0F8C02205
:10584C00002A00F08D80012B04D9D0F8C432002B33
:10585C0000F08880032380F84930002063E0B0F822
:10586C00D0321A44A0F8D02214E0C0F8B842112269
:10587C0001230BE0C0F8BC42F9E7C0F8C042F6E7E0
:10588C00C0F8C442F3E7E15C0A440133102BFADDA3
:10589C00AD1A1444002D42D02378112BE7D801A265
:1058AC0052F823F077580008815800087B580008FC
:1058BC007B5800087B5800087B5800087B58000870
:1058CC007B5800087B5800087B5800087B58000860
:1058DC007B5800087B5800087B5800087B58000850
:1058EC007B580008875800088D580008B0F8D03253
:1058FC001A44A0F8D02203E0C0F8C842413D41341C
:10590C006DB12378002BF7D0012BF7D1C0F8CC4226
:10591C00F4E72278637803EB0223A0F876300023B7
:10592C0080F84930184630BDFF20FCE7FF20FAE72D
:10593C00FF20F8E7FF20F6E7FF20F4E7FF20F2E76F
:10594C00FF20F0E7FF20EEE7FF20ECE7FF20EAE77F
:10595C00FF20E8E7FF20E6E7FF20E4E7FF20E2E78F
:10596C00FF20E0E7FF20DEE738B505461446B0F827
:10597C000C35981840F2222290420CD803F534735F
:10598C002B442246981CFAF729FCB5F80C25144434
:10599C00A5F80C4538BD0020FCE700002DE9F041CE
:1059AC0004460E46174698469DF91850002D03DB09
:1059BC00072D02DD072500E000254FF4A26200212F
:1059CC002046FAF7FDFC84F810803846FFF76AFA97
:1059DC00E0602670A5762046FFF7C8FDA27E16492A
:1059EC002046FFF725FAC4F80405A27E1349204689
:1059FC00FFF71EFAC4F808051D2211492046FFF7CF
:105A0C00B3FFC4F8F4041D220E492046FFF7ACFF87
:105A1C00C4F8F804B3220C492046FFF7A5FFC4F8DC
:105A2C00FC04B32209492046FFF79EFFC4F8000589
:105A3C000020BDE8F08100BFD46800081869000898
:105A4C002C6700084C6700086C6700082068000889
:105A5C0010B504460846616301F10F03A363638824
:105A6C00E363E0220021FAF7ABFC0022114620464A
:105A7C00FFF74CFA002010BDF8B590F84930052B13
:105A8C0000F024810446C36B2BB9416BFFF7E0FF98
:105A9C0001E0013BA362636A002B00F01481226ACF
:105AAC00511C21621278013B6362A36A002BF0D176
:105ABC0094F849100429EED8DFE801F0032B445880
:105ACC005800B4F84A3042EA032292B2A4F84A20B1
