:020000040800F2
:1000000000500020A91C00084F1B0008511B0008CD
:10001000531B0008551B0008571B00080000000078
:10002000000000000000000000000000591B000854
:100030005B1B0008000000005D1B00085F1B000840
:10004000F11C0008F11C0008F11C0008F11C00085C
:10005000F11C0008F11C0008F11C0008F11C00084C
:10006000F11C0008F11C0008F11C0008F11C00083C
:10007000F11C0008F11C0008F11C0008F11C00082C
:10008000F11C0008F11C0008F11C0008F11C00081C
:10009000F11C0008F11C0008F11C0008F11C00080C
:1000A000F11C0008F11C0008F11C0008F11C0008FC
:1000B000F11C0008F11C0008F11C0008F11C0008EC
:1000C000F11C0008F11C0008F11C0008F11C0008DC
:1000D000F11C0008F11C0008F11C0008F11C0008CC
:1000E000F11C0008F11C0008F11C000800000000D1
:1000F0000000000000000000000000000000000000
:0C01000000000000000000005FF808F1A3
:10010C0010B5054C237833B9044B13B10448AFF345
:10011C0000800123237010BD680000200000000047
:10012C00202C000808B5034B1BB103490348AFF35F
:10013C00008008BD000000006C000020202C00088E
:10014C0084B00F4B9A6942F020029A619A6902F0CE
:10015C0020020192019A9A6942F008029A619A6906
:10016C0002F008020292029A9A6942F004029A6121
:10017C009B6903F004030393039B04B0704700BF17
:10018C000010024008B50B480B4B03600B4B43604F
:10019C0000238360C3604FF480420261436183613A
:1001AC00C361036200F0F0FC00B908BD00F08CF8EC
:1001BC00FBE700BF8400002000580040A08601002F
:1001CC0010B586B000230293039304930593026841
:1001DC00114B9A4201D006B010BD104CA36943F0EC
:1001EC000803A361A36903F008030093009B4FF479
:1001FC0040630293122303930323059302A9084837
:10020C0000F056F9E36943F48003E361E36903F416
:10021C0080030193019BDEE7005800400010024070
:10022C00000C014010B514464FF0FF3392B2024857
:10023C0001F021FC204610BDC001002010B584B097
:10024C009023ADF80C304FF0FF330093022303AA38
:10025C002421164800F076FDB0B90024632C1BDC79
:10026C004FF0FF330093E023114A24210F4800F094
:10027C0025FE68B90E4B1B78FF2B12D021460D487A
:10028C0001F0F4FD0134E9E70B4801F057FE06E0FC
:10029C0021460A4801F0EAFD094801F04FFE04B07E
:1002AC0010BD2146074801F0E1FDF5E78400002070
:1002BC00D8000020A02C0008382C00085C2C00086A
:1002CC00BC2C0008782C000872B6FEE700B591B083
:1002DC002822002106A801F011FF002301930293AC
:1002EC00039304930593012306934FF480330793F0
:1002FC0006A800F0C7FF70B90F23019301230293E6
:10030C00002103910491059101A801F0EDF920B9A8
:10031C0011B05DF804FBFFF7D7FFFFF7D5FF000026
:10032C0008B500F037F8FFF7D1FFFFF709FFFFF72B
:10033C0029FF01F055FC034801F000FEFFF77EFF9A
:10034C00FEE700BFD82C000810B504460E4B1A78F7
:10035C004FF47A73B3FBF2F30C4A1068B0FBF3F072
:10036C0000F092F868B90F2C01D901200AE00022A4
:10037C0021464FF0FF3000F077F8054B1C60002051
:10038C0000E0012010BD00BF00000020080000208C
:10039C000400002008B5074A136843F010031360EB
:1003AC00032000F04FF80F20FFF7CEFF00F032FFD4
:1003BC00002008BD00200240034A1168034B1B7843
:1003CC000B441360704700BFB801002000000020F0
:1003DC00014B1868704700BFB8010020002808DBEB
:1003EC000901C9B200F1604000F5614080F80013CA
:1003FC00704700F00F000901C9B2014B1954704746
:10040C0014ED00E000B500F00700C0F1070CBCF1E2
:10041C00040F28BF4FF0040C031D062B0FD9C31E6D
:10042C004FF0FF3E0EFA0CF021EA000199400EFA53
:10043C0003FE22EA0E0241EA02005DF804FB0023EF
:10044C00EEE70000074AD36823F4E0631B041B0C9F
:10045C00000200F4E060034343F0BF6343F4003355
:10046C00D360704700ED00E010B50446054BD8682A
:10047C00C0F30220FFF7C6FF01462046FFF7AEFF90
:10048C0010BD00BF00ED00E00138B0F1807F0BD251
:10049C004FF0E0235861054AF02182F82310002028
:1004AC00986107221A6170470120704700ED00E047
:1004BC0070B582B00024A446A1E07E4DAB4214D0AE
:1004CC000CD8A5F58015AB420FD005F57025AB42C5
:1004DC000BD0A5F58015AB4210D106E0764DAB42A2
:1004EC0003D005F58035AB4208D18B68002B50D07A
:1004FC00012B49D04261082400E0CC68BEF1FF0F0B
:10050C0049D806464FEA8C0233680F25954023EAFA
:10051C00050304FA02F2134333604B6813F0805F57
:10052C006BD0664B9A6942F001029A619B6903F0A9
:10053C0001030193019B4FEA9C02951C604B53F8FD
:10054C0025600CF00305AD000F23AB4026EA030633
:10055C005C4B984226D003F58063984200F08C8067
:10056C0003F58063984200F0898003F5806398421C
:10057C0016D0042317E0CC680434BFE7CC680834E9
:10058C00BCE7CC680C34B9E702610824B6E7002458
:10059C00B4E70424B2E7061DACF108029200B3E7FD
:1005AC00032300E00023AB4033430232444D45F8B3
:1005BC0022304B6813F4801F62D0434A936843EA9D
:1005CC000E0393604B6813F4001F5FD03E4AD36850
:1005DC0043EA0E03D3604B6813F4003F5CD03A4AF5
:1005EC00536843EA0E0353604B6813F4803F59D0B1
:1005FC00354A136843EA0E0313600CF1010C0B68C7
:10060C0033FA0CF254D0012202FA0CF203EA020E75
:10061C0032EA0303F1D14B68122B3FF64EAF122B8B
:10062C003FF66CAF01A555F823F000BFF7040008A6
:10063C0007050008890500089B0500080905000846
:10064C000905000809050008090500080905000846
:10065C000905000809050008090500080905000836
:10066C000905000809050008090500080905000826
:10067C00830500088F050008012394E7022392E705
:10068C00114A936823EA0E0393609BE70E4AD368E2
:10069C0023EA0E03D3609EE70B4A536823EA0E034A
:1006AC005360A1E7084A136823EA0E031360A4E71A
:1006BC0002B070BD0000221000003110001002408A
:1006CC0000000140000801400004014003685A6921
:1006DC0012F4806F01D1002070476FF480625A6170
:1006EC0000230363202280F83D2080F83E30026C0A
:1006FC0042F00402026480F83C30012070472DE97E
:10070C00F04106460C46174698463BE0FFF760FE64
:10071C00069BC01A404502D8B8F1000F32D1012D0A
:10072C0018D033689B6924EA03039BB2B3FA83F3B2
:10073C005B099F4226D100233363202286F83D209B
:10074C0086F83E30326C42F02002326486F83C303F
:10075C00012027E033685B6924EA03039BB2B3FAF8
:10076C0083F35B09E5E733685B6924EA030C1FFA42
:10077C008CFCBCFA8CFC4FEA5C1C674511D1B8F1BF
:10078C00FF3FC3D1C4F30745012DECD033689B69FF
:10079C0024EA030C1FFA8CFCBCFA8CFC4FEA5C1CA0
:1007AC00EBE70020BDE8F0812DE9F84305460E4645
:1007BC009046994653E01A6842F400721A602B680E
:1007CC006FF480625A6100232B63202285F83D2050
:1007DC0085F83E302A6C42F004022A6485F83C30DD
:1007EC0001204AE0FFF7F4FDA0EB0900404502D8D8
:1007FC00B8F1000F33D1012F17D02B689B6926EA73
:10080C0003039BB2003B18BF012343B300232B63AC
:10081C00202285F83D2085F83E302A6C42F02002DB
:10082C002A6485F83C30012027E02B685B6926EAB6
:10083C0003039BB2003B18BF0123E6E72B689C69BE
:10084C0026EA0404A4B2003C18BF0124A4B12B680E
:10085C005A6912F4806FAED1B8F1FF3FC2D1C6F322
:10086C000747012FEAD12B685C6926EA0404A4B27D
:10087C00003C18BF0124E9E70020BDE8F883000024
:10088C00F0B583B004460D4616461F46C36A082BC6
:10089C000DD0012B0BD013F5803F08D0036B122B1E
:1008AC000AD10268136843F48073136004E0226871
:1008BC00136843F4807313600097334600224FF0A3
:1008CC0001112046FFF71BFF80B92369B3F5804F58
:1008DC0016D1236805F0FE051D613B4632461349CF
:1008EC002046FFF761FFF8B903B0F0BD23681B6821
:1008FC0013F4807F02D04FF4007323640320F3E7DA
:10090C00EB11226803F0060343F0F00313613B463E
:10091C00324607492046FFF747FF18B92368EDB266
:10092C001D61DAE70120DFE70120DDE702000100AD
:10093C00080001002DE9F04184B004460D4616462E
:10094C001F46C26A01680B6843F480630B60082A77
:10095C000DD0012A0BD012F5803F08D0036B112B60
:10096C000AD10268136843F48073136004E02268B0
:10097C00136843F4807313600097334600224FF0E2
:10098C0001112046FFF7BBFE98B92369B3F5804FE0
:10099C0019D1236845F00105EDB21D613B46324685
:1009AC002A492046FFF700FF00284CD104B0BDE8CF
:1009BC00F08123681B6813F4807F02D04FF400731E
:1009CC0023640320F2E74FEAE51808F006082368D1
:1009DC0048F0F0021A613B4632461D492046FFF7AB
:1009EC00E3FE08B10120E1E72368EDB21D613B464F
:1009FC00324616492046FFF7D7FE08B10120D5E74D
:100A0C000022039223685969039199690391039910
:100A1C00196841F480711960009733464FF0011149
:100A2C002046FFF76CFE20B9226848F0F1031361F1
:100A3C00B4E723681B6813F4807F02D04FF4007373
:100A4C0023640320B2E70120B0E700BF02000100DD
:100A5C000800010070B504460D46164623685B6914
:100A6C0013F0800F21D12046FFF730FEF8B9B5F115
:100A7C00FF3FF3D0FFF7ACFC801BA84201D8002D40
:100A8C00ECD123685B6913F0800FE7D1002323635B
:100A9C00202284F83D2084F83E30226C42F0200263
:100AAC00226484F83C30012000E0002070BD01205D
:100ABC00FCE770B504460D46164623685B6913F0D7
:100ACC00040F21D12046FFF701FEF8B9B5F1FF3F25
:100ADC00F3D0FFF77DFC801BA84201D8002DECD190
:100AEC0023685B6913F0040FE7D1002323632022F2
:100AFC0084F83D2084F83E30226C42F020022264BF
:100B0C0084F83C30012000E0002070BD0120FCE79F
:100B1C0070B504460D46164614E06FF010025A618B
:100B2C0000232363202284F83D2084F83E30226C7D
:100B3C00226484F83C30012025E023685B6913F0C3
:100B4C00400F10D02368586910F0400F1AD1586923
:100B5C0010F0100FE1D1FFF73BFC801BA842ECD842
:100B6C00002DEFD1E9E700232363202284F83D20F8
:100B7C0084F83E30226C42F02002226484F83C302F
:100B8C00012000E0002070BD002800F0CC8070B582
:100B9C00044690F83D30002B77D0242384F83D3068
:100BAC002268136823F0010313602268136843F46E
:100BBC00004313602268136823F40043136000F0B1
:100BCC004FFE62685A4B9A4264D85A4B98428CBF7B
:100BDC0000230123002B40F0A8805749A1FB0031D2
:100BEC008B0C25686A6822F03F0242EA91426A60E7
:100BFC0021680A6A22F03F0266684D4DAE424FD81A
:100C0C00013313430B622168CA6922F44F4222F06C
:100C1C00FF026568464B9D424CD8431E6D00B3FBEA
:100C2C00F5F3013340F6FC70034278D0C3F30B03A9
:100C3C001A43CA6121680B6823F0C003E269206A79
:100C4C00024313430B6021688B6823F4034323F0A6
:100C5C00FF032269E068024313438B602168CB6871
:100C6C0023F0FF036269A06902431343CB6022683F
:100C7C00136843F00103136000202064202384F8E0
:100C8C003D30206384F83E0070BD80F83C30FFF7A7
:100C9C0097FA82E7294B98428CBF0023012399E7EE
:100CAC004FF4967505FB03F3254DA5FB03539B09E8
:100CBC000133A6E7A668BEB9431E05EB450CB3FB92
:100CCC00FCF30133C3F30B03B3FA83F35B0943BBAC
:100CDC00C6B9431E05EB4505B3FBF5F30133C3F36E
:100CEC000B0343F40043A3E7431E05EB850C0CEB0D
:100CFC008C0CB3FBFCF30133C3F30B03B3FA83F398
:100D0C005B09E4E7431E05EB850505EB8505B3FBA5
:100D1C00F5F30133C3F30B0343F4404388E7042397
:100D2C0086E7012384E7012070470120ACE700BF70
:100D3C00A08601007F841E0083DE1B43FF083D005C
:100D4C00D34D62102DE9F04385B004460F46914611
:100D5C0098460C9EFFF73CFB054694F83D00C0B24C
:100D6C00202804D00227384605B0BDE8F083009552
:100D7C00192301224F492046FFF7C1FC002840F0FF
:100D8C00928094F83C30012B00F08F80012384F882
:100D9C003C3023681A6812F0010F03D11A6842F034
:100DAC0001021A602268136823F400631360212384
:100DBC0084F83D30102384F83E3000232364C4F8BB
:100DCC002490A4F82A80638D23853B4BE3622B4649
:100DDC00324639462046FFF753FD0746002866D1B8
:100DEC000023039323685A6903929B690393039B23
:100DFC0011E0236C042B01D00127B4E7226813689F
:100E0C0043F400731360F7E72A4631462046FFF798
:100E1C0050FE00282ED1238D002B36D02A46314689
:100E2C002046FFF717FE0028E3D1626A2368127888
:100E3C001A61606A431C6362618D89B2013989B29F
:100E4C006185238D013B9BB223852268516911F08A
:100E5C00040FD9D0002BD7D043781361636A0133C8
:100E6C006362638D9BB2013B9BB26385238D013B17
:100E7C002385C9E7236C042B01D0012773E7226873
:100E8C00136843F400731360F7E72268136843F4A4
:100E9C0000731360202384F83D30002384F83E3027
:100EAC0084F83C305FE702275DE702275BE7012708
:100EBC0059E700BF020010000000FFFF2DE9F043CE
:100ECC0089B004460F4691469846109E002307931E
:100EDC00FFF77EFA054694F83D00C0B2202804D0F6
:100EEC000227384609B0BDE8F0830095192301228A
:100EFC0080492046FFF703FC002840F07A8194F8E3
:100F0C003C30012B00F07781012384F83C302368BE
:100F1C001A6812F0010F03D11A6842F001021A602C
:100F2C002268136823F400631360222384F83D3095
:100F3C00102384F83E3000232364C4F82490A4F8D2
:100F4C002A80638D23856C4BE3622B4632463946EF
:100F5C002046FFF7EFFC0746002840F04E81238D1A
:100F6C005BB9039323685A6903929A690392039AB3
:100F7C001A6842F400721A60F3E0012B0FD0022BB6
:100F8C0021D02268136843F4806313600023069316
:100F9C0023685A6906929B690693069BE1E02268D6
:100FAC00136823F48063136072B6002304932368E0
:100FBC005A6904929A690492049A1A6842F400726B
:100FCC001A6062B6CDE02268136843F400631360C4
:100FDC0072B60023059323685A6905929A690592A3
:100FEC00059A1A6822F480621A6062B6B9E02A4641
:100FFC0031462046FFF78CFD002840F00081236825
:10100C001A69636A1A70636A01336362238D013B48
:10101C002385638D9BB2013B9BB26385A1E0009558
:10102C003346002235492046FFF769FB002840F083
:10103C00EA802268136823F48063136072B6236815
:10104C001A69636A1A70636A01336362238D013B08
:10105C002385638D9BB2013B9BB26385284B1B6838
:10106C00DB08284AA2FB03231B0A03EB8303C3EB15
:10107C00C30307930799013907910799002928D0D1
:10108C0023685A6912F0040FF4D01A6842F4007203
:10109C001A6023681A69636A1A70636A013363629F
:1010AC00238D013B2385638D9BB2013B9BB26385F2
:1010BC0062B623681A69636A1A70636A01336362E1
:1010CC00238D013B2385638D9BB2013B9BB26385D2
:1010DC0047E000232363202284F83D2084F83E302F
:1010EC00226C42F02002226462B684F83C30012764
:1010FC00F7E600BF020010000000FFFF0400010033
:10110C000800002089B5F8142A4631462046FFF71E
:10111C00FFFC002879D123681A69636A1A70636A24
:10112C0001336362228D013A92B22285638D9BB2A8
:10113C00013B9BB263852368596911F0040F10D0F1
:10114C00032A48D023681A69636A1A70636A0133E8
:10115C006362238D013B2385638D9BB2013B9BB264
:10116C006385218D00293BD00329CDD801293FF47B
:10117C003EAF02297FF453AF009533460022244939
:10118C002046FFF7BCFA00283BD172B622681368E0
:10119C0043F40073136023681A69636A1A70636AF4
:1011AC0001336362238D013B2385638D9BB2013B2D
:1011BC009BB2638562B623681A69636A1A70636AA4
:1011CC0001336362238D013B2385638D9BB2013B0D
:1011DC009BB26385C5E71A6822F480621A60B1E796
:1011EC00202384F83D30002384F83E3084F83C30D2
:1011FC0077E6022775E6022773E6012771E60127D9
:10120C006FE601276DE601276BE6012769E600BF53
:10121C000400010082B00E4B9A6942F001029A61FF
:10122C009A6902F001020092009ADA6942F0805247
:10123C00DA61DB6903F080530193019B054A536823
:10124C0023F0E06343F00073536002B0704700BFBB
:10125C00001002400000014082B0084B1B68084A95
:10126C00A2FB03235B0A00FB03F3019300BF019B6A
:10127C005A1E0192002BF9D102B0704708000020D1
:10128C00D34D6210002800F0F18170B582B0044695
:10129C00036813F0010F2CD0994B5B6803F00C031F
:1012AC00042B1DD0964B5B6803F00C03082B12D05B
:1012BC006368B3F5803F41D0002B55D103F18043D7
:1012CC0003F504331A6822F480321A601A6822F487
:1012DC0080221A6037E08A4B5B6813F4803FE7D0BA
:1012EC00874B1B6813F4003F03D06368002B00F09E
:1012FC00BF81236813F0020F75D0814B5B6813F02C
:10130C000C0F5FD07E4B5B6803F00C03082B54D0A2
:10131C002369002B00F08A807A4B01221A60FFF7B8
:10132C0057F80546764B1B6813F0020F75D1FFF783
:10133C004FF8401B0228F5D903209EE1704A136830
:10134C0043F480331360636843B3FFF741F80546F9
:10135C006B4B1B6813F4003FCBD1FFF739F8401BE4
:10136C006428F5D9032088E1B3F5A02F09D0644B8C
:10137C001A6822F480321A601A6822F480221A60E9
:10138C00E1E703F18043A3F53C331A6842F4802271
:10139C001A601A6842F480321A60D4E7FFF718F822
:1013AC000546574B1B6813F4003FA2D0FFF710F80B
:1013BC00401B6428F5D903205FE1514B5B6813F4A3
:1013CC00803FA5D14E4B1B6813F0020F03D023694D
:1013DC00012B40F04F814A4A136823F0F8036169EE
:1013EC0043EAC1031360236813F0080F33D0A369D9
:1013FC00002B5CD0434B0122C3F88024FEF7E8FF9E
:10140C0005463F4B5B6A13F0020F21D1FEF7E0FF5C
:10141C00401B0228F5D903202FE1394A136823F029
:10142C00F803616943EAC1031360DCE7354B002222
:10143C001A60FEF7CDFF0546314B1B6813F0020F07
:10144C00D1D0FEF7C5FF401B0228F5D9032014E1CB
:10145C000120FFF701FF236813F0040F00F09680C2
:10146C00274BDB6913F0805F34D1254BDA6942F0EE
:10147C008052DA61DB6903F080530193019B0125F3
:10148C00214B1B6813F4807F26D0E368012B3DD0E1
:10149C00002B53D103F1804303F504331A6A22F075
:1014AC0001021A621A6A22F004021A6233E0154B26
:1014BC000022C3F88024FEF78BFF0546104B5B6AB5
:1014CC0013F0020FC7D0FEF783FF401B0228F5D99B
:1014DC000320D2E00025D3E70B4A136843F4807352
:1014EC001360FEF775FF0646074B1B6813F4807FED
:1014FC00CBD1FEF76DFF801B6428F5D90320BCE02F
:10150C000010024000004242007000405F4A136A23
:10151C0043F001031362E36833B3FEF759FF064649
:10152C005A4B1B6A13F0020F2FD1FEF751FF801B91
:10153C0041F288339842F3D903209EE0052B09D061
:10154C00524B1A6A22F001021A621A6A22F0040241
:10155C001A62E0E74D4B1A6A42F004021A621A6AE8
:10156C0042F001021A62D6E7FEF732FF0646474BFD
:10157C001B6A13F0020F08D0FEF72AFF801B41F202
:10158C0088339842F3D9032077E0E5B9E369002B5F
:10159C0072D03E4A526802F00C02082A56D0022B36
:1015AC0017D03B4B00221A66FEF712FF0446374B4E
:1015BC001B6813F0007F47D0FEF70AFF001B0228C0
:1015CC00F5D9032059E0314AD36923F08053D36114
:1015DC00DCE72F4B00221A66FEF7FAFE05462B4B72
:1015EC001B6813F0007F06D0FEF7F2FE401B0228AA
:1015FC00F5D9032041E0236AB3F5803F1AD0234983
:10160C004B6823F47413226A606A024313434B60E1
:10161C001F4B01221A66FEF7DBFE04461B4B1B68B0
:10162C0013F0007F0ED1FEF7D3FE001B0228F5D974
:10163C00032022E0154A536823F40033A1680B43BE
:10164C005360DCE7002018E0002016E0012B16D0D8
:10165C000E4B5B6803F48031226A914211D103F482
:10166C007013626A93420ED1002006E0012070478D
:10167C00012002E0012000E0002002B070BD01203A
:10168C00FBE70120F9E70120F7E700BF001002405B
:10169C00000042420F4B5B6803F00C02082A01D099
:1016AC000D487047C3F383420C49885C13F4803FA8
:1016BC000BD0084B5B68C3F34043094AD35C064A22
:1016CC0002FB00F0B0FBF3F07047064B03FB00F09D
:1016DC00704700BF0010024000127A00F02C000886
:1016EC00EC2C000800093D00002800F0A08070B52B
:1016FC000D460446524B1B6803F007038B420BD27A
:10170C004F4A136823F007030B431360136803F06D
:10171C0007038B4240F08D80236813F0020F17D023
:10172C0013F0040F04D0474A536843F4E06353604A
:10173C00236813F0080F04D0424A536843F46053F3
:10174C005360404A536823F0F003A1680B43536085
:10175C00236813F0010F31D06368012B20D0022BCA
:10176C0025D0384A126812F0020F64D035494A6805
:10177C0022F0030213434B60FEF72AFE0646314B60
:10178C005B6803F00C036268B3EB820F16D0FEF7B4
:10179C001FFE801B41F288339842F0D9032045E0AC
:1017AC00284A126812F4003FE0D101203EE0254A9D
:1017BC00126812F0007FD9D1012037E0204B1B6852
:1017CC0003F00703AB420AD91D4A136823F0070341
:1017DC002B431360136803F00703AB422DD123682E
:1017EC0013F0040F06D0174A536823F4E063E16842
:1017FC000B435360236813F0080F07D0114A53684A
:10180C0023F46053216943EAC1035360FFF742FF9D
:10181C000C4B5B68C3F303130B4AD35CD8400B4BE4
:10182C0018600B4B1868FEF78FFD002070BD01206F
:10183C0070470120FAE70120F8E70120F6E700BF26
:10184C000020024000100240082D00080800002073
:10185C0004000020014B1868704700BF08000020EE
:10186C0008B5FFF7F7FF044B5B68C3F30223034A89
:10187C00D35CD84008BD00BF00100240002D00080A
:10188C0008B5FFF7E7FF044B5B68C3F3C223034AB9
:10189C00D35CD84008BD00BF00100240002D0008EA
:1018AC00026802F10C0353E8003F23F490730C32EE
:1018BC0042E800310029F3D1026802F1140353E825
:1018CC00003F23F00103143242E800310029F3D128
:1018DC00036B012B05D0202380F8423000230363D7
:1018EC007047026802F10C0353E8003F23F0100329
:1018FC000C3242E800310029F3D1ECE710B5044674
:10190C000268136923F44053C1680B431361836865
:10191C000269134342691A430168CB6823F4B0533C
:10192C0023F00C031343CB600268536923F4407318
:10193C0081690B4353610268134B9A4220D0FFF725
:10194C008FFF024602EB820202EB820263689B006D
:10195C00B2FBF3F20D48A0FB02314909642303FBEF
:10196C0011231B013233A0FB03035B0903F0F002CC
:10197C0002EB011203F00F03216813448B6010BDBE
:10198C00FFF77EFF0246DDE7003801401F85EB5173
:10199C002DE9F04383B005460E4617469946DDF80F
:1019AC0028802B681C6836EA04040CBF0124002430
:1019BC00BC4228D1B8F1FF3FF3D0FEF709FDA0EBF4
:1019CC000900404523D8B8F1000F22D02B68DA6803
:1019DC0012F0040FE5D0802EE3D0402EE1D01A682F
:1019EC0012F0080FDDD0002401941A6801925B6894
:1019FC000193019B2846FFF753FF08236B6485F87E
:101A0C004040012000E0002003B0BDE8F08303203B
:101A1C00FAE70320F8E760B310B5044690F84130BC
:101A2C0013B3242384F841302268D36823F4005381
:101A3C00D3602046FFF762FF2268136923F49043BA
:101A4C0013612268536923F02A0353612268D36817
:101A5C0043F40053D36000206064202384F84130A9
:101A6C0084F84230606310BD80F8403000F0D2F84A
:101A7C00D7E7012070472DE9F04182B01E4690F85F
:101A8C004130DBB2202B56D104460D46904600293E
:101A9C0055D00AB901204FE000234364212380F87C
:101AAC004130FEF795FC0746A4F82480A4F8268064
:101ABC00A368B3F5805F02D04FF0000814E02369EF
:101ACC002BB34FF000080FE0202384F841300320A3
:101ADC0032E038F8023B2268C3F308035360E28C0F
:101AEC0092B2013A92B2E284E38C9BB293B100962B
:101AFC003B46002280212046FFF74AFF0028E3D115
:101B0C00002DE6D015F8012B23685A60E7E7A846AC
:101B1C000025E9E700963B46002240212046FFF7CE
:101B2C0037FF18B9202384F8413005E0202384F8CE
:101B3C004130032000E0022002B0BDE8F08101201A
:101B4C00FAE7FEE7FEE7FEE7FEE7FEE770477047C1
:101B5C00704708B5FEF730FC08BD70B50C4616464C
:101B6C00002506E0AFF30080214601F8010B01359A
:101B7C000C46B542F6DB304670BD4FF0FF30704777
:101B8C004FF400534B600020704701207047002039
:101B9C007047000010B503460C4A0D490D4800680B
:101BAC0040B10C4800680344521A934206D8094AC3
:101BBC00136010BD0748084C0460F2E700F0ECFA23
:101BCC000C2303604FF0FF30F3E700BF0050002000
:101BDC0000040000BC0100205803002070470000E6
:101BEC0008B50A480A4B03604FF4E1334360002305
:101BFC008360C36003610C2242618361C361FFF7A0
:101C0C000AFF00B908BDFEF75FFBFBE7C00100202F
:101C1C000038014010B586B000230293039304935F
:101C2C00059302681A4B9A4201D006B010BD03F519
:101C3C0058439A6942F480429A619A6902F480424C
:101C4C000092009A9A6942F008029A619B6903F02B
:101C5C0008030193019B4023029302230393032364
:101C6C0005930C4C02A92046FEF722FC802302931C
:101C7C0000230393049302A92046FEF719FC064A9D
:101C8C00536843F0E06343F004035360CDE700BFB7
:101C9C0000380140000C014000000140FFF79EFF9E
:101CAC000B480C490C4A002302E0D458C4500433AE
:101CBC00C4188C42F9D3094A094C002301E0136083
:101CCC000432A242FBD300F06DFAFEF729FB7047F9
:101CDC000000002068000020542D0008680000203F
:101CEC0054030020FEE70000002310B50446C0E9B1
:101CFC000033C0E90433836081814366C281836110
:101D0C00194608225C3000F0F9F90D4B246263622D
:101D1C000C4BA3620C4BE3620C4B23630C4B9C42AD
:101D2C0006D003F16802944202D0D0339C4205D114
:101D3C0004F15800BDE8104000F058BA10BD00BFC7
:101D4C00591F00087B1F0008B31F0008D71F00088D
:101D5C0008020020024A0349034800F069B800BF9A
:101D6C000C0000208D2A00081C00002041680C4B40
:101D7C0010B59942044601D000F082FEA168094BCF
:101D8C00994202D0204600F07BFEE168064B994256
:101D9C0004D02046BDE8104000F072BE10BD00BF5C
:101DAC000802002070020020D802002010B50B4B56
:101DBC000B4C0C4A20461A6004210022FFF794FFBA
:101DCC0004F1680001220921FFF78EFF04F1D00015
:101DDC000222BDE810401221FFF786BF400300200D
:101DEC0008020020611D0008014800F000BA00BF85
:101DFC0049030020014800F0FBB900BF4903002053
:101E0C0010B50446FFF7F0FF236A1BB1BDE8104084
:101E1C00FFF7F0BF044B2362044B1B68002BF5D17A
:101E2C00FFF7C4FFF2E700BF791D00084003002054
:101E3C002DE9F8430746884614460026D4E9019557
:101E4C00B9F1010905D52468002CF7D13046BDE85D
:101E5C00F883AB89012B07D9B5F90E30013303D0C8
:101E6C0029463846C04706436835E9E70FB407B53D
:101E7C00064904AB086853F8042B8168019300F001
:101E8C00D7FA03B05DF804EB04B0704718000020DB
:101E9C00036A70B505460E4684680BB9FFF7B0FFB0
:101EAC00636EDB0705D4A389980502D4A06D00F0FE
:101EBC009EF9A389190702D52369002B35D1214638
:101ECC00284600F0C5F880B34FF0FF35636EDA0793
:101EDC0005D4A3899B0502D4A06D00F089F928468E
:101EEC0070BD002B04DAA2699A4217DC0A2915D0BE
:101EFC0023685A1C22601970A36816F8011F013B55
:101F0C00A3600029EDD1002B11DA22460A212846C4
:101F1C0000F05FF80130D7D00A25D7E722462846D3
:101F2C0000F057F80130E7D1CEE7013EE4E7236833
:101F3C005A1C22600A221A70EEE70000024B01467E
:101F4C001868FFF7A5BF00BF1800002010B50C469D
:101F5C00B1F90E1000F0FCF80028ABBF636DA3893B
:101F6C001B1823F48053ACBF6365A38110BD2DE90E
:101F7C00F0411F468B890546DB050C46164605D5F8
:101F8C0002230022B1F90E1000F0D0F8A3893246DA
:101F9C0023F48053A38128463B46B4F90E10BDE8C8
:101FAC00F04100F0E7B810B50C46B1F90E1000F096
:101FBC00BDF8431CA38915BF606523F4805343F41B
:101FCC008053A38118BFA38110BDB1F90E1000F08E
:101FDC009DB8F8B50E461446054618B1036A0BB900
:101FEC00FFF70EFFA369A360A3891A0701D5236924
:101FFC0043B92146284600F02BF818B14FF0FF37B3
:10200C003846F8BD23682269F6B2981A63693746D8
:10201C00834205DC2146284600F032FD0028EDD134
:10202C00A368013BA36023685A1C22601E7062697E
:10203C00431C9A4204D0A389DB07E1D50A2EDFD1D9
:10204C002146284600F01CFD0028D9D0D6E7000018
:10205C0038B5294B054618680C4618B1036A0BB9FC
:10206C00FFF7CEFEB4F90C30190722D4DA0607D4E8
:10207C0009222A6043F040034FF0FF30A38133E084
:10208C00580712D5616B41B104F14403994202D057
:10209C00284600F0AFF800236363A38923F02403E0
:1020AC00A3810023636023692360A38943F00803A1
:1020BC00A38123694BB9A38903F42073B3F5007F83
:1020CC0003D02146284600F028FDB4F90C3013F05B
:1020DC0001020AD00022A26062695242A261226906
:1020EC0042B913F08000C5D138BD990758BF626959
:1020FC00A260F4E70020F7E7180000200346024432
:10210C00934200D1704703F8011BF9E738B500235F
:10211C00054D044608462B60FFF72FFD431C02D1EA
:10212C002B6803B1236038BD4403002038B5044646
:10213C00084611460022054D2A601A46FFF727FD76
:10214C00431C02D12B6803B1236038BD440300202B
:10215C0038B50446084611460022054D2A601A4639
:10216C00FFF7FBFC431C02D12B6803B1236038BD85
:10217C004403002038B50446084611460022054D9C
:10218C002A601A46FEF74EF8431C02D12B6803B1A5
:10219C00236038BD44030020014B1868704700BF12
:1021AC001800002070B500260C4D0D4C641BA410BB
:1021BC00A64209D100F02EFD00260A4D0A4C641BE4
:1021CC00A410A64205D170BD55F8043B98470136C2
:1021DC00EEE755F8043B98470136F2E74C2D000822
:1021EC004C2D00084C2D0008502D000870477047EE
:1021FC007047000038B50546002940D051F8043C22
:10220C000C1F002BB8BFE41800F0DEF81C4A136852
:10221C0033B9636014602846BDE8384000F0DAB882
:10222C00A34208D9206821188B4201BF19685B684A
:10223C0009182160EDE71A465B680BB1A342FAD985
:10224C0011685018A0420BD12068014450188342E9
:10225C001160E0D118685B68084410605360DAE7DD
:10226C0002D90C232B60D6E7206821188B4201BFC2
:10227C0019685B680918216063605460CBE738BD4E
:10228C005003002070B50F4E0C463168054611B94D
:10229C0000F0A2FC30602146284600F09DFC431C57
:1022AC0003D14FF0FF34204670BDC41C24F003044E
:1022BC00A042F8D0211A284600F08EFC0130F2D151
:1022CC00EFE700BF4C0300202DE9F843CD1C25F0AF
:1022DC00030508350C2D38BF0C25002D064601DBF7
:1022EC00A94204D90C2333600020BDE8F883DFF841
:1022FC00D48000F069F8D8F800301C4644BB29465D
:10230C003046FFF7BFFF431C044658D1D8F80040B5
:10231C002746002F43D1002C4BD02368394630463A
:10232C0004EB030900F058FC814542D1216830468A
:10233C006D1A2946FFF7A6FF01303AD023682B44CB
:10234C002360D8F800305A6862BBC8F800700FE000
:10235C002268521B20D40B2A17D96119A34225607D
:10236C0018BF5960636808BFC8F8001062514B6011
:10237C00304600F02FF804F10B00231D20F007006D
:10238C00C21A1CBF1B1AA350AFE76268A3420CBF52
:10239C00C8F800205A60EBE723466468AEE73C4679
:1023AC007F68B6E71A465B68A342FBD100235360F3
:1023BC00DEE70C233046336000F00CF894E7056040
:1023CC00D6E700BF500300200148FFF710BF00BF45
:1023DC00480300200148FFF70BBF00BF4803002053
:1023EC00936810B4013B002B936007DA9469A34205
:1023FC0001DB0A2902D110BCFFF7EBBD1368581C96
:10240C0010601970084610BC7047F8B506460F46A8
:10241C001446D518AC4201D1002007E03A463046AC
:10242C0014F8011BFFF7DCFF431CF3D1F8BD0000CF
:10243C002DE9F04F0D461446984606469DB018B14E
:10244C00036A0BB9FFF7DCFC6B6ED90705D4AB89BB
:10245C009A0502D4A86DFFF7CAFEAB891B0701D5FC
:10246C002B699BB929463046FFF7F2FD70B16B6EB4
:10247C00DC0704D54FF0FF301DB0BDE8F08FAB8901
:10248C009805F7D4A86DFFF7B3FEF3E70023099383
:10249C0020238DF8293030234FF00109CDF80C8022
:1024AC00DFF8A8818DF82A3023469A4613F8012BC1
:1024BC000AB1252AF9D1BAEB040B0BD05B462246A4
:1024CC0029463046FFF7A1FF013000F0A780099A9A
:1024DC005A4409929AF80030002B00F09F80002398
:1024EC004FF0FF32CDE905230AF1010A049307935B
:1024FC008DF853301A935446052214F8011B534897
:10250C0000F07AFB049AD8B9D10644BF20238DF889
:10251C005330130744BF2B238DF853309AF80030F7
:10252C002A2B15D0544600204FF00A0C079A21464E
:10253C0011F8013B303B092B4BD9B0B1079214E099
:10254C00A0EB080309FA03F31343A2460493D2E762
:10255C00039B191D1B680391002BBBBF5B4242F010
:10256C00020207930793B8BF049223782E2B0AD14B
:10257C0063782A2B32D1039B02341A1D1B680392F9
:10258C0043EAE3730593DFF8C8A003225046217891
:10259C0000F032FB38B14022049BA0EB0A008240D1
:1025AC0013430134049314F8011B062229488DF8B7
:1025BC00281000F021FB00283FD0274B1BBB039BAE
:1025CC00073323F0070308330393099B3B44099318
:1025DC006AE70C4601200CFB0232A8E700234FF0FF
:1025EC000A0C194601340593204610F8012B303A99
:1025FC00092A03D9002BC6D00591C4E70446012350
:10260C000CFB0121F0E703AB00932A463046134B39
:10261C0004A9AFF300800746781CD6D16B6ED9079E
:10262C0005D4AB899A0502D4A86DFFF7E1FDAB89FF
:10263C005B063FF51FAF09981EE703AB00932A46D4
:10264C003046064B04A900F07DF8E4E7182D00088D
:10265C001E2D0008222D0008000000001724000881
:10266C002DE9F047164698468A680B69074693424F
:10267C00B8BF1346336091F843200C46DDF8209028
:10268C000AB1013333602368990642BF33680233C1
:10269C003360256815F0060506D104F1190AE368C4
:1026AC0032689B1AAB422BDC94F843302268003B17
:1026BC0018BF0123920630D44146384604F1430238
:1026CC00C847013023D02368226903F00603042B8A
:1026DC0014BF002533684FF0000608BFE56804F10D
:1026EC001A0408BFED1A54F8123C08BF25EAE57528
:1026FC009342C4BF9B1AED18B5421AD1002008E0D2
:10270C000123524641463846C847013003D14FF0A9
:10271C00FF30BDE8F0870135C1E73020E11881F8C2
:10272C0043005A1C94F845102244023382F843109B
:10273C00C2E70123224641463846C8470130E6D05D
:10274C000136D9E72DE9FF470F7E9146782F804659
:10275C000C469A460C9E01F1430207D8622F0AD808
:10276C00002F00F0D180582F00F0B88004F1420601
:10277C0084F842703AE0A7F16303152BF6D801A157
:10278C0051F823F0E9270008FD27000879270008F5
:10279C00792700087927000879270008FD27000809
:1027AC00792700087927000879270008792700087D
:1027BC00FB28000827280008B528000879270008FE
:1027CC00792700081D290008792700082728000808
:1027DC007927000879270008BD28000833681A1DDE
:1027EC001B68326004F1420684F8423001239CE0FD
:1027FC0033682068191D3160060601D51D6803E099
:10280C004506FBD5B3F90050002D03DA2D236D429C
:10281C0084F843300A23584811E0216833680806CD
:10282C0053F8045B02D4490648BFADB26F2F336036
:10283C0014BF0A2308235048002184F8431066680B
:10284C00002EA66005DB21682E4321F004012160D7
:10285C004BD01646B5FBF3F103FB1157C75D06F8D9
:10286C00017D2F46BB420D46F4D9082B0BD12368B2
:10287C00DF0708D5236961689942DEBF302306F86B
:10288C00013C06F1FF36921B22614B462146404625
:10289C00CDF800A003AAFFF7E3FE01304AD14FF0B8
:1028AC00FF3004B0BDE8F087236843F020032360B9
:1028BC007827324884F84570236831681F0651F830
:1028CC00045B02D45F0648BFADB23160D90744BF88
:1028DC0043F0200323601DB11023ADE72648E9E740
:1028EC00236823F020032360F6E71646BDE7336820
:1028FC002568181D616930602E061B6801D51960AA
:10290C0002E06806FBD51980002316462361BCE75C
:10291C00336800211A1D32601E686268304600F070
:10292C006BF908B1801B606063682361002384F835
:10293C004330AAE73246494640462369D047013026
:10294C00ADD023689B0713D4E068039B9842B8BFB3
:10295C001846A6E70123324649464046D047013087
:10296C009DD00135E36803995B1AAB42F2DCEBE7CF
:10297C00002504F11906F5E7292D00083A2D000869
:10298C00B1F90C20F8B5160705460C4654D44B6823
:10299C00002B02DC0B6C002B48DDE66A002E45D0C8
:1029AC00002312F480522F68216A2B6030D0626DA4
:1029BC00A389590705D56368D21A636B0BB1236CD5
:1029CC00D21A00232846E66A216AB047431CA38921
:1029DC0006D129681D292BD8284ACA40D60727D5E5
:1029EC00002262602269D904226004D5421C01D104
:1029FC002B6803B96065616B2F60B9B104F14403B6
:102A0C00994202D02846FFF7F5FB002363630DE0E3
:102A1C0001232846B0470246501CC9D12B68002B15
:102A2C00C6D01D2B01D0162B1DD12F60002021E00C
:102A3C0043F040031BB21AE00F69002FF6D0930746
:102A4C0018BF00230E6808BF4B69F61B0F608B6024
:102A5C00002EEBDD33463A462846216AD4F828C0CE
:102A6C00E047002807DCB4F90C3043F040034FF08A
:102A7C00FF30A381F8BD0744361AE9E70100402076
:102A8C0038B50B6905460C4613B90025284638BDE8
:102A9C0018B1036A0BB9FFF7B3F9B4F90C30002B7A
:102AAC00F3D0626ED00704D4990502D4A06DFFF761
:102ABC009EFB28462146FFF763FF636E0546DA0747
:102ACC00E4D4A3899B05E1D4A06DFFF791FBDDE76E
:102ADC0070B50C46B1F90E10154600291E4696B07D
:102AEC000CDAA389002113F0800F14BF40234FF49C
:102AFC008063002031602B6016B070BD6A4600F018
:102B0C0049F80028EDDB019901F47041A1F500535F
:102B1C00594259414FF48063EBE78B89F7B59D0718
:102B2C0006460C4607D504F14703236023610123B5
:102B3C00636103B0F0BD6A4601ABFFF7C9FF009FAC
:102B4C00054639463046FFF7BFFB48B9B4F90C309F
:102B5C009A05EED423F0030343F00203A381E2E7CA
:102B6C00A389C4E9040743F08003A381019B20607F
:102B7C005BB13046B4F90E1000F01EF828B1A389F1
:102B8C0023F0030343F00103A381A3891D43A58113
:102B9C00CFE7000038B50023064D04460846114621
:102BAC002B60FEF7EDFF431C02D12B6803B12360B1
:102BBC0038BD00BF4403002038B50023054D044642
:102BCC0008462B60FEF7E1FF431C02D12B6803B1D2
:102BDC00236038BD4403002038B50023054D04465E
:102BEC0008462B60FEF7D6FF431C02D12B6803B1BD
:102BFC00236038BD44030020034610B5C9B202441B
:102C0C009342184601D1002003E0047801338C4232
:102C1C00F6D110BDF8B500BFF8BC08BC9E46704795
:0C2C2C00F8B500BFF8BC08BC9E4670471D
:102C38004661696C656420746F2073656E642070EA
:102C4800726573746F72656420636F6D6D616E6415
:102C5800000000005061636B657420256420726574
:102C68006365697665206661696C65640A000000C1
:102C7800526563656976656420656E64206F6620B9
:102C8800696D6167652061667465722025642070CE
:102C980061636B6574730A00526563656976656480
:102CA8002053534456207061636B65742025640A71
:102CB80000000000496D61676520646F776E6C6F76
:102CC800616420636F6D706C6574652E0000000090
:102CD8004D6173746572207374617274696E672EC6
:102CE8002E2E0D0001020000020304050607080944
:102CF8000A0B0C0D0E0F1010000000000102030457
:102D08000000000000000000010203040607080993
:102D1800232D302B2000686C4C00656667454647BC
:102D2800003031323334353637383941424344453F
:102D380046003031323334353637383961626364AE
:042D480065660000BC
:042D4C003101000849
:042D50000D01000869
:102D5400010000001000000000127A0000000000D2
:102D640003000000080200201C00002000000000F6
:102D74000802002070020020D80200200000000099
:102D8400000000000000000000000000000000003F
:102D9400000000000000000000000000000000002F
:102DA400000000000000000000000000000000001F
:082DB400000000000000000017
:0400000508001CA92A
:00000001FF
