:020000040800F2
:1000000000500020653A0008211F0008231F000847
:10001000251F0008271F0008291F000800000000F6
:100020000000000000000000000000002B1F00087E
:100030002D1F0008000000002F1F0008311F0008BE
:10004000AD3A0008AD3A0008AD3A0008AD3A0008F4
:10005000AD3A0008AD3A0008AD3A0008AD3A0008E4
:10006000AD3A0008AD3A0008AD3A0008AD3A0008D4
:10007000AD3A0008AD3A0008AD3A0008AD3A0008C4
:10008000AD3A0008AD3A0008AD3A0008AD3A0008B4
:10009000AD3A0008AD3A0008AD3A0008AD3A0008A4
:1000A000AD3A0008AD3A0008AD3A0008AD3A000894
:1000B000AD3A0008AD3A0008AD3A0008AD3A000884
:1000C000AD3A0008AD3A0008AD3A0008AD3A000874
:1000D000AD3A0008AD3A0008AD3A0008AD3A000864
:1000E000AD3A0008AD3A0008AD3A00080000000043
:1000F0000000000000000000000000000000000000
:0C01000000000000000000005FF808F1A3
:10010C000348044B834202D0034B03B1184770479A
:10011C007000002070000020000000000548064917
:10012C000B1AD90F01EBA301491002D0034B03B1F9
:10013C00184770477000002070000020000000007D
:10014C0010B5064C237843B9FFF7DAFF044B13B113
:10015C000448AFF300800123237010BD7000002011
:10016C0000000000B03A000808B5044B1BB104496C
:10017C000448AFF30080BDE80840CFE70000000062
:10018C0074000020B03A0008014B1868704700BF9B
:10019C000000002070B50D4E0D4D761BB61006D02C
:1001AC00002455F8043B01349847A642F9D1094E76
:1001BC00094D03F077FC761BB61006D0002455F8D9
:1001CC00043B01349847A642F9D170BD183D000894
:1001DC00183D00081C3D0008183D0008830730B589
:1001EC0048D0541E002A3FD00346CAB201E0013C5D
:1001FC003AD303F8012B9D07F9D1032C2DD9CDB29D
:10020C0045EA05250F2C45EA054536D9A4F110021F
:10021C0022F00F0C03F1200EE6444FEA121C03F1FE
:10022C00100242E9045542E9025510327245F8D1E8
:10023C000CF1010214F00C0F03EB021204F00F0C82
:10024C0013D0ACF1040323F003030433134442F83A
:10025C00045B9342FBD10CF003042CB1CAB21C44D6
:10026C0003F8012B9C42FBD130BD64461346002C95
:10027C00F4D1F9E703461446BFE71A46A446E0E773
:10028C000EB410B5044683B008B183695BB106ABFC
:10029C002046059AA168019300F076FD03B0BDE8F5
:1002AC00104003B0704700F081FBF0E70FB410B5BD
:1002BC000A4B82B01C680CB1A3695BB105AB20463C
:1002CC00049AA168019300F05FFD02B0BDE81040F4
:1002DC0004B07047204600F069FBEFE700000020F7
:1002EC0010B5044682B008B1836933B12046A268C8
:1002FC0002B0BDE8104001F089B8019100F056FB46
:10030C000199F3E738B50B4B05461C680CB1A36992
:10031C0033B129462046A268BDE8384001F076B8D2
:10032C00204600F043FB29462046A268BDE8384031
:10033C0001F06CB80000002070B506460D46002890
:10034C0030D0836963B384682C4B9C4234D02C4BE3
:10035C009C423CD02B4B9C4208BFF468A3891B07E2
:10036C002ED5236963B3297839B932E023685A1C36
:10037C002260197015F8011F59B3A368013B002BBB
:10038C00A360F3DAA269934201DB0A29EED122467B
:10039C00304600F041F80130ECD14FF0FF3070BD29
:1003AC0000F004FBB369B468002BCDD1304600F0EB
:1003BC00FDFA124B9C42CAD17468A3891B07D0D496
:1003CC002146304600F08AF80028CCD0E5E7B46826
:1003DC00C4E7A368013B002BA36008DA22460A217C
:1003EC00304600F019F80130D7D00A2070BD0A222F
:1003FC0023681046591C21601A7070BD0C3B000814
:10040C00EC3A0008CC3A0008024B01461868FFF79A
:10041C0093BF00BF00000020F8B506460D461446F9
:10042C0008B1836943B3254B9C422AD0244B9C4290
:10043C0029D0244B9C4208BFF468A269A389A2600E
:10044C001A0722D5236903B322686169D31AEDB266
:10045C0099422F4629DD0133A1680139A160511C55
:10046C002160157062699A4216D0A389DB0701D509
:10047C000A2D11D03846F8BD00F098FA0F4B9C426B
:10048C00D4D17468D9E7B468D7E72146304600F078
:10049C0025F838B92369D7E72146304600F024F90E
:1004AC000028E7D04FF0FF37E4E72146304600F054
:1004BC001BF90028F6D101232268CDE70C3B00087C
:1004CC00EC3A0008CC3A000803460A460249086890
:1004DC001946FFF7A1BF00BF000000203C4B70B5D0
:1004EC001D6806460C460DB1AB69E3B1394B9C4215
:1004FC001FD0394B9C424DD0384B9C4208BFEC6806
:10050C00B4F90C3018079AB219D5216911B312F04D
:10051C0001002FD000256069A5604042A061002930
:10052C002ED0002070BD284600F040FA294B9C428A
:10053C00DFD16C68B4F90C3018079AB2E5D4D10647
:10054C003ED5520728D4216943F00803A3819AB2FF
:10055C000029DCD102F42070B0F5007FD7D0214601
:10056C00304600F087FAB4F90C3021699AB212F0D7
:10057C000100CFD1950758BF6069A0600029D0D188
:10058C00120658BF0846CDD543F040034FF0FF305C
:10059C00A38170BDAC68B3E7616B51B104F1440247
:1005AC00914204D0304600F0F3FAB4F90C3000223A
:1005BC0062630022216923F02403C4E90012C3E71B
:1005CC00092243F0400332604FF0FF30A38170BD2D
:1005DC00000000200C3B0008EC3A0008CC3A000864
:1005EC00F8B58B890C46190707463BD46268002A7C
:1005FC0055DDE66A002E50D000223D683A6013F4B7
:10060C00805250D101233846216AB047421C5CD03D
:10061C00A389E66A5B0705D56368C01A636B0BB1E7
:10062C00236CC01A0246216A00233846B047411C8D
:10063C003BD13B68002B38D01D2B01D0162B4BD156
:10064C0000232269C4E90023616B3D6029B304F1E6
:10065C004403994202D0384600F09AFA0023184617
:10066C006363F8BD2669C6B19A0718BF00232568D5
:10067C0008BF63692660AD1BA3600CE02B463246B5
:10068C00D4F828C03846216AE047B0F1000CA5EB3D
:10069C000C05664412DD002DF0DC0020F8BD226C48
:1006AC00002AA6DCF9E7606DB4E7002223696260DA
:1006BC002360A389DB04C7D56065C5E7A3894FF028
:1006CC00FF3043F04003A381F8BD3B68002B9FD063
:1006DC001D2B06D0162B04D0A38943F04003A38115
:1006EC00F8BD00203D60F8BD38B50B69BBB10C46B8
:1006FC00054608B18369B3B10D4B9C4211D00D4B2B
:10070C009C4213D00C4B9C4208BFEC68B4F90C30E3
:10071C002BB121462846BDE83840FFF761BF0020C9
:10072C0038BD6C68F2E700F041F9E5E7AC68EDE73D
:10073C000C3B0008EC3A0008CC3A000838B540B342
:10074C0003690446E3B1174B1D680DB1AB69CBB11E
:10075C00154B9C420FD0154B9C4221D0144B9C4204
:10076C0008BFEC68B4F90C3053B121462846BDE8FB
:10077C003840FFF735BF6C68B4F90C30002BF4D15E
:10078C00002038BD284600F011F9074B9C42E2D1FD
:10079C00F1E7084B08491868BDE8384000F046B945
:1007AC00AC68DFE7000000200C3B0008EC3A0008C6
:1007BC00CC3A0008C83A0008F5060008002070473B
:1007CC00014900F033B900BFF5060008002070475E
:1007DC00682270B54D1E02FB05F50E4605F174013D
:1007EC0000F03CFA044640B100210C30C4E9016031
:1007FC0005F168022160FFF7F1FC204670BD00BFD7
:10080C00274B2DE9F0411E680746B36953B34FF0EF
:10081C0004084836D6E90134013B04D51EE05A1CC5
:10082C0004F168041AD0B4F90C50013B002DF6D138
:10083C001C4B08222946C4E90055C4E90253C4E9FB
:10084C0004556566A56104F15C00FFF7C7FCC4E9BB
:10085C000D55C4E912552046BDE8F08135682DB11F
:10086C002E46D7E7304600F01FF8D0E74FF4D6718C
:10087C00384600F0F3F9044668B105602946054690
:10088C00C0F804800C304FF4D072A060FFF7A6FCC7
:10089C0034602E46BEE70C2330603B60DBE700BFC4
:1008AC00C83A00080100FFFF0023334A2DE9F04746
:1008BC001268C0E912339042036508BF01232F4927
:1008CC0008BF836181620546FFF79AFF03462846FD
:1008DC006B60FFF795FFA86028460024FFF790FF98
:1008EC0004236E68DFF898A0DFF89890DFF8988002
:1008FC00264FE8600822F3602146C6E90044C6E9A9
:10090C0004447466B460B46106F15C00FFF766FCE5
:10091C001F4BC6E9086AC6E90A983763AE68082215
:10092C00F3602146C6E90044C6E904447466B46029
:10093C00B46106F15C00FFF751FC164BC6E9086A7E
:10094C00C6E90A983763EE682146F3600822C6E9C7
:10095C000044C6E904447466B460B46106F15C00FA
:10096C00FFF73CFC0123C6E9086AC6E90B87C6F809
:10097C002890AB61BDE8F087C83A0008CD070008A5
:10098C004D15000875150008B5150008D51500089B
:10099C000900010012000200024B0349186800F024
:1009AC0045B800BFC83A0008F5060008836903B9CA
:1009BC007AE77047704700BF704700BF704700BFB1
:1009CC00704700BF024B0349186800F00FB800BF16
:1009DC0000000020C9070008024B0349186800F00A
:1009EC0005B800BF00000020D90700082DE9F04130
:1009FC000026884600F14807D7E90154013D0ED482
:100A0C00A389013D012B06D9B4F90E30013302D074
:100A1C002046C04706436B1C04F16804F0D13F68C4
:100A2C00002FE9D13046BDE8F08100BF2DE9F84335
:100A3C004FF000090746884600F14806D6E90154F4
:100A4C00013D10D4A389013D012B08D9B4F90E3016
:100A5C00013304D021463846C04749EA00096B1CD3
:100A6C0004F16804EED13668002EE7D14846BDE8A3
:100A7C00F88300BFF0B58B890C46990797B007D562
:100A8C00012204F14703C4E90432236017B0F0BD1E
:100A9C00B4F90E10054600292DDB6A4600F0C0FDA6
:100AAC00002827DB019E4FF4806706F47046A6F5FC
:100ABC000056B6FA86F639462846760900F0CEF886
:100ACC0030B3A3891A4A43F08003AA62C4E904072D
:100ADC00A3812060002ED9D02846B4F90E1000F066
:100AEC002BFF0028D2D0A38923F0030343F001038A
:100AFC00A381CBE7A38913F0800F14BF40274FF4D9
:100B0C00806728463946002600F0A8F80028D8D17E
:100B1C00B4F90C309A05B9D4012123F0030304F184
:100B2C00470243F00203C4E90421A3812260ADE72C
:100B3C00CD07000870B50C46B1F90E101646002909
:100B4C001D4696B013DB6A4600F06AFD00280EDBEA
:100B5C0001994FF4806301F47041A1F50051B1FA91
:100B6C0081F1002049092960336016B070BD002264
:100B7C00B4F90C302A601B0604D5402300203360E6
:100B8C0016B070BD4FF480630020336016B070BD9A
:100B9C00002952D038B551F8043C0C1F002BB8BFBB
:100BAC00E418054601F02AF82B4A1368002B45D0AF
:100BBC00A3420CD921686018834228D06360284670
:100BCC001460BDE8384001F01BB8A3420FD81A4698
:100BDC005B68002BF9D11168501884421DD034D3B6
:100BEC00636054602846BDE8384001F009B81168CC
:100BFC005018A04215D028D8216860188342EFD134
:100C0C0018685B680144C4E900135460EAE718688B
:100C1C005B680144C4E90013D1E7236819441160EF
:100C2C00E0E720680144501883421160DAD1D3E91F
:100C3C0000030144C2E90013D4E7704728466360FF
:100C4C001460BDE8384000F0DBBF0C2328462B6055
:100C5C00BDE8384000F0D4BF8C000020F8B5CD1CA6
:100C6C0025F0030508350C2D38BF0C25002D064644
:100C7C0023DBA94221D8264F00F0C0FF3A6822B3EB
:100C8C00144603E063682246FBB11C4623685B1BD9
:100C9C00F8D40B2B15D8636894420CBF3B6053609F
:100CAC00304600F0ADFF04F10B00231D20F00700CF
:100CBC00C21A01D01B1AA350F8BD0C2300203360BC
:100CCC00F8BD23601C442560EAE77968D1B1294658
:100CDC00304600F023FC431C01460CD0C41C24F00D
:100CEC000304A04205D03046611A00F017FC013015
:100CFC0001D02560D4E70C233046336000F080FF30
:100D0C000020F8BD304600F009FC7860DFE700BF3A
:100D1C008C0000209368013B002B936005DAD2F81D
:100D2C0018C0634507DB0A2905D01368581C1060EE
:100D3C00084619707047FFF76FBB00BF9BB1F8B541
:100D4C00134406460F46541E5D1E01E0AC4208D00B
:100D5C003A46304614F8011FFFF7DCFF431CF5D16F
:100D6C00F8BD0020F8BD0020704700BF936810B597
:100D7C00144613B91846536010BD00F065FC0023EF
:100D8C00C4E9013310BD00BF2DE9F04F0E46924669
:100D9C001C4607469FB018B18369002B00F0A88051
:100DAC00954B9E4200F0AA80944B9E4200F0B58079
:100DBC00934B9E4208BFFE68B389180740F1A3808D
:100DCC003369002B00F09F80002320220B933023EB
:100DDC009AF80010059401258A4C8DF831208DF875
:100DEC00323000297DD0D1460B4604E019F8013F82
:100DFC00002B00F09480252BF8D1B9EB0A0B40F0B6
:100E0C00918099F80030002B6BD000234FF0FF320B
:100E1C0009F10109CDE90723069309938DF85B309D
:100E2C001C9304E0001B05FA00F018430690CA4618
:100E3C000522204619F8011B00F0A6FD069B002890
:100E4C00F0D1D90644BF20228DF85B201A0748BF89
:100E5C002B229AF8001048BF8DF85B202A2972D1FA
:100E6C00059A1168043200290592C0F2A0800991FC
:100E7C009AF801100AF1010A2E2976D0DFF8889130
:100E8C000322484600F080FD48B14022069BA0EBAF
:100E9C00090002FA00F003430AF1010A06931AF85A
:100EAC00011B062259488DF8301000F06DFD00280A
:100EBC0000F08380564B002B6CD005A90091324674
:100ECC003846544B06A9AFF300800390039B0133C3
:100EDC0007D00B9B039A9AF8001013440B9300292C
:100EEC0081D1B3895B0615D40B981FB0BDE8F08F88
:100EFC00FFF75CFD404B9E427FF456AF7E68B38992
:100F0C0018073FF55DAF31463846FFF7E7FA002882
:100F1C003FF45AAF4FF0FF30E7E7BE684CE7B9EB50
:100F2C000A0BDED0D046CAF1010A03E0934538D94A
:100F3C0018F8011F32463846FFF7ECFE01300AEB79
:100F4C000802F3D1CDE7A1F13002092A94D8099B0C
:100F5C001AF8011F03EB830302EB4303A1F13002E8
:100F6C00092AF5D92E29099388D19AF801102A2932
:100F7C002DD1059B0AF102001A680433002A05934F
:100F8C00B8BF4FF0FF339AF8021007928246B8BFF1
:100F9C00079373E7059B073323F007030833059387
:100FAC0097E70B9A99F800305A440B922BE7494279
:100FBC0043F00203099106935AE705A900913246C2
:100FCC003846144B06A900F0CBF803907EE70023BB
:100FDC00A1F13002092A0AF1010A07933FF64EAF3C
:100FEC001AF8011F03EB830302EB4303A1F1300258
:100FFC00092AF5D9079341E70C3B0008EC3A0008A5
:10100C00CC3A0008DC3C0008E43C0008E83C000852
:10101C0000000000490D00088C4600B586461346BA
:10102C00034A714610685DF804EB6246FFF7ACBEEC
:10103C00000000202DE9F04791461E460A698B6896
:10104C000C469A42B8BF1A46C9F8002091F84330B2
:10105C000546DDF8208013B10132C9F80020226862
:10106C0091065DD5D9F800300233C9F800302268FA
:10107C0012F0060F11461ED1E168CB1A002BD8BF17
:10108C00114618DD002704F1190A06E0D9F80030E2
:10109C00E268A2EB030CBC450CDD01235246314641
:1010AC002846C047013007F10107EFD14FF0FF3060
:1010BC00BDE8F087216894F84330003B18BF01234A
:1010CC008A060AD53021E21882F8431094F84510AC
:1010DC005A1C2244023382F843103146284604F14C
:1010EC004302C0470130E1D0236803F00603042B10
:1010FC001DD0A3682269934225DD00279B1A1F444B
:10110C0004F11A09002401E0BC421CDA01234A460E
:10111C0031462846C047013004F10104F4D1C5E73B
:10112C0012F0060F12D0003B18BF0123D5E7D9F8F7
:10113C000030E1682269C91AA36821EAE177934279
:10114C00DCDC0029DCDC0020BDE8F087E168D9F8A4
:10115C000030CB1A002BD8BF114693DCABE700BF95
:10116C002DE9F04317460A7E85B00C460646984694
:10117C000C9D01F1430C002A33D0A2F15803D9B2D3
:10118C00202967D8202B65D8DFE813F0DD00640038
:10119C006400640064006400640064006400640023
:1011AC006400A3006E0064006400640064006E00C0
:1011BC00640064006400640021007F00BF006400D0
:1011CC006400AE0064007F0064006400E4002368E7
:1011DC001A0640F102812B686269191D29601B688F
:1011EC001A600023E14623613B4621463046CDF888
:1011FC00008003AAFFF71EFF013020D04A46394673
:10120C0030462369C047013019D02368E0689B073A
:10121C00039919D5431A002B16DD002504F1190981
:10122C0004E0E0680399431AAB420DDD01234A4602
:10123C0039463046C047013005F10105F1D14FF078
:10124C00FF3005B0BDE8F0838842B8BF084605B052
:10125C00BDE8F083012384F8422004F142092361A4
:10126C00002384F84330BFE72368190602D45A06DA
:10127C0000F1BF8029680A68043129601146002AF0
:10128C006ADB0A25DFF87CE110E02368180640F1E0
:10129C009A802B68191D296019686F2A0CBF0825C4
:1012AC000A25DFF860E1002384F843306268002AE5
:1012BC00A2607DDB236823F004032360002959D14D
:1012CC00002A77D1E146082D63D0ACEB09032361EA
:1012DC008AE701222B6804F14209196804332B6058
:1012EC0084F842102261BBE72B6800211A1D2A608A
:1012FC00D3F800906268484600F046FB00287FD087
:10130C00A0EB090060602061AAE7236843F020038A
:10131C0023607822DFF8F0E084F845202A68111D5C
:10132C002960190642D45D0640D51188D80744BF00
:10133C0043F020032360002943D12368102523F0B8
:10134C0020032360AFE75823DFF8B8E084F845307A
:10135C002368E3E72368DCE72D2284F843206268E6
:10136C004942002AA26002DB23F0040323600A2511
:10137C00DFF890E0E146B1FBF5F30A4605FB1310EC
:10138C0019461EF80030AA4209F8013DF3D2082D87
:10139C009BD12368D90798D5626823699A4294DC5B
:1013AC00302309F1FF3989F800308EE71168BDE769
:1013BC000029DFD19EF8003004F1420984F8423054
:1013CC0081E710256FE713F0400F2B6803F1040140
:1013DC0029600CBF196819885FE713F0400F2B6860
:1013EC00626903F1040129601B6814BF1A801A603A
:1013FC00F7E62A68B2F9001004322A600A463EE782
:10140C00606880E7F03C0008043D000870B50546B4
:10141C000E46144608B18369CBB11A4B9C421BD0C3
:10142C00194B9C4224D0194B9C4208BFEC68A36812
:10143C00013B002BA36015DAA26993421ADBF0B2D0
:10144C000A2817D023685A1C22601E7070BDFFF743
:10145C00ADFA0C4B9C42E3D16C68A368013B002BAA
:10146C00A360E9DB2368F0B25A1C22601E7070BDC9
:10147C00AC68DCE7224631462846BDE87040FEF7F2
:10148C00CBBF00BF0C3B0008EC3A0008CC3A00087C
:10149C001E4B70B51E6805460C460EB1B369CBB138
:1014AC001B4B9C421CD01B4B9C4225D01A4B9C4284
:1014BC0008BFF468A368013B002BA36016DAA2698D
:1014CC0093421BDBE8B20A2818D023685A1C22600E
:1014DC001D7070BD3046FFF769FA0D4B9C42E2D18E
:1014EC007468A368013B002BA360E8DB2368E8B2B7
:1014FC005A1C22601D7070BDB468DBE72246294679
:10150C003046BDE87040FEF787BF00BF00000020EA
:10151C000C3B0008EC3A0008CC3A0008002238B525
:10152C00064D044608462A6002F012F9431C00D00E
:10153C0038BD2B68002BFBD0236038BD94000020F5
:10154C0010B50C46B1F90E1000F084FB002803DB3B
:10155C00636D0344636510BDA38923F48053A38199
:10156C0010BD00BF002070472DE9F0410C46B1F9C9
:10157C000C101F46CB05054616460BD421F48051A2
:10158C00A1813B4632462846B4F90E10BDE8F04125
:10159C0000F01EB8B4F90E100223002200F0DEF9A0
:1015AC00B4F90C10EAE700BF10B50C46B1F90E10F7
:1015BC0000F0D4F9A389421C0EBF23F4805343F4EA
:1015CC0080536065A38110BDB1F90E1000F016B800
:1015DC0038B50C46114600228446074D20462A6039
:1015EC001A46644600F056FB431C00D038BD2B68ED
:1015FC00002BFBD0236038BD94000020002238B5AE
:10160C00064D044608462A6002F0D6F8431C00D06A
:10161C0038BD2B68002BFBD0236038BD9400002014
:10162C0070B50026074D0446084611462E6002F0A0
:10163C00C6F8431C00D070BD2B68002BFBD0236078
:10164C0070BD00BF940000209368002B00F0B780A1
:10165C002DE9F04FB1F90C300C46190780461746AE
:10166C0083B098B225D523691BB310F002033D68F3
:10167C002DD04FF0000B5E46DFF8B8A2002E00F024
:10168C008B80564533465A4628BF53464046216AFE
:10169C00D4F828C0E047002840F38780BB68834417
:1016AC001B1A361ABB60002BE8D1002003B0BDE832
:1016BC00F08F21464046FEF711FF002840F036819E
:1016CC00B4F90C303D6898B210F00203D1D110F08F
:1016DC00010976D14E46002E5AD08205D4F808B0B6
:1016EC0040F1B580B3455A4600F2CD8010F4906FAE
:1016FC0000F0CB8023682169A3EB010B636903EB3A
:10170C00430A0AEBDA7A0BF101034FEA6A0A334413
:10171C005345524684BF9A465246430540F1EA80EF
:10172C0011464046FFF79AFA002800F0F9805A4615
:10173C002169019000F070F9A289019B22F490625A
:10174C0042F08002A28103EB0B0023613246AAEB2C
:10175C000B03B346C4F814A0A3602060B246002665
:10176C004946019200F0CEF9A3682168019AA3EBD7
:10177C000B030A44A3602260B868D144A0EB0A00B2
:10178C00B860002891D0B4F90C0080B2002EA4D11E
:10179C00D5E9009608359EE7D5E900B608356DE722
:1017AC0021464046FEF7A0FF80B3B4F90C304FF051
:1017BC00FF3043F04003A38103B0BDE8F08F00205D
:1017CC0070471E46AA46994618461D4656B3002831
:1017DC0032D04A4620682169B24228BF324688423C
:1017EC00636904D9A16803EB010B5A4574DC93427D
:1017FC0065DC2A464046216AD4F828C0E047B0F19F
:10180C00000BD2DDB9EB0B09CAD00120BB685D44DB
:10181C00A3EB0B03A6EB0B06BB60002B3FF445AF11
:10182C00002ED4D10AF1080353F8046C9A4653F8ED
:10183C00085C0833002EF7D032460A21284600F007
:10184C00A3F8002869D00130A0EB0509C1E7206896
:10185C00236998421BD86369B34218D86FF0004CC7
:10186C00B44528BFB4469CFBF3FC4A4603FB0CF37F
:10187C004046216AD4F828C0E047B0F1000A94DD54
:10188C00A6EB0A0678E7B3463246206866E7B3450E
:10189C00DA4628BFB2464946524600F033F9A368EF
:1018AC002268A3EB0A035244A3602260002BE7D109
:1018BC0021464046FEF718FF0028E1D075E729467F
:1018CC009346019200F01EF9A368019A9B1AA3603B
:1018DC0023681A44226095E729465A4600F012F90B
:1018EC00236821465B4440462360FEF7FDFE00283A
:1018FC0088D05AE7404600F085F9034600287FF46B
:10190C0022AF40462169FFF743F90C22B4F90C30A1
:10191C00C8F8002023F0800349E7721C914659E770
:10192C000C22B4F90C30C8F8002040E74FF0FF301F
:10193C00BCE600BF00FCFF7F002238B5064D044614
:10194C0008462A6001F040FF431C00D038BD2B68CC
:10195C00002BFBD0236038BD9400002038B50C461A
:10196C00114600228446074D20462A601A466446DA
:10197C0001F02CFF431C00D038BD2B68002BFBD092
:10198C00236038BD940000205FFA81FC810710D0E1
:10199C000346511E2AB90AE09A0718460AD00139A3
:1019AC0005D3184613F8012B6245F5D1704700207A
:1019BC007047114603290CD80029F8D0034601447E
:1019CC0001E08B42F3D0184613F8012B6245F8D195
:1019DC00ECE7024610B54CEA0C2444EA04441046E9
:1019EC00036804326340A3F1013E2EEA030313F0B3
:1019FC00803F04D1043903291046F0D851B1034675
:101A0C00014401E08B4205D0184613F8012B6245C6
:101A1C00F8D110BD002010BD844641EA000313F03C
:101A2C00030349D1403A23D30B6803604B684360EE
:101A3C008B688360CB68C3600B6903614B6943613E
:101A4C008B698361CB69C3610B6A03624B6A436226
:101A5C008B6A8362CB6AC3620B6B03634B6B43630E
:101A6C008B6B8363CB6BC36340304031403ADBD22A
:101A7C0030320BD30B6803604B6843608B68836018
:101A8C00CB68C36010301031103AF3D20C3205D34E
:101A9C0051F8043B40F8043B043AF9D2043208D024
:101AAC00D2071CBF11F8013B00F8013B01D30B8896
:101ABC0003806046704700BF082A13D38B07B1D050
:101ACC0010F00303AED0C3F10403D21ADB071CBF22
:101ADC0011F8013B00F8013BA4D331F8023B20F88C
:101AEC00023B9FE7043AD9D3013A11F8013B00F8C5
:101AFC00013BF9D20B7803704B7843708B78837071
:101B0C006046704788420DD98B1883420AD900EB86
:101B1C00020CBAB1624613F801CD994202F801CD1C
:101B2C00F9D170470F2A0ED8034602F1FF3C4AB197
:101B3C000CF1010C013B8C4411F8012B614503F8AD
:101B4C00012FF9D1704740EA01039B074FD1A2F155
:101B5C00100370B501F1200C23F00F0501F1100EEC
:101B6C0000F11004AC441B095EF8105C0EF1100E71
:101B7C0044F8105C5EF81C5C103444F81C5C5EF895
:101B8C00185C44F8185C5EF8145CE64544F8145C88
:101B9C00EAD1013312F00C0F01EB031102F00F0428
:101BAC0000EB031327D08E46043C24F003064FEAC7
:101BBC00940C1E441C1F5EF8045B44F8045FB44292
:101BCC00F9D10CF1010402F0030203EB840301EBE5
:101BDC00840102F1FF3C4AB10CF1010C013B8C4435
:101BEC0011F8012B614503F8012FF9D170BD0346A3
:101BFC0002F1FF3C9CE72246EBE700BF704700BFB9
:101C0C00704700BFF8B51446F9B1CAB106460D4687
:101C1C0000F036F8A04202D32F463846F8BD2146D4
:101C2C003046FFF71BF807460028F6D02246294617
:101C3C00FFF7F2FE30462946FEF7AAFF3846F8BDFC
:101C4C002746FEF7A5FF3846F8BD1146BDE8F8401B
:101C5C00FFF704B838B50C46114600228446074DF0
:101C6C0020462A601A46644601F096FD431C00D0BB
:101C7C0038BD2B68002BFBD0236038BD94000020AE
:101C8C0051F8040C0028A0F10400BCBF0B58C0187C
:101C9C00704700BF10B514464FF0FF3392B20248A4
:101CAC0001F0EFFC204610BDEC00002072B6FEE700
:101CBC0000B591B02822002106A8FEF78FFA002368
:101CCC0001930293039304930593012306934FF41A
:101CDC008033079306A800F063FF70B90F230193BC
:101CEC0001230293002103910491059101A801F0B5
:101CFC0089F920B911B05DF804FBFFF7D7FFFFF7A6
:101D0C00D5FF08B500F0FEFEFFF7D2FF00F018F883
:101D1C0000F052F800F0A0F801F09AFE01F0FEFD80
:101D2C0040F6B83000F012FF01F00CFE4FF47A7060
:101D3C0000F00CFF01F040FE01F0FAFDEEE70000B0
:101D4C0030B589B000240494059406940794184B7C
:101D5C009A6942F020029A619A6902F0200201927B
:101D6C00019A9A6942F004029A619A6902F004029B
:101D7C000292029A9A6942F008029A619B6903F0F6
:101D8C0008030393039B0B4D22464FF4F251284654
:101D9C0001F026FB4FF4F2530493012305930694B0
:101DAC000223079304A9284601F008FA09B030BDB4
:101DBC00001002400008014008B50B480B4B0360B3
:101DCC000B4B436000238360C3604FF4804202617D
:101DDC0043618361C361036200F028FB00B908BD55
:101DEC00FFF764FFFBE700BF98000020005800409D
:101DFC00A086010010B586B00023029303930493D0
:101E0C0005930268114B9A4201D006B010BD104CDC
:101E1C00A36943F00803A361A36903F008030093CB
:101E2C00009B4FF440630293122303930323059307
:101E3C0002A9084801F0C2F9E36943F48003E361A5
:101E4C00E36903F480030193019BDEE70058004033
:101E5C0000100240000C014008B50A480A4B036010
:101E6C004FF4E133436000238360C36003610C22B1
:101E7C0042618361C36101F0D4FB00B908BDFFF777
:101E8C0015FFFBE7EC0000200038014010B586B0D0
:101E9C000023029303930493059302681A4B9A420E
:101EAC0001D006B010BD03F558439A6942F4804244
:101EBC009A619A6902F480420092009A9A6942F0FF
:101ECC0008029A619B6903F008030193019B40236C
:101EDC00029302230393032305930C4C02A920467F
:101EEC0001F06CF98023029300230393049302A95D
:101EFC00204601F063F9064A536843F0E06343F06F
:101F0C0004035360CDE700BF00380140000C0140D2
:101F1C0000000140FEE7FEE7FEE7FEE7FEE7704744
:101F2C007047704708B500F0FFFD08BD82B00E4B3E
:101F3C009A6942F001029A619A6902F001020092D8
:101F4C00009ADA6942F08052DA61DB6903F080535F
:101F5C000193019B054A536823F0E06343F000733F
:101F6C00536002B0704700BF0010024000000140F7
:101F7C0003685A6912F4806F01D1002070476FF426
:101F8C0080625A6100230363202280F83D2080F890
:101F9C003E30026C42F00402026480F83C300120B6
:101FAC0070472DE9F04106460C46174698463BE033
:101FBC0000F0C6FD069BC01A404502D8B8F1000FD0
:101FCC0032D1012D18D033689B6924EA03039BB2EC
:101FDC00B3FA83F35B099F4226D10023336320229B
:101FEC0086F83D2086F83E30326C42F02002326496
:101FFC0086F83C30012027E033685B6924EA030350
:10200C009BB2B3FA83F35B09E5E733685B6924EAB7
:10201C00030C1FFA8CFCBCFA8CFC4FEA5C1C674569
:10202C0011D1B8F1FF3FC3D1C4F30745012DECD05A
:10203C0033689B6924EA030C1FFA8CFCBCFA8CFCF9
:10204C004FEA5C1CEBE70020BDE8F0812DE9F8437A
:10205C0005460E469046994653E01A6842F40072C3
:10206C001A602B686FF480625A6100232B63202264
:10207C0085F83D2085F83E302A6C42F004022A6433
:10208C0085F83C3001204AE000F05AFDA0EB090035
:10209C00404502D8B8F1000F33D1012F17D02B686F
:1020AC009B6926EA03039BB2003B18BF012343B391
:1020BC0000232B63202285F83D2085F83E302A6CC6
:1020CC0042F020022A6485F83C30012027E02B687E
:1020DC005B6926EA03039BB2003B18BF0123E6E7CA
:1020EC002B689C6926EA0404A4B2003C18BF0124A6
:1020FC00A4B12B685A6912F4806FAED1B8F1FF3FCE
:10210C00C2D1C6F30747012FEAD12B685C6926EAD6
:10211C000404A4B2003C18BF0124E9E70020BDE888
:10212C00F8830000F0B583B004460D4616461F46F2
:10213C00C36A082B0DD0012B0BD013F5803F08D0B0
:10214C00036B122B0AD10268136843F4807313607B
:10215C0004E02268136843F48073136000973346DD
:10216C0000224FF001112046FFF71BFF80B92369B5
:10217C00B3F5804F16D1236805F0FE051D613B4673
:10218C00324613492046FFF761FFF8B903B0F0BDA2
:10219C0023681B6813F4807F02D04FF40073236410
:1021AC000320F3E7EB11226803F0060343F0F0037E
:1021BC0013613B46324607492046FFF747FF18B9E3
:1021CC002368EDB21D61DAE70120DFE70120DDE7CE
:1021DC0002000100080001002DE9F04184B0044622
:1021EC000D4616461F46C26A01680B6843F48063AD
:1021FC000B60082A0DD0012A0BD012F5803F08D0B5
:10220C00036B112B0AD10268136843F480731360BB
:10221C0004E02268136843F480731360009733461C
:10222C0000224FF001112046FFF7BBFE98B923693D
:10223C00B3F5804F19D1236845F00105EDB21D614E
:10224C003B4632462A492046FFF700FF00284CD176
:10225C0004B0BDE8F08123681B6813F4807F02D0C2
:10226C004FF4007323640320F2E74FEAE51808F0FB
:10227C000608236848F0F0021A613B4632461D49B5
:10228C002046FFF7E3FE08B10120E1E72368EDB239
:10229C001D613B46324616492046FFF7D7FE08B172
:1022AC000120D5E7002203922368596903919969AB
:1022BC0003910399196841F48071196000973346B2
:1022CC004FF001112046FFF76CFE20B9226848F050
:1022DC00F1031361B4E723681B6813F4807F02D009
:1022EC004FF4007323640320B2E70120B0E700BF72
:1022FC00020001000800010070B504460D461646A8
:10230C0023685B6913F0800F21D12046FFF730FE64
:10231C00F8B9B5F1FF3FF3D000F012FC801BA842D6
:10232C0001D8002DECD123685B6913F0800FE7D145
:10233C0000232363202284F83D2084F83E30226C55
:10234C0042F02002226484F83C30012000E000209E
:10235C0070BD0120FCE770B504460D461646236897
:10236C005B6913F0040F21D12046FFF701FEF8B989
:10237C00B5F1FF3FF3D000F0E3FB801BA84201D87E
:10238C00002DECD123685B6913F0040FE7D1002317
:10239C002363202284F83D2084F83E30226C42F0E6
:1023AC002002226484F83C30012000E0002070BD43
:1023BC000120FCE770B504460D46164614E06FF09C
:1023CC0010025A6100232363202284F83D2084F8F4
:1023DC003E30226C226484F83C30012025E02368D6
:1023EC005B6913F0400F10D02368586910F0400F50
:1023FC001AD1586910F0100FE1D100F0A1FB801B2D
:10240C00A842ECD8002DEFD1E9E70023236320226A
:10241C0084F83D2084F83E30226C42F02002226485
:10242C0084F83C30012000E0002070BD002800F052
:10243C00CC8070B5044690F83D30002B77D0242327
:10244C0084F83D302268136823F00103136022687E
:10245C00136843F4004313602268136823F40043A9
:10246C00136000F08BFE62685A4B9A4264D85A4B48
:10247C0098428CBF00230123002B40F0A8805749C1
:10248C00A1FB00318B0C25686A6822F03F0242EAFE
:10249C0091426A6021680A6A22F03F0266684D4DDB
:1024AC00AE424FD8013313430B622168CA6922F440
:1024BC004F4222F0FF026668464B9E424CD8431EA8
:1024CC007600B3FBF6F3013340F6FC70034278D090
:1024DC00C3F30B031343CB6121680B6823F0C003D8
:1024EC00E269206A024313430B6021688B6823F472
:1024FC00034323F0FF032269E068024313438B601C
:10250C002168CB6823F0FF036269A069024313437F
:10251C00CB602268136843F0010313600020206431
:10252C00202384F83D30206384F83E0070BD80F891
:10253C003C30FFF75FFC82E7294B98428CBF0023AD
:10254C00012399E74FF4967505FB03F3254DA5FB85
:10255C0003539B090133A6E7A368BBB9451E06EBE1
:10256C00460CB5FBFCF50135C5F30B05B5FA85F545
:10257C006D0945BBC3B9013806EB4603B0FBF3F359
:10258C000133C3F30B0343F40043A3E7451E06EBEF
:10259C00860C0CEB8C0CB5FBFCF50135C5F30B056F
:1025AC00B5FA85F56D09E4E7013806EB860303EB14
:1025BC008303B0FBF3F30133C3F30B0343F4404346
:1025CC0088E7042386E7012384E701207047012074
:1025DC00ACE700BFA08601007F841E0083DE1B4396
:1025EC00FF083D00D34D62102DE9F04385B0044641
:1025FC000F46914698460C9E00F0A2FA054694F8B8
:10260C003D00C0B2202804D00227384605B0BDE8F2
:10261C00F0830095192301224F492046FFF7C1FC96
:10262C00002840F0928094F83C30012B00F08F8011
:10263C00012384F83C3023681A6812F0010F03D18F
:10264C001A6842F001021A602268136823F40063CE
:10265C001360212384F83D30102384F83E3000238E
:10266C002364C4F82490A4F82A80638D23853B4B03
:10267C00E3622B46324639462046FFF753FD0746A8
:10268C00002866D10023039323685A6903929B693F
:10269C000393039B11E0236C042B01D00127B4E7B7
:1026AC002268136843F400731360F7E72A46314637
:1026BC002046FFF750FE00282ED1238D002B36D05C
:1026CC002A4631462046FFF717FE0028E3D1626AFE
:1026DC00236812781A61606A431C6362618D89B247
:1026EC00013989B26185238D013B9BB22385226818
:1026FC00516911F0040FD9D0002BD7D04378136156
:10270C00636A01336362638D9BB2013B9BB2638549
:10271C00238D013B2385C9E7236C042B01D00127B2
:10272C0073E72268136843F400731360F7E72268B9
:10273C00136843F400731360202384F83D300023A6
:10274C0084F83E3084F83C305FE702275DE70227CF
:10275C005BE7012759E700BF020010000000FFFFF4
:10276C002DE9F04389B004460F4691469846109ED9
:10277C000023079300F0E4F9054694F83D00C0B23D
:10278C00202804D00227384609B0BDE8F083009514
:10279C001923012280492046FFF703FC002840F052
:1027AC007A8194F83C30012B00F07781012384F876
:1027BC003C3023681A6812F0010F03D11A6842F0FA
:1027CC0001021A602268136823F400631360222349
:1027DC0084F83D30102384F83E3000232364C4F881
:1027EC002490A4F82A80638D23856C4BE3622B46DE
:1027FC00324639462046FFF7EFFC0746002840F0EA
:10280C004E81238D5BB9039323685A6903929A69AD
:10281C000392039A1A6842F400721A60F3E0012BD7
:10282C000FD0022B21D02268136843F4806313600D
:10283C000023069323685A6906929B690693069BAC
:10284C00E1E02268136823F48063136072B60023FE
:10285C00049323685A6904929A690492049A1A6838
:10286C0042F400721A6062B6CDE02268136843F439
:10287C000063136072B60023059323685A690592AE
:10288C009A690592059A1A6822F480621A6062B6F7
:10289C00B9E02A4631462046FFF78CFD002840F06F
:1028AC00008123681A69636A1A70636A0133636270
:1028BC00238D013B2385638D9BB2013B9BB26385CA
:1028CC00A1E000953346002235492046FFF769FB0D
:1028DC00002840F0EA802268136823F480631360B8
:1028EC0072B623681A69636A1A70636A0133636289
:1028FC00238D013B2385638D9BB2013B9BB263858A
:10290C00284B1B68DB08284AA2FB03231B0A03EB9A
:10291C008303C3EBC3030793079901390791079905
:10292C00002928D023685A6912F0040FF4D01A68D1
:10293C0042F400721A6023681A69636A1A70636A37
:10294C0001336362238D013B2385638D9BB2013B75
:10295C009BB2638562B623681A69636A1A70636AEC
:10296C0001336362238D013B2385638D9BB2013B55
:10297C009BB2638547E000232363202284F83D202B
:10298C0084F83E30226C42F02002226462B684F855
:10299C003C300127F7E600BF020010000000FFFFEB
:1029AC00040001006C00002089B5F8142A46314659
:1029BC002046FFF7FFFC002879D123681A69636A67
:1029CC001A70636A01336362228D013A92B22285D6
:1029DC00638D9BB2013B9BB263852368596911F0EF
:1029EC00040F10D0032A48D023681A69636A1A703E
:1029FC00636A01336362238D013B2385638D9BB234
:102A0C00013B9BB26385218D00293BD00329CDD896
:102A1C0001293FF43EAF02297FF453AF00953346B2
:102A2C00002224492046FFF7BCFA00283BD172B69D
:102A3C002268136843F40073136023681A69636A8D
:102A4C001A70636A01336362238D013B2385638DA6
:102A5C009BB2013B9BB2638562B623681A69636AB9
:102A6C001A70636A01336362238D013B2385638D86
:102A7C009BB2013B9BB26385C5E71A6822F4806266
:102A8C001A60B1E7202384F83D30002384F83E30EF
:102A9C0084F83C3077E6022775E6022773E60127B7
:102AAC0071E601276FE601276DE601276BE601272A
:102ABC0069E600BF0400010010B504460E4B1878FF
:102ACC004FF47A73B3FBF0F30C4A1068B0FBF3F0DD
:102ADC0000F0D6FC68B90F2C01D901200AE00022C5
:102AEC0021464FF0FF3000F093FC054B1C6000209A
:102AFC0000E0012010BD00BF640000206C0000202D
:102B0C006800002008B5074A136843F010031360EF
:102B1C00032000F06BFC0F20FFF7CEFFFFF706FA47
:102B2C00002008BD00200240034A1168034B1B78AB
:102B3C000B441360704700BF340100206400002078
:102B4C00014B1868704700BF3401002038B50446AB
:102B5C00FFF7F6FF0546B4F1FF3F02D0044B1B789C
:102B6C001C44FFF7EDFF401BA042FAD338BD00BF59
:102B7C006400002082B0084B1B68084AA2FB0323A8
:102B8C005B0A00FB03F3019300BF019B5A1E0192E9
:102B9C00002BF9D102B070476C000020D34D6210AD
:102BAC00002800F0F18170B582B00446036813F080
:102BBC00010F2CD0994B5B6803F00C03042B1DD038
:102BCC00964B5B6803F00C03082B12D06368B3F5CB
:102BDC00803F41D0002B55D103F1804303F50433E2
:102BEC001A6822F480321A601A6822F480221A6061
:102BFC0037E08A4B5B6813F4803FE7D0874B1B6848
:102C0C0013F4003F03D06368002B00F0BF812368EE
:102C1C0013F0020F75D0814B5B6813F00C0F5FD073
:102C2C007E4B5B6803F00C03082B54D02369002BFC
:102C3C0000F08A807A4B01221A60FFF781FF05466B
:102C4C00764B1B6813F0020F75D1FFF779FF401B11
:102C5C000228F5D903209EE1704A136843F48033AF
:102C6C001360636843B3FFF76BFF05466B4B1B6840
:102C7C0013F4003FCBD1FFF763FF401B6428F5D959
:102C8C00032088E1B3F5A02F09D0644B1A6822F415
:102C9C0080321A601A6822F480221A60E1E703F18C
:102CAC008043A3F53C331A6842F480221A601A68F8
:102CBC0042F480321A60D4E7FFF742FF0546574BC7
:102CCC001B6813F4003FA2D0FFF73AFF401B6428A7
:102CDC00F5D903205FE1514B5B6813F4803FA5D11C
:102CEC004E4B1B6813F0020F03D02369012B40F0ED
:102CFC004F814A4A136823F0F803616943EAC10320
:102D0C001360236813F0080F33D0A369002B5CD039
:102D1C00434B0122C3F88024FFF712FF05463F4BBB
:102D2C005B6A13F0020F21D1FFF70AFF401B022848
:102D3C00F5D903202FE1394A136823F0F8036169B0
:102D4C0043EAC1031360DCE7354B00221A60FFF73E
:102D5C00F7FE0546314B1B6813F0020FD1D0FFF77D
:102D6C00EFFE401B0228F5D9032014E10120FFF7E8
:102D7C0001FF236813F0040F00F09680274BDB69EA
:102D8C0013F0805F34D1254BDA6942F08052DA615E
:102D9C00DB6903F080530193019B0125214B1B68D8
:102DAC0013F4807F26D0E368012B3DD0002B53D148
:102DBC0003F1804303F504331A6A22F001021A620C
:102DCC001A6A22F004021A6233E0154B0022C3F88F
:102DDC008024FFF7B5FE0546104B5B6A13F0020F1B
:102DEC00C7D0FFF7ADFE401B0228F5D90320D2E077
:102DFC000025D3E70B4A136843F480731360FFF785
:102E0C009FFE0646074B1B6813F4807FCBD1FFF760
:102E1C0097FE801B6428F5D90320BCE0001002400B
:102E2C0000004242007000405F4A136A43F0010305
:102E3C001362E36833B3FFF783FE06465A4B1B6AF3
:102E4C0013F0020F2FD1FFF77BFE801B41F288336A
:102E5C009842F3D903209EE0052B09D0524B1A6AF5
:102E6C0022F001021A621A6A22F004021A62E0E7E6
:102E7C004D4B1A6A42F004021A621A6A42F00102BD
:102E8C001A62D6E7FFF75CFE0646474B1B6A13F047
:102E9C00020F08D0FFF754FE801B41F28833984292
:102EAC00F3D9032077E0E5B9E369002B72D03E4AF1
:102EBC00526802F00C02082A56D0022B17D03B4B5A
:102ECC0000221A66FFF73CFE0446374B1B6813F0D2
:102EDC00007F47D0FFF734FE001B0228F5D90320F2
:102EEC0059E0314AD36923F08053D361DCE72F4B8F
:102EFC0000221A66FFF724FE05462B4B1B6813F0C5
:102F0C00007F06D0FFF71CFE401B0228F5D90320DA
:102F1C0041E0236AB3F5803F1AD023494B6823F470
:102F2C007413226A606A024313434B601F4B0122E5
:102F3C001A66FFF705FE04461B4B1B6813F0007F57
:102F4C000ED1FFF7FDFD001B0228F5D9032022E06E
:102F5C00154A536823F40033A1680B435360DCE734
:102F6C00002018E0002016E0012B16D00E4B5B68F9
:102F7C0003F48031226A914211D103F47013626A16
:102F8C0093420ED1002006E001207047012002E0A0
:102F9C00012000E0002002B070BD0120FBE7012001
:102FAC00F9E70120F7E700BF0010024000004242A1
:102FBC000F4B5B6803F00C02082A01D00D487047D8
:102FCC00C3F383420C49885C13F4803F0BD0084B4D
:102FDC005B68C3F34043094AD35C064A02FB00F02A
:102FEC00B0FBF3F07047064B03FB00F0704700BFDB
:102FFC000010024000127A002C3B00083C3B0008F9
:10300C0000093D00002800F0A08070B50D46044674
:10301C00524B1B6803F007038B420BD24F4A1368C9
:10302C0023F007030B431360136803F007038B4271
:10303C0040F08D80236813F0020F17D013F0040FAB
:10304C0004D0474A536843F4E0635360236813F099
:10305C00080F04D0424A536843F460535360404A0B
:10306C00536823F0F003A1680B435360236813F0FB
:10307C00010F31D06368012B20D0022B25D0384AA8
:10308C00126812F0020F64D035494A6822F003022C
:10309C0013434B60FFF754FD0646314B5B6803F05E
:1030AC000C036268B3EB820F16D0FFF749FD801B4F
:1030BC0041F288339842F0D9032045E0284A12683F
:1030CC0012F4003FE0D101203EE0254A126812F0D4
:1030DC00007FD9D1012037E0204B1B6803F0070398
:1030EC00AB420AD91D4A136823F007032B43136024
:1030FC00136803F00703AB422DD1236813F0040FC0
:10310C0006D0174A536823F4E063E1680B4353601D
:10311C00236813F0080F07D0114A536823F4605347
:10312C00216943EAC1035360FFF742FF0C4B5B6814
:10313C00C3F303130B4AD35CD8400B4B18600B4BF7
:10314C001868FFF7B9FC002070BD01207047012002
:10315C00FAE70120F8E70120F6E700BF0020024063
:10316C0000100240403B00086C000020680000206A
:10317C00014B1868704700BF6C00002008B5FFF7C2
:10318C00F7FF044B5B68C3F30223034AD35CD840BC
:10319C0008BD00BF00100240503B000808B5FFF707
:1031AC00E7FF044B5B68C3F3C223034AD35CD840EC
:1031BC0008BD00BF00100240503B000870B582B043
:1031CC000024A446A6E0804DAA4210D007D97F4D1A
:1031DC00AA420CD005F58035AA4208D013E0A5F51B
:1031EC008015AA4203D005F57025AA4207D18A683A
:1031FC00002A58D0012A51D04361082403E0A5F5D8
:10320C008015AA42F3D0BEF1FF0F4ED80646BEF190
:10321C00FF0F4CD84FEA8C0233680F25954023EAF8
:10322C00050304FA02F2134333604B6813F0805F1A
:10323C006ED0674B9A6942F001029A619B6903F068
:10324C0001030193019B4FEA9C02951C614B53F8BF
:10325C0025600CF003039D000F23AB4026EA030608
:10326C005D4B984229D003F58063984200F08E8024
:10327C0003F58063984200F08B8003F580639842DD
:10328C0019D004231AE0CC68BDE7CC680434BAE743
:10329C00CC680834B7E7CC680C34B4E70361082475
:1032AC00B1E70024AFE70424ADE7061DAFE7ACF1AE
:1032BC0008029200B0E7032300E00023AB40334345
:1032CC000232444D45F822304B6813F4801F61D014
:1032DC00424A936843EA0E0393604B6813F4001F51
:1032EC005ED03E4AD36843EA0E03D3604B6813F4B6
:1032FC00003F5BD0394A536843EA0E0353604B6876
:10330C0013F4803F58D0354A136843EA0E03136018
:10331C000CF1010C0A6832FA0CF353D0012303FAB6
:10332C000CF302EA030E33EA0202F1D14A68122AC4
:10333C003FF649AF122A3FF666AF01A555F822F0C9
:10334C00FB310008933200089D320008AF320008B0
:10335C00133200081332000813320008133200082D
:10336C00133200081332000813320008133200081D
:10337C00133200081332000813320008133200080D
:10338C001332000897320008A3320008012395E796
:10339C00022393E7114A936823EA0E0393609CE798
:1033AC000E4AD36823EA0E03D3609FE70B4A536897
:1033BC0023EA0E035360A2E7084A136823EA0E03BC
:1033CC001360A5E702B070BD0000221000003110A0
:1033DC0000100240000001400008014000040140C0
:1033EC000AB101617047090401617047074AD3684B
:1033FC0023F4E0631B041B0C000200F4E0600343A5
:10340C0043F0BF6343F40033D360704700ED00E03A
:10341C0000B5194BDB68C3F30223C3F1070CBCF1F5
:10342C00040F28BF4FF0040C03F1040EBEF1060F7D
:10343C0018D9033B4FF0FF3E0EFA0CFC21EA0C01AD
:10344C0099400EFA03F322EA0303194300280BDB1D
:10345C000901C9B200F1604000F5614080F8001329
:10346C005DF804FB0023E5E700F00F000901C9B289
:10347C00024B1954F4E700BF00ED00E014ED00E03E
:10348C000138B0F1807F0BD24FF0E0235861054A30
:10349C00F02182F823100020986107221A617047EE
:1034AC000120704700ED00E0026802F10C0353E8C4
:1034BC00003F23F490730C3242E800310029F3D121
:1034CC00026802F1140353E8003F23F001031432A5
:1034DC0042E800310029F3D1036B012B05D02023E6
:1034EC0080F84230002303637047026802F10C033A
:1034FC0053E8003F23F010030C3242E8003100295E
:10350C00F3D1ECE710B504460268136923F4405379
:10351C00C1680B43136183680269134342691A4300
:10352C000168CB6823F4B05323F00C031343CB6036
:10353C000268536923F4407381690B435361026839
:10354C00134B9A4220D0FFF719FE024602EB82027F
:10355C0002EB820263689B00B2FBF3F20D48A0FB06
:10356C0002314909642303FB11231B013233A0FBF5
:10357C0003235B0903F0F00202EB011203F00F03CB
:10358C00216813448B6010BDFFF708FE0246DDE78F
:10359C00003801401F85EB512DE9F04383B00546FF
:1035AC000E4617469946DDF828802C68246836EAC2
:1035BC0004030CBF4FF0010C4FF0000CBC4528D19C
:1035CC00B8F1FF3FF1D0FFF7BBFAA0EB0900404583
:1035DC0023D8B8F1000F22D02B68DA6812F0040F50
:1035EC00E3D0802EE1D0402EDFD01A6812F0080F05
:1035FC00DBD0002401941A6801925B680193019B53
:10360C002846FFF751FF08236B6485F840400120E2
:10361C0000E0002003B0BDE8F0830320FAE70320AC
:10362C00F8E760B310B5044690F8413013B3242387
:10363C0084F841302268D36823F40053D3602046C9
:10364C00FFF760FF2268136923F49043136122682B
:10365C00536923F02A0353612268D36843F400535F
:10366C00D36000206064202384F8413084F8423019
:10367C00606310BD80F84030FEF708FCD7E70120EE
:10368C0070472DE9F04182B01E4690F84130DBB214
:10369C00202B56D104460D469046002955D00AB928
:1036AC0001204FE000234364212380F84130FFF7D1
:1036BC0047FA0746A4F82480A4F82680A368B3F53B
:1036CC00805F02D04FF0000814E023692BB34FF059
:1036DC0000080FE0202384F84130032032E038F852
:1036EC00023B2268C3F308035360E28C92B2013AA6
:1036FC0092B2E284E38C9BB293B100963B460022DB
:10370C0080212046FFF748FF0028E3D1002DE6D0AA
:10371C0015F8012B23685A60E7E7A8460025E9E76E
:10372C0000963B46002240212046FFF735FF18B992
:10373C00202384F8413005E0202384F84130032015
:10374C0000E0022002B0BDE8F0810120FAE77047EA
:10375C0010B503460C4A0D490D48006840B10C48A1
:10376C0000680344521A934206D8094A136010BDEC
:10377C000748084C0460F2E7FCF706FD0C230360D5
:10378C004FF0FF30F3E700BF0050002000040000B2
:10379C00380100204801002070B50C461646002563
:1037AC0006E0AFF30080214601F8010B01350C4611
:1037BC00B542F6DB304670BD4FF0FF3070474FF42A
:1037CC0000534B6000207047012070470020704769
:1037DC0000B585B0FFF7B4F90C4B18601023ADF8A9
:1037EC000C304FF0FF330093022303AA2421084826
:1037FC00FEF7FAFE28B90748FCF706FE05B05DF89F
:10380C0004FB0548FCF700FEF8E700BF3C01002074
:10381C0098000020583B0008783B000800B585B0A4
:10382C002023ADF80C304FF0FF330093022303AA92
:10383C0024210748FEF7D8FE28B90648FCF7E4FD1A
:10384C0005B05DF804FB0448FCF7DEFDF8E700BFAB
:10385C0098000020A03B0008BC3B000830B5BBB072
:10386C00FFF76EF9244B1860002510E02946234819
:10387C00FCF71CFD3BB030BD2148FCF7C5FDF9E75A
:10388C002048FCF7C1FD0135ADB2FE2D2FD84FF00D
:10389C00FF330093E02302AA24211B48FEF760FFAC
:1038AC000028E3D19DF80830FF2BE5D01748FCF732
:1038BC00ABFD1448FCF7A8FD4FF4FA60FFF746F98E
:1038CC0029461348FCF7F2FC0024DF2CD8DC04F169
:1038DC00E8036B4413F8E01C0E48FCF7E7FC0134DA
:1038EC0014F00F0FF1D10A20FCF70CFDEDE70A489C
:1038FC00FCF78AFDBEE700BF3C010020E43B00085A
:10390C00003C00083C3C000898000020203C0008CB
:10391C005C3C0008743C0008803C000808B501229F
:10392C0040210248FFF75CFD08BD00BF00080140C4
:10393C0008B5002240210248FFF752FD08BD00BF28
:10394C000008014010B5FFF7FBF8164B1B68C01AB6
:10395C00B0F57A7F00D810BDFFF7F2F8114B186064
:10396C00FFF7EEF8104B1B68C01A40F6B8339842BC
:10397C00F1D90E4B1B689B6913F0020FEBD00C486E
:10398C00FCF742FD0B4C236943F4800323610220B6
:10399C00FFF7DCF8236923F480032361FEF70CFAAC
:1039AC00D9E700BF400100203C0100209800002016
:1039BC00A03C00080010024010B5FFF709FFFFF70C
:1039CC00C1FF4FF0FF33032211491248FFF759FE94
:1039DC0000240CE04FF0FF3301220F490D48FFF794
:1039EC0050FE4FF47A70FFF7B1F80134E4B2072CB3
:1039FC00F0D94FF0FF33042208490648FFF741FE87
:103A0C00FFF70CFFC820FFF7A1F8FFF727FF10BD49
:103A1C00CC3C0008EC000020D03C0008D43C000852
:103A2C0010B50A4C00224FF400712046FFF7D8FC69
:103A3C0001224FF480612046FFF7D2FC01224FF4A3
:103A4C0000612046FFF7CCFC10BD00BF0008014010
:103A5C0008B5FFF7E5FF08BDFFF779FE0B480C49E9
:103A6C000C4A002302E0D458C4500433C4188C42CE
:103A7C00F9D3094A094C002301E013600432A24235
:103A8C00FBD3FCF787FBFEF73CF9704700000020E6
:103A9C0070000020203D0008700000204401002030
:103AAC00FEE70000F8B500BFF8BC08BC9E467047A6
:0C3ABC00F8B500BFF8BC08BC9E4670477F
:103AC80004000020000000000000000000000000CA
:103AD80000000000000000000000000000000000DE
:103AE80000000000000000000000000000000000CE
:103AF80000000000000000000000000000000000BE
:103B080000000000000000000000000000000000AD
:103B1800000000000000000000000000000000009D
:103B28000000000002030405060708090A0B0C0D33
:103B38000E0F10100102000000000000000000003D
:103B4800010203040607080900000000010203043B
:103B5800496D616765206361707475726520636F74
:103B68006D6D616E642073656E742E0D000000002B
:103B78004661696C656420746F2073656E642069A2
:103B88006D616765206361707475726520636F6D20
:103B98006D616E642E0D0000535344562073747289
:103BA80065616D20636F6D6D616E642073656E7401
:103BB8002E0D00004661696C656420746F20736582
:103BC8006E6420535344562073747265616D20638C
:103BD8006F6D6D616E642E0D000000004572726F8E
:103BE8007220726563656976696E67207061636BC0
:103BF80065742025640D0A00456E64206F662053A5
:103C08005344562073747265616D207265616368F0
:103C180065642E0D000000007472616E736D697426
:103C280074696E67207468726F7567682067736B54
:103C38000D0000000A2D2D2D2D2D2D2D2D2D2D2D76
:103C48002D2D2D2D2D2D2D2D2D2D2D2D2D2D2D2D9C
:103C58002D2D00005061636B65742025642072650A
:103C68006365697665643A0A00000000307825309B
:103C780032582C20000000004D61782053534456E0
:103C8800207061636B6574206C696D69742072655E
:103C980061636865642E0D004932432074696D655F
:103CA8006F7574206465746563746564212052655A
:103CB80073657474696E6720493243322E2E2E0D57
:103CC800000000002F2A200021000000202A2F0ACF
:103CD80000000000232D302B20000000686C4C00F1
:103CE800656667454647000030313233343536372C
:103CF80038394142434445460000000030313233F0
:103D0800343536373839616263646566000000000F
:043D18007501000829
:043D1C004D0100084D
:103D200004000020000000000C3B0008EC3A0008F2
:103D3000CC3A000800000000000000000000000075
:103D40000000000000000000000000000000000073
:103D50000000000000000000000000000000000063
:103D60000000000000000000000000000000000053
:103D70000000000000000000000000000000000043
:103D800000000000010000001000000000127A0096
:0400000508003A6550
:00000001FF
