:020000040800F2
:1000000000500020CD270008711000087310000870
:100010007510000877100008791000080000000033
:100020000000000000000000000000007B1000083D
:100030007D100008000000007F10000881100008FB
:10004000152800081528000815280008152800089C
:10005000152800081528000815280008DD240008C8
:10006000152800081528000815280008152800087C
:10007000152800081528000815280008152800086C
:10008000152800081528000815280008152800085C
:10009000152800081528000815280008152800084C
:1000A000152800081528000815280008152800083C
:1000B000152800081528000815280008152800082C
:1000C000152800081528000815280008152800081C
:1000D000152800081528000815280008152800080C
:1000E0001528000815280008152800080000000041
:1000F0000000000000000000000000000000000000
:0C01000000000000000000005FF808F1A3
:10010C000348044B834202D0034B03B1184770479A
:10011C00740000207400002000000000054806490F
:10012C000B1AD90F01EBA301491002D0034B03B1F9
:10013C001847704774000020740000200000000075
:10014C0010B5064C237843B9FFF7DAFF044B13B113
:10015C000448AFF300800123237010BD740000200D
:10016C00000000001828000808B5044B1BB1044916
:10017C000448AFF30080BDE80840CFE70000000062
:10018C007800002018280008014B1868704700BF41
:10019C000000002070B50D4E0D4D761BB61006D02C
:1001AC00002455F8043B01349847A642F9D1094E76
:1001BC00094D02F02BFB761BB61006D0002455F827
:1001CC00043B01349847A642F9D170BD642900085C
:1001DC00642900086829000864290008830730B5E1
:1001EC0048D0541E002A3FD00346CAB201E0013C5D
:1001FC003AD303F8012B9D07F9D1032C2DD9CDB29D
:10020C0045EA05250F2C45EA054536D9A4F110021F
:10021C0022F00F0C03F1200EE6444FEA121C03F1FE
:10022C00100242E9045542E9025510327245F8D1E8
:10023C000CF1010214F00C0F03EB021204F00F0C82
:10024C0013D0ACF1040323F003030433134442F83A
:10025C00045B9342FBD10CF003042CB1CAB21C44D6
:10026C0003F8012B9C42FBD130BD64461346002C95
:10027C00F4D1F9E703461446BFE71A46A446E0E773
:10028C0070B506460D46002830D0836963B3846888
:10029C002C4B9C4234D02C4B9C423CD02B4B9C4244
:1002AC0008BFF468A3891B072ED5236963B329788B
:1002BC0039B932E023685A1C2260197015F8011FF5
:1002CC0059B3A368013B002BA360F3DAA2699342F4
:1002DC0001DB0A29EED12246304600F06FF80130DE
:1002EC00ECD14FF0FF3070BD00F032FBB369B46855
:1002FC00002BCDD1304600F02BFB124B9C42CAD1C7
:10030C007468A3891B07D0D42146304600F0B8F896
:10031C000028CCD0E5E7B468C4E7A368013B002B08
:10032C00A36008DA22460A21304600F047F8013073
:10033C00D7D00A2070BD0A2223681046591C2160B0
:10034C001A7070BDD8280008B82800089828000832
:10035C00024B01461868FFF793BF00BF0000002056
:10036C0020F0030110F00300C0F1000051F8043B31
:10037C0000F1040C4FEACC0C6FF000021CBF22FA07
:10038C000CF213434FF0010C4CEA0C2C4CEA0C4CC5
:10039C00A3EB0C0222EA030212EACC1204BF51F8BE
:1003AC00043B0430F4D0C2F1000102EA0102B2FABB
:1003BC0082F2C2F11F0200EBD2007047F8B506467C
:1003CC000D46144608B1836943B3254B9C422AD091
:1003DC00244B9C4229D0244B9C4208BFF468A26950
:1003EC00A389A2601A0722D5236903B32268616925
:1003FC00D31AEDB299422F4629DD0133A168013998
:10040C00A160511C2160157062699A4216D0A389B3
:10041C00DB0701D50A2D11D03846F8BD00F098FA4B
:10042C000F4B9C42D4D17468D9E7B468D7E7214606
:10043C00304600F025F838B92369D7E72146304615
:10044C0000F024F90028E7D04FF0FF37E4E721460D
:10045C00304600F01BF90028F6D101232268CDE7C5
:10046C00D8280008B82800089828000803460A462F
:10047C00024908681946FFF7A1BF00BF0000002021
:10048C003C4B70B51D6806460C460DB1AB69E3B12B
:10049C00394B9C421FD0394B9C424DD0384B9C421F
:1004AC0008BFEC68B4F90C3018079AB219D5216959
:1004BC0011B312F001002FD000256069A5604042F5
:1004CC00A06100292ED0002070BD284600F040FA13
:1004DC00294B9C42DFD16C68B4F90C3018079AB2E6
:1004EC00E5D4D1063ED5520728D4216943F0080340
:1004FC00A3819AB20029DCD102F42070B0F5007F00
:10050C00D7D02146304600F087FAB4F90C30216977
:10051C009AB212F00100CFD1950758BF6069A06064
:10052C000029D0D1120658BF0846CDD543F0400360
:10053C004FF0FF30A38170BDAC68B3E7616B51B174
:10054C0004F14402914204D0304600F0F3FAB4F9BD
:10055C000C30002262630022216923F02403C4E9D9
:10056C000012C3E7092243F0400332604FF0FF3022
:10057C00A38170BD00000020D8280008B82800080E
:10058C0098280008F8B58B890C46190707463BD408
:10059C006268002A55DDE66A002E50D000223D68C4
:1005AC003A6013F4805250D101233846216AB04787
:1005BC00421C5CD0A389E66A5B0705D56368C01A48
:1005CC00636B0BB1236CC01A0246216A00233846B8
:1005DC00B047411C3BD13B68002B38D01D2B01D0C0
:1005EC00162B4BD100232269C4E90023616B3D60BB
:1005FC0029B304F14403994202D0384600F09AFA28
:10060C00002318466363F8BD2669C6B19A0718BF64
:10061C000023256808BF63692660AD1BA3600CE04E
:10062C002B463246D4F828C03846216AE047B0F150
:10063C00000CA5EB0C05664412DD002DF0DC00204F
:10064C00F8BD226C002AA6DCF9E7606DB4E7002245
:10065C00236962602360A389DB04C7D56065C5E7A5
:10066C00A3894FF0FF3043F04003A381F8BD3B68F2
:10067C00002B9FD01D2B06D0162B04D0A38943F042
:10068C004003A381F8BD00203D60F8BD38B50B696F
:10069C00BBB10C46054608B18369B3B10D4B9C4206
:1006AC0011D00D4B9C4213D00C4B9C4208BFEC68F4
:1006BC00B4F90C302BB121462846BDE83840FFF781
:1006CC0061BF002038BD6C68F2E700F041F9E5E746
:1006DC00AC68EDE7D8280008B8280008982800086E
:1006EC0038B540B303690446E3B1174B1D680DB12F
:1006FC00AB69CBB1154B9C420FD0154B9C4221D012
:10070C00144B9C4208BFEC68B4F90C3053B1214631
:10071C002846BDE83840FFF735BF6C68B4F90C309B
:10072C00002BF4D1002038BD284600F011F9074BFE
:10073C009C42E2D1F1E7084B08491868BDE8384003
:10074C0000F046B9AC68DFE700000020D8280008AC
:10075C00B828000898280008942800089906000872
:10076C0000207047014900F033B900BF990600081A
:10077C0000207047682270B54D1E02FB05F50E4631
:10078C0005F1740100F03CFA044640B100210C3034
:10079C00C4E9016005F168022160FFF71FFD2046E6
:1007AC0070BD00BF274B2DE9F0411E680746B369A9
:1007BC0053B34FF004084836D6E90134013B04D555
:1007CC001EE05A1C04F168041AD0B4F90C50013B19
:1007DC00002DF6D11C4B08222946C4E90055C4E96A
:1007EC000253C4E904556566A56104F15C00FFF78A
:1007FC00F5FCC4E90D55C4E912552046BDE8F0815D
:10080C0035682DB12E46D7E7304600F01FF8D0E7FB
:10081C004FF4D671384600F0F3F9044668B1056020
:10082C0029460546C0F804800C304FF4D072A06005
:10083C00FFF7D4FC34602E46BEE70C2330603B60DF
:10084C00DBE700BF942800080100FFFF0023334AB8
:10085C002DE9F0471268C0E912339042036508BFD6
:10086C0001232F4908BF836181620546FFF79AFF78
:10087C00034628466B60FFF795FFA86028460024C6
:10088C00FFF790FF04236E68DFF898A0DFF89890CC
:10089C00DFF89880264FE8600822F3602146C6E90D
:1008AC000044C6E904447466B460B46106F15C00AB
:1008BC00FFF794FC1F4BC6E9086AC6E90A98376330
:1008CC00AE680822F3602146C6E90044C6E9044438
:1008DC007466B460B46106F15C00FFF77FFC164BE4
:1008EC00C6E9086AC6E90A983763EE682146F360E0
:1008FC000822C6E90044C6E904447466B460B461D5
:10090C0006F15C00FFF76AFC0123C6E9086AC6E938
:10091C000B87C6F82890AB61BDE8F08794280008D7
:10092C0071070008E90C0008110D0008510D0008B2
:10093C00710D00080900010012000200024B03496E
:10094C00186800F045B800BF942800089906000804
:10095C00836903B97AE77047704700BF704700BFDF
:10096C00704700BF704700BF024B0349186800F086
:10097C000FB800BF000000206D070008024B0349B0
:10098C00186800F005B800BF000000207D070008C3
:10099C002DE9F0410026884600F14807D7E90154BB
:1009AC00013D0ED4A389013D012B06D9B4F90E30BB
:1009BC00013302D02046C04706436B1C04F1680487
:1009CC00F0D13F68002FE9D13046BDE8F08100BF7F
:1009DC002DE9F8434FF000090746884600F1480618
:1009EC00D6E90154013D10D4A389013D012B08D94E
:1009FC00B4F90E30013304D021463846C04749EAD9
:100A0C0000096B1C04F16804EED13668002EE7D1A6
:100A1C004846BDE8F88300BFF0B58B890C469907B2
:100A2C0097B007D5012204F14703C4E904322360CF
:100A3C0017B0F0BDB4F90E10054600292DDB6A463F
:100A4C0000F0BCF9002827DB019E4FF4806706F408
:100A5C007046A6F50056B6FA86F63946284676094B
:100A6C0000F0CEF830B3A3891A4A43F08003AA628F
:100A7C00C4E90407A3812060002ED9D02846B4F91C
:100A8C000E1000F0AFF90028D2D0A38923F0030395
:100A9C0043F00103A381CBE7A38913F0800F14BFAC
:100AAC0040274FF4806728463946002600F0A8F806
:100ABC000028D8D1B4F90C309A05B9D4012123F00F
:100ACC00030304F1470243F00203C4E90421A381A8
:100ADC002260ADE77107000870B50C46B1F90E1035
:100AEC00164600291D4696B013DB6A4600F066F9DF
:100AFC0000280EDB01994FF4806301F47041A1F5DD
:100B0C000051B1FA81F1002049092960336016B017
:100B1C0070BD0022B4F90C302A601B0604D54023AA
:100B2C000020336016B070BD4FF48063002033603A
:100B3C0016B070BD002952D038B551F8043C0C1FCA
:100B4C00002BB8BFE418054600F074F92B4A136863
:100B5C00002B45D0A3420CD921686018834228D0C1
:100B6C00636028461460BDE8384000F065B9A342C4
:100B7C000FD81A465B68002BF9D1116850188442C3
:100B8C001DD034D3636054602846BDE8384000F073
:100B9C0053B911685018A04215D028D82168601894
:100BAC008342EFD118685B680144C4E900135460B8
:100BBC00EAE718685B680144C4E90013D1E72368CD
:100BCC0019441160E0E72068014450188342116019
:100BDC00DAD1D3E900030144C2E90013D4E770472A
:100BEC00284663601460BDE8384000F025B90C233A
:100BFC0028462B60BDE8384000F01EB9900000205C
:100C0C00F8B5CD1C25F0030508350C2D38BF0C2587
:100C1C00002D064623DBA94221D8264F00F00AF905
:100C2C003A6822B3144603E063682246FBB11C46C3
:100C3C0023685B1BF8D40B2B15D8636894420CBF4C
:100C4C003B605360304600F0F7F804F10B00231DB5
:100C5C0020F00700C21A01D01B1AA350F8BD0C23B8
:100C6C0000203360F8BD23601C442560EAE77968F6
:100C7C00D1B12946304600F01FF8431C01460CD078
:100C8C00C41C24F00304A04205D03046611A00F0C5
:100C9C0013F8013001D02560D4E70C2330463360C3
:100CAC0000F0CAF80020F8BD304600F005F8786076
:100CBC00DFE700BF90000020002238B5064D044647
:100CCC0008462A6001F09CF8431C00D038BD2B6804
:100CDC00002BFBD0236038BD9800002010B50C46CB
:100CEC00B1F90E1000F0AAF8002803DB636D034481
:100CFC00636510BDA38923F48053A38110BD00BF8D
:100D0C00002070472DE9F0410C46B1F90C101F463C
:100D1C00CB05054616460BD421F48051A1813B46E8
:100D2C0032462846B4F90E10BDE8F04100F01EB86A
:100D3C00B4F90E100223002200F066F8B4F90C107E
:100D4C00EAE700BF10B50C46B1F90E1000F05CF8E4
:100D5C00A389421C0EBF23F4805343F48053606577
:100D6C00A38110BDB1F90E1000F016B838B50C46C1
:100D7C00114600228446074D20462A601A466446D6
:100D8C0000F072F8431C00D038BD2B68002BFBD050
:100D9C00236038BD98000020002238B5064D04466B
:100DAC0008462A6001F060F8431C00D038BD2B685F
:100DBC00002BFBD0236038BD9800002070B50026B6
:100DCC00074D0446084611462E6001F050F8431CAE
:100DDC0000D070BD2B68002BFBD0236070BD00BF12
:100DEC0098000020002238B5064D044608462A60BB
:100DFC0001F042F8431C00D038BD2B68002BFBD00F
:100E0C00236038BD9800002038B50C4611460022EE
:100E1C008446074D20462A601A46644601F02EF897
:100E2C00431C00D038BD2B68002BFBD0236038BD91
:100E3C0098000020704700BF704700BF38B50C46C3
:100E4C00114600228446074D20462A601A46644605
:100E5C0000F0FAFF431C00D038BD2B68002BFBD0F0
:100E6C00236038BD9800002010B514464FF0FF33B6
:100E7C0092B2024800F05DFF204610BDF000002049
:100E8C0072B6FEE700B591B02822002106A8FFF744
:100E9C00A5F9002301930293039304930593012373
:100EAC0006934FF48033079306A800F05BFA70B9F1
:100EBC000F230193012302930021039104910591C7
:100ECC0001A800F081FC20B911B05DF804FBFFF71C
:100EDC00D7FFFFF7D5FF000000B585B000F0F4F99F
:100EEC00FFF7D0FF00F032F800F06CF800F0E0FFF4
:100EFC0001F028F918B91148FFF72AFAFEE7104853
:100F0C00FFF726FA0F4BEC460FCBACE807002CF89A
:100F1C00023B1B0C8CF80030002001F045F90A480C
:100F2C00FFF716FA6846FFF71BFAC1B2684601F0E4
:100F3C0087FA4FF4FA6000F0EBF9F3E7F8280008B1
:100F4C0004290008202900081429000830B589B0AC
:100F5C0000240494059406940794184B9A6942F063
:100F6C0020029A619A6902F020020192019A9A6910
:100F7C0042F004029A619A6902F004020292029A07
:100F8C009A6942F008029A619B6903F00803039383
:100F9C00039B0B4D22464FF4F251284600F0F2FD14
:100FAC004FF4F25304930123059306940223079301
:100FBC0004A9284600F0D4FC09B030BD0010024052
:100FCC000008014008B50B480B4B03600B4B43600A
:100FDC0000238360C3604FF48042026143618361EC
:100FEC00C361036200F06CF800B908BDFFF748FF5D
:100FFC00FBE700BF9C00002000580040A0860100C9
:10100C0010B586B0002302930393049305930268F2
:10101C00114B9A4201D006B010BD104CA36943F09D
:10102C000803A361A36903F008030093009B4FF42A
:10103C0040630293122303930323059302A90848E8
:10104C0000F08EFCE36943F48003E361E36903F48D
:10105C0080030193019BDEE7005800400010024022
:10106C00000C0140FEE7FEE7FEE7FEE7FEE77047F7
:10107C007047704708B500F039F908BD82B00E4BC7
:10108C009A6942F001029A619A6902F00102009297
:10109C00009ADA6942F08052DA61DB6903F080531E
:1010AC000193019B054A536823F0E06343F00073FE
:1010BC00536002B0704700BF0010024000000140B6
:1010CC00002800F0CC8070B5044690F83D30002B21
:1010DC0077D0242384F83D302268136823F0010371
:1010EC0013602268136843F400431360226813688A
:1010FC0023F40043136000F023FC62685A4B9A42BD
:10110C0064D85A4B98428CBF00230123002B40F02B
:10111C00A8805749A1FB00318B0C25686A6822F026
:10112C003F0242EA91426A6021680A6A22F03F0259
:10113C0066684D4DAE424FD8013313430B622168A4
:10114C00CA6922F44F4222F0FF026668464B9E4267
:10115C004CD8431E7600B3FBF6F3013340F6FC701B
:10116C00034278D0C3F30B031343CB6121680B68A4
:10117C0023F0C003E269206A024313430B60216829
:10118C008B6823F4034323F0FF032269E0680243D6
:10119C0013438B602168CB6823F0FF036269A0695D
:1011AC0002431343CB602268136843F001031360BE
:1011BC0000202064202384F83D30206384F83E0016
:1011CC0070BD80F83C30FFF71BFF82E7294B98423B
:1011DC008CBF0023012399E74FF4967505FB03F3AD
:1011EC00254DA5FB03539B090133A6E7A368BBB9A7
:1011FC00451E06EB460CB5FBFCF50135C5F30B059E
:10120C00B5FA85F56D0945BBC3B9013806EB460344
:10121C00B0FBF3F30133C3F30B0343F40043A3E735
:10122C00451E06EB860C0CEB8C0CB5FBFCF5013566
:10123C00C5F30B05B5FA85F56D09E4E7013806EB46
:10124C00860303EB8303B0FBF3F30133C3F30B030C
:10125C0043F4404388E7042386E7012384E7012015
:10126C0070470120ACE700BFA08601007F841E0000
:10127C0083DE1B43FF083D00D34D621010B50446BE
:10128C000E4B18784FF47A73B3FBF0F30C4A1068DA
:10129C00B0FBF3F000F0C6FC68B90F2C01D90120AB
:1012AC000AE0002221464FF0FF3000F083FC054B92
:1012BC001C60002000E0012010BD00BF6400002075
:1012CC006C0000206800002008B5074A136843F042
:1012DC0010031360032000F05BFC0F20FFF7CEFF20
:1012EC00FFF7CCFE002008BD00200240034A116825
:1012FC00034B1B780B441360704700BF3801002070
:10130C0064000020014B1868704700BF38010020B2
:10131C0038B50446FFF7F6FF0546B4F1FF3F02D09F
:10132C00044B1B781C44FFF7EDFF401BA042FAD383
:10133C0038BD00BF6400002082B0084B1B68084A0F
:10134C00A2FB03235B0A00FB03F3019300BF019B89
:10135C005A1E0192002BF9D102B070476C0000208C
:10136C00D34D6210002800F0F18170B582B00446B4
:10137C00036813F0010F2CD0994B5B6803F00C033E
:10138C00042B1DD0964B5B6803F00C03082B12D07A
:10139C006368B3F5803F41D0002B55D103F18043F6
:1013AC0003F504331A6822F480321A601A6822F4A6
:1013BC0080221A6037E08A4B5B6813F4803FE7D0D9
:1013CC00874B1B6813F4003F03D06368002B00F0BD
:1013DC00BF81236813F0020F75D0814B5B6813F04B
:1013EC000C0F5FD07E4B5B6803F00C03082B54D0C2
:1013FC002369002B00F08A807A4B01221A60FFF7D8
:10140C0081FF0546764B1B6813F0020F75D1FFF771
:10141C0079FF401B0228F5D903209EE1704A13681E
:10142C0043F480331360636843B3FFF76BFF0546E7
:10143C006B4B1B6813F4003FCBD1FFF763FF401BD2
:10144C006428F5D9032088E1B3F5A02F09D0644BAB
:10145C001A6822F480321A601A6822F480221A6008
:10146C00E1E703F18043A3F53C331A6842F4802290
:10147C001A601A6842F480321A60D4E7FFF742FF10
:10148C000546574B1B6813F4003FA2D0FFF73AFFF9
:10149C00401B6428F5D903205FE1514B5B6813F4C2
:1014AC00803FA5D14E4B1B6813F0020F03D023696C
:1014BC00012B40F04F814A4A136823F0F80361690D
:1014CC0043EAC1031360236813F0080F33D0A369F8
:1014DC00002B5CD0434B0122C3F88024FFF712FF92
:1014EC0005463F4B5B6A13F0020F21D1FFF70AFF51
:1014FC00401B0228F5D903202FE1394A136823F049
:10150C00F803616943EAC1031360DCE7354B002241
:10151C001A60FFF7F7FE0546314B1B6813F0020FFC
:10152C00D1D0FFF7EFFE401B0228F5D9032014E1C0
:10153C000120FFF701FF236813F0040F00F09680E1
:10154C00274BDB6913F0805F34D1254BDA6942F00D
:10155C008052DA61DB6903F080530193019B012512
:10156C00214B1B6813F4807F26D0E368012B3DD000
:10157C00002B53D103F1804303F504331A6A22F094
:10158C0001021A621A6A22F004021A6233E0154B45
:10159C000022C3F88024FFF7B5FE0546104B5B6AAA
:1015AC0013F0020FC7D0FFF7ADFE401B0228F5D990
:1015BC000320D2E00025D3E70B4A136843F4807371
:1015CC001360FFF79FFE0646074B1B6813F4807FE2
:1015DC00CBD1FFF797FE801B6428F5D90320BCE024
:1015EC000010024000004242007000405F4A136A43
:1015FC0043F001031362E36833B3FFF783FE06463F
:10160C005A4B1B6A13F0020F2FD1FFF77BFE801B86
:10161C0041F288339842F3D903209EE0052B09D080
:10162C00524B1A6A22F001021A621A6A22F0040260
:10163C001A62E0E74D4B1A6A42F004021A621A6A07
:10164C0042F001021A62D6E7FFF75CFE0646474BF2
:10165C001B6A13F0020F08D0FFF754FE801B41F2F7
:10166C0088339842F3D9032077E0E5B9E369002B7E
:10167C0072D03E4A526802F00C02082A56D0022B55
:10168C0017D03B4B00221A66FFF73CFE0446374B43
:10169C001B6813F0007F47D0FFF734FE001B0228B5
:1016AC00F5D9032059E0314AD36923F08053D36133
:1016BC00DCE72F4B00221A66FFF724FE05462B4B66
:1016CC001B6813F0007F06D0FFF71CFE401B02289E
:1016DC00F5D9032041E0236AB3F5803F1AD02349A2
:1016EC004B6823F47413226A606A024313434B6001
:1016FC001F4B01221A66FFF705FE04461B4B1B68A5
:10170C0013F0007F0ED1FFF7FDFD001B0228F5D969
:10171C00032022E0154A536823F40033A1680B43DD
:10172C005360DCE7002018E0002016E0012B16D0F7
:10173C000E4B5B6803F48031226A914211D103F4A1
:10174C007013626A93420ED1002006E001207047AC
:10175C00012002E0012000E0002002B070BD012059
:10176C00FBE70120F9E70120F7E700BF001002407A
:10177C00000042420F4B5B6803F00C02082A01D0B8
:10178C000D487047C3F383420C49885C13F4803FC7
:10179C000BD0084B5B68C3F34043094AD35C064A41
:1017AC0002FB00F0B0FBF3F07047064B03FB00F0BC
:1017BC00704700BF0010024000127A003029000868
:1017CC004029000800093D00002800F0A08070B5F9
:1017DC000D460446524B1B6803F007038B420BD299
:1017EC004F4A136823F007030B431360136803F08D
:1017FC0007038B4240F08D80236813F0020F17D043
:10180C0013F0040F04D0474A536843F4E063536069
:10181C00236813F0080F04D0424A536843F4605312
:10182C005360404A536823F0F003A1680B435360A4
:10183C00236813F0010F31D06368012B20D0022BE9
:10184C0025D0384A126812F0020F64D035494A6824
:10185C0022F0030213434B60FFF754FD0646314B55
:10186C005B6803F00C036268B3EB820F16D0FFF7D2
:10187C0049FD801B41F288339842F0D9032045E0A2
:10188C00284A126812F4003FE0D101203EE0254ABC
:10189C00126812F0007FD9D1012037E0204B1B6871
:1018AC0003F00703AB420AD91D4A136823F0070360
:1018BC002B431360136803F00703AB422DD123684D
:1018CC0013F0040F06D0174A536823F4E063E16861
:1018DC000B435360236813F0080F07D0114A536869
:1018EC0023F46053216943EAC1035360FFF742FFBD
:1018FC000C4B5B68C3F303130B4AD35CD8400B4B04
:10190C0018600B4B1868FFF7B9FC002070BD012064
:10191C0070470120FAE70120F8E70120F6E700BF45
:10192C000020024000100240442900086C000020F6
:10193C0068000020014B1868704700BF6C00002045
:10194C0008B5FFF7F7FF044B5B68C3F30223034AA8
:10195C00D35CD84008BD00BF0010024054290008D9
:10196C0070B582B00024A446A6E0804DAA4210D0E7
:10197C0007D97F4DAA420CD005F58035AA4208D074
:10198C0013E0A5F58015AA4203D005F57025AA42EF
:10199C0007D18A68002A58D0012A51D04361082403
:1019AC0003E0A5F58015AA42F3D0BEF1FF0F4ED887
:1019BC000646BEF1FF0F4CD84FEA8C0233680F2558
:1019CC00954023EA050304FA02F2134333604B6893
:1019DC0013F0805F6ED0674B9A6942F001029A61F6
:1019EC009B6903F001030193019B4FEA9C02951C38
:1019FC00614B53F825600CF003039D000F23AB40A3
:101A0C0026EA03065D4B984229D003F58063984281
:101A1C0000F08E8003F58063984200F08B8003F514
:101A2C008063984219D004231AE0CC68BDE7CC68D7
:101A3C000434BAE7CC680834B7E7CC680C34B4E7A4
:101A4C0003610824B1E70024AFE70424ADE7061DC9
:101A5C00AFE7ACF108029200B0E7032300E00023EB
:101A6C00AB4033430232444D45F822304B6813F4FB
:101A7C00801F61D0424A936843EA0E0393604B681F
:101A8C0013F4001F5ED03E4AD36843EA0E03D360C2
:101A9C004B6813F4003F5BD0394A536843EA0E039A
:101AAC0053604B6813F4803F58D0354A136843EAAF
:101ABC000E0313600CF1010C0A6832FA0CF353D0CC
:101ACC00012303FA0CF302EA030E33EA0202F1D10A
:101ADC004A68122A3FF649AF122A3FF666AF01A5B3
:101AEC0055F822F09F190008371A0008411A00080F
:101AFC00531A0008B7190008B7190008B7190008DD
:101B0C00B7190008B7190008B7190008B719000869
:101B1C00B7190008B7190008B7190008B719000859
:101B2C00B7190008B71900083B1A0008471A000833
:101B3C00012395E7022393E7114A936823EA0E03E6
:101B4C0093609CE70E4AD36823EA0E03D3609FE7A9
:101B5C000B4A536823EA0E035360A2E7084A136842
:101B6C0023EA0E031360A5E702B070BD000022103B
:101B7C00000031100010024000000140000801403C
:101B8C00000401400AB1016170470904016170470A
:101B9C00074AD36823F4E0631B041B0C000200F417
:101BAC00E060034343F0BF6343F40033D3607047FA
:101BBC0000ED00E000B5194BDB68C3F30223C3F161
:101BCC00070CBCF1040F28BF4FF0040C03F1040EFA
:101BDC00BEF1060F18D9033B4FF0FF3E0EFA0CFC7A
:101BEC0021EA0C0199400EFA03F322EA030319438C
:101BFC0000280BDB0901C9B200F1604000F561401F
:101C0C0080F800135DF804FB0023E5E700F00F00FB
:101C1C000901C9B2024B1954F4E700BF00ED00E012
:101C2C0014ED00E00138B0F1807F0BD24FF0E023CF
:101C3C005861054AF02182F8231000209861072290
:101C4C001A6170470120704700ED00E0026802F154
:101C5C000C0353E8003F23F490730C3242E800313C
:101C6C000029F3D1026802F1140353E8003F23F07A
:101C7C000103143242E800310029F3D1036B012B2C
:101C8C0005D0202380F8423000230363704702689C
:101C9C0002F10C0353E8003F23F010030C3242E82E
:101CAC0000310029F3D1ECE72DE9F04383B0054670
:101CBC000E4617469946DDF828802C68246836EACB
:101CCC0004030CBF4FF0010C4FF0000CBC4528D1A5
:101CDC00B8F1FF3FF1D0FFF715FBA0EB0900404531
:101CEC0023D8B8F1000F22D02B68DA6812F0040F59
:101CFC00E3D0802EE1D0402EDFD01A6812F0080F0E
:101D0C00DBD0002401941A6801925B680193019B5B
:101D1C002846FFF79BFF08236B6485F840400120A1
:101D2C0000E0002003B0BDE8F0830320FAE70320B5
:101D3C00F8E72DE9F04182B01E4690F84130DBB255
:101D4C00202B56D104460D469046002955D00AB991
:101D5C0001204FE000234364212380F84130FFF73A
:101D6C00D1FA0746A4F82480A4F82680A368B3F51A
:101D7C00805F02D04FF0000814E023692BB34FF0C2
:101D8C0000080FE0202384F84130032032E038F8BB
:101D9C00023B2268C3F308035360E28C92B2013A0F
:101DAC0092B2E284E38C9BB293B100963B46002244
:101DBC0080212046FFF778FF0028E3D1002DE6D0E4
:101DCC0015F8012B23685A60E7E7A8460025E9E7D8
:101DDC0000963B46002240212046FFF765FF18B9CC
:101DEC00202384F8413005E0202384F8413003207F
:101DFC0000E0022002B0BDE8F0810120FAE7704754
:101E0C0010B503460C4A0D490D48006840B10C480A
:101E1C0000680344521A934206D8094A136010BD55
:101E2C000748084C0460F2E7FEF7AEF90C23036098
:101E3C004FF0FF30F3E700BF00500020000400001B
:101E4C003C0100206803002070B50C4616460025A6
:101E5C0006E0AFF30080214601F8010B01350C467A
:101E6C00B542F6DB304670BD4FF0FF3070474FF493
:101E7C0000534B60002070470120704700207047D2
:101E8C0010B50A4C00224FF400712046FFF77AFE81
:101E9C0001224FF480612046FFF774FE01224FF4BB
:101EAC0000612046FFF76EFE10BD00BF0008014028
:101EBC0008B5FFF7E5FF08BD10B5064C22784FF4C6
:101ECC0080510548FFF75EFE2378B3FA83F35B0974
:101EDC00237010BD400100200008014010B5084CD3
:101EEC00236943F0800323619620FFF711FA63699D
:101EFC0043F0800363619620FFF70AFA10BD00BF20
:101F0C000008014000B583B0202000F053FB0821ED
:101F1C00684600F033FB9DF80030FF2B02D003B075
:101F2C005DF804FB9DF804109DF806009DF8082050
:101F3C004FEAD11C204B83F800C0C1F3801C83F8FE
:101F4C0001C0C1F3401C83F802C0C1F3001C83F82C
:101F5C0003C0C1F3C00C83F804C0C1F3400C83F878
:101F6C0005C001F001019971C0F34011D971C0F3A2
:101F7C0000111972C0F3C0015972C0F3800199723B
:101F8C00C0F34001D97200F001001873C2F3801144
:101F9C005973C2F340119973C2F30011D973C2F390
:101FAC00C0011974C2F380015974C2F340019974D1
:101FBC0002F00102DA74B2E74401002000B583B0EC
:101FCC000A4B1B68ADF804301B0C8DF8063003224D
:101FDC0001A9202000F02CFB054B00221A605A604E
:101FEC009A60DA601A6103B05DF804FB30280008CF
:101FFC004401002000B585B00023009301930293A7
:10200C00CDF80B304FEA102C8DF800C08DF8012064
:10201C008DF8020008E011F803C003F113006844C6
:10202C0000F810CC0133DBB29342F4D30332D2B2BA
:10203C006946112000F0FCFA00F082FA05B05DF858
:10204C0004FB00001A4A936943F009039361194B8E
:10205C001A6822F030021A601A6822F0C0021A6064
:10206C001A6842F080021A60DA6842F00202DA6002
:10207C00A3F540639A6822F0F0029A609A6842F0E5
:10208C0010029A6003F580631A6842F002021A602B
:10209C009A6822F002029A60DA6842F00202DA6070
:1020AC00054B202283F8072380221A60704700BF5B
:1020BC0000100240000C014000E100E000B583B0CC
:1020CC00012000F077FA0023019304210DEB0100AD
:1020DC0000F054FA18B9002003B05DF804FB9DF829
:1020EC0006309DF8070000EB032080B2F4E700B542
:1020FC0083B08DF8070001220DF10701342000F0A8
:10210C0097FA00F01DFA03B05DF804FB00B583B03C
:10211C0010F0800F14D108238DF804308DF80500D1
:10212C0000238DF806303D238DF8073004220DEB8B
:10213C0002014FF40850FFF75DFF03B05DF804FB9C
:10214C007F20E8E700B585B000F0F2FA0A20FFF72F
:10215C00DFF8FFF7C3FE134B93E803000190ADF8D3
:10216C000810062201A9022000F062FA00F0E8F93A
:10217C0062238DF80C30012203A90020FFF73AFFEF
:10218C007F20FFF7C3FFFFF75DFFFFF797FF44F2D8
:10219C006343984203D1012005B05DF804FB002095
:1021AC00FAE700BF3828000830B591B0012800F0DC
:1021BC00A280022800F0B980002800F0828003255C
:1021CC008DF83C5001220FA94FF40050FFF712FF7D
:1021DC00634B0E9304220EA942F20600FFF70AFF8E
:1021EC000A238DF8343001220DA942F25100FFF779
:1021FC0001FF5C4B0C9304220CA94FF48040FFF7B9
:10220C00F9FE594B0B9304220BA94FF48070FFF786
:10221C00F1FEFFF7D3FE554C04F12C0393E80300B9
:10222C0009908DF82810052209A94FF48850FFF762
:10223C00E1FE85238DF82030012208A94FF490503F
:10224C00FFF7D8FE343494E8030006908DF81C1088
:10225C00052206A94FF48050FFF7CCFE444B1B68B7
:10226C00ADF814301B0C8DF816302A4605A941F236
:10227C000820FFF7BFFE3F4B0493042204A941F250
:10228C000D20FFF7B7FE3C4B0393042203A941F248
:10229C001120FFF7AFFE00230293042202A941F2A2
:1022AC001520FFF7A7FE042202A941F21920FFF71F
:1022BC00A1FE042202A941F21D20FFF79BFE11B0E2
:1022CC0030BD2A4CA369ADF800301B0C8DF80230E0
:1022DC000322694642F20300FFF78CFEE369ADF876
:1022EC0004301B0C8DF80630032201A942F20A00BF
:1022FC00FFF780FE63E71D4C236AADF800301B0C22
:10230C008DF802300322694642F20300FFF772FE99
:10231C00636AADF804301B0C8DF80630032201A95A
:10232C0042F20A00FFF766FE49E7144B1B68ADF852
:10233C0000301B0C8DF802300322694642F2030078
:10234C00FFF758FE094B9B6AADF804301B0C8DF857
:10235C000630032201A942F20A00FFF74BFE2EE7DA
:10236C0005C9C3803909B4E803FFFF003028000811
:10237C005C290008000100AA00FF00AA60290008DF
:10238C0010B582B0FFF798FD164B1A685B689A423D
:10239C0005DB144B00225A601A6002B010BD124BC0
:1023AC001B68ADF804301B0C8DF80630152000F0BE
:1023BC0001F9032101A800F0E1F80A4A1379126827
:1023CC00D1B25B1ADBB29DF806409C4200D31C468E
:1023DC0021460648104400F015F9024A13682344BC
:1023EC001360DAE760030020302800086002002048
:1023FC0010B582B0FFF760FD0023ADF80430152056
:10240C0000F0D8F8022101A800F0B8F89DF80540BA
:10241C00094B1B68E218FF2A04DD074B00221A60E7
:10242C0002B010BD21460548184400F0D5F8024A08
:10243C00136823441360F3E758020020580100206E
:10244C0070B582B006460D460220FFF750FE1C4ABE
:10245C0000231360691D5160291DC9B2194A1170FE
:10246C00FF2050709070D370137107E05A1D16F84E
:10247C0003C0144C04F802C00133DBB2AB42F5D3F9
:10248C008DF800100122694641F21220FFF7B2FDCF
:10249C00FFF776FF0720FFF72AFE0B4B07221A7077
:1024AC000A4B9B78002BFBD0FFF788FD01228DF89F
:1024BC00042001A9152000F0BBF802B070BD00BFCC
:1024CC006003002060020020700000204401002006
:1024DC0008B5184B5B6913F0020F00D108BD154A03
:1024EC00536943F002035361FFF70CFD124B5B7908
:1024FC00B3B9114B9B79B3B90F4BDB78B3B90E4B16
:10250C00DB784BB90C4B1B7933B90B4BDB791BB913
:10251C00094B9B7A002BE1D0084B03221A70DDE7A4
:10252C00FFF72EFFE5E7FFF763FFE5E7FFF760FF37
:10253C00E5E700BF000401404401002070000020CA
:10254C0038B5002540F6C3139D4210D80A4C636978
:10255C0043F480536361442000F002F9236943F48F
:10256C0080532361FF2804D00135ADB2EAE7002087
:10257C0000E0012038BD00BF000C014070B50446DE
:10258C000D46FFF7DDFF00B970BD094E736943F4CA
:10259C0080537361442000F0E3F82946204600F094
:1025AC00F3F8336943F4805333610120ECE700BF47
:1025BC00000C014010B5074C636943F48053636110
:1025CC0000F0BEF8236943F480532361FFF7B8FF92
:1025DC0010BD00BF000C014070B505460E46084CFE
:1025EC00636943F480536361772000F0B9F8314696
:1025FC00284600F0C9F8236943F48053236170BD69
:10260C00000C014070B505460E46084C636943F456
:10261C0080536361662000F093F83146284600F041
:10262C00C1F8236943F48053236170BD000C014051
:10263C0070B50D461646094C636943F480536361CB
:10264C0000F07EF83146284600F0ACF8236943F4DC
:10265C0080532361FFF774FF70BD00BF000C014075
:10266C00074A936943F008039361064B1A6822F0FA
:10267C000F021A601A6842F001021A60704700BF1C
:10268C0000100240000C01401C4A936943F00903FE
:10269C0093611B4B596841F440315960596821F4DE
:1026AC0040215960196941F480511961596821F42C
:1026BC0040015960596841F430015960596821F062
:1026CC0070615960596841F080615960596821F016
:1026DC0040415960596841F030415960D36943F425
:1026EC008043D361074B00221A601A6842F4497286
:1026FC001A601A6842F040021A60704700100240DB
:10270C00000C014000380040074A936943F0040371
:10271C009361064B1A6822F070421A601A6842F0F4
:10272C0000521A60704700BF0010024000080140C0
:10273C0008B5FFF7A9FFFFF7E7FFFFF791FF08BD0B
:10274C00064B9B6813F0020FFAD0044BD860034B76
:10275C009B6813F0800FFAD1704700BF003800401F
:10276C0008B5FFF7EDFF074B9B6813F0010FFAD08C
:10277C00044BD868C0B2034B9B6813F0800FFAD19E
:10278C0008BD00BF0038004070B506460D46002459
:10279C0005E00020FFF7E4FF30550134E4B2AC4211
:1027AC00F7D370BD70B506460D46002404E0305DCD
:1027BC00FFF7C6FF0134E4B2AC42F8D370BD0000A1
:1027CC00FFF71DFB0B480C490C4A002302E0D458C0
:1027DC00C4500433C4188C42F9D3094A094C002361
:1027EC0001E013600432A242FBD3FDF7D3FCFEF7E9
:1027FC0073FB704700000020740000206C29000857
:10280C007400002068030020FEE70000F8B500BF4C
:10281C00F8BC08BC9E467047F8B500BFF8BC08BCB5
:04282C009E4670470D
:102830000000000000000000010001C9C38000008A
:10284000A98001E078002222004E2000000046000E
:10285000009C400000008C000002BB00012DD40051
:10286000000000000414000031000000027100D1DB
:10287000B700000003AA008BCF004602C200000090
:102880000177015D8600AF02C2000000848300DE94
:102890000100000004000020000000000000000013
:1028A0000000000000000000000000000000000028
:1028B0000000000000000000000000000000000018
:1028C0000000000000000000000000000000000008
:1028D00000000000000000000000000000000000F8
:1028E00000000000000000000000000000000000E8
:1028F0000000000000000000526164696F206572F2
:10290000726F7200526164696F20737563636573DF
:1029100073210000616674657220736574757000C0
:1029200068656C6C6F207361727468616B0A00007B
:1029300002030405060708090A0B0C0D0E0F101000
:10294000010200000000000000000000010203047A
:10295000060708090000000001020304020100004C
:04296000030D400023
:0429640075010008F1
:042968004D01000815
:10296C000400002000000000D8280008B828000847
:10297C009828000800000000000000000000000083
:10298C00000000000000000000000000000000003B
:10299C00000000000000000000000000000000002B
:1029AC00000000000000000000000000000000001B
:1029BC00000000000000000000000000000000000B
:1029CC0000000000010000001000000000127A005E
:0429DC0003000000F4
:04000005080027CDFB
:00000001FF
